{
  "_format": "hh-sol-artifact-1",
  "contractName": "Funding",
  "sourceName": "contracts/Funding.sol",
  "abi": [
    {
      "inputs": [
        {
          "internalType": "address",
          "name": "_addressOfMing",
          "type": "address"
        },
        {
          "internalType": "uint256",
          "name": "_endTime",
          "type": "uint256"
        }
      ],
      "stateMutability": "nonpayable",
      "type": "constructor"
    },
    {
      "inputs": [],
      "name": "balance",
      "outputs": [
        {
          "internalType": "uint256",
          "name": "",
          "type": "uint256"
        }
      ],
      "stateMutability": "view",
      "type": "function"
    },
    {
      "inputs": [
        {
          "internalType": "uint256",
          "name": "",
          "type": "uint256"
        }
      ],
      "name": "deposits",
      "outputs": [
        {
          "internalType": "address",
          "name": "owner",
          "type": "address"
        },
        {
          "internalType": "uint128",
          "name": "liquidity",
          "type": "uint128"
        },
        {
          "internalType": "address",
          "name": "token0",
          "type": "address"
        },
        {
          "internalType": "address",
          "name": "token1",
          "type": "address"
        }
      ],
      "stateMutability": "view",
      "type": "function"
    },
    {
      "inputs": [],
      "name": "fund",
      "outputs": [],
      "stateMutability": "payable",
      "type": "function"
    },
    {
      "inputs": [
        {
          "internalType": "address",
          "name": "addr",
          "type": "address"
        }
      ],
      "name": "getAmountFunded",
      "outputs": [
        {
          "internalType": "uint256",
          "name": "",
          "type": "uint256"
        }
      ],
      "stateMutability": "view",
      "type": "function"
    },
    {
      "inputs": [
        {
          "internalType": "address",
          "name": "addr",
          "type": "address"
        }
      ],
      "name": "getCurrentAmountFunded",
      "outputs": [
        {
          "internalType": "uint256",
          "name": "",
          "type": "uint256"
        }
      ],
      "stateMutability": "view",
      "type": "function"
    },
    {
      "inputs": [],
      "name": "i_owner",
      "outputs": [
        {
          "internalType": "address",
          "name": "",
          "type": "address"
        }
      ],
      "stateMutability": "view",
      "type": "function"
    },
    {
      "inputs": [
        {
          "internalType": "address",
          "name": "operator",
          "type": "address"
        },
        {
          "internalType": "address",
          "name": "",
          "type": "address"
        },
        {
          "internalType": "uint256",
          "name": "tokenId",
          "type": "uint256"
        },
        {
          "internalType": "bytes",
          "name": "",
          "type": "bytes"
        }
      ],
      "name": "onERC721Received",
      "outputs": [
        {
          "internalType": "bytes4",
          "name": "",
          "type": "bytes4"
        }
      ],
      "stateMutability": "nonpayable",
      "type": "function"
    },
    {
      "inputs": [],
      "name": "onFundingOver",
      "outputs": [],
      "stateMutability": "nonpayable",
      "type": "function"
    },
    {
      "inputs": [],
      "name": "poolFee",
      "outputs": [
        {
          "internalType": "uint24",
          "name": "",
          "type": "uint24"
        }
      ],
      "stateMutability": "view",
      "type": "function"
    }
  ],
  "bytecode": "0x608060405260006004556000600560006101000a81548160ff02191690831515021790555073c36442b4a4522e871399cd717abdd847ab11fe88600560016101000a81548173ffffffffffffffffffffffffffffffffffffffff021916908373ffffffffffffffffffffffffffffffffffffffff16021790555073e592427a0aece92de3edee1f18e0157c05861564600660006101000a81548173ffffffffffffffffffffffffffffffffffffffff021916908373ffffffffffffffffffffffffffffffffffffffff160217905550731f98431c8ad98523631ae4a59f267346ea31f984600760006101000a81548173ffffffffffffffffffffffffffffffffffffffff021916908373ffffffffffffffffffffffffffffffffffffffff1602179055506002600d60006101000a81548162ffffff021916908360020b62ffffff1602179055506305f5e100600e553480156200015b57600080fd5b50604051620042b1380380620042b1833981810160405281019062000181919062000295565b81600360006101000a81548173ffffffffffffffffffffffffffffffffffffffff021916908373ffffffffffffffffffffffffffffffffffffffff16021790555033600a60006101000a81548173ffffffffffffffffffffffffffffffffffffffff021916908373ffffffffffffffffffffffffffffffffffffffff16021790555073c02aaa39b223fe8d0a0e5c4f27ead9083c756cc2600960006101000a81548173ffffffffffffffffffffffffffffffffffffffff021916908373ffffffffffffffffffffffffffffffffffffffff16021790555080600b81905550505062000348565b600081519050620002788162000314565b92915050565b6000815190506200028f816200032e565b92915050565b60008060408385031215620002a957600080fd5b6000620002b98582860162000267565b9250506020620002cc858286016200027e565b9150509250929050565b6000620002e382620002ea565b9050919050565b600073ffffffffffffffffffffffffffffffffffffffff82169050919050565b6000819050919050565b6200031f81620002d6565b81146200032b57600080fd5b50565b62000339816200030a565b81146200034557600080fd5b50565b613f5980620003586000396000f3fe6080604052600436106100865760003560e01c8063b02c43d011610059578063b02c43d014610147578063b60d428814610187578063b69ef8a814610191578063d583f402146101bc578063dba6335f146101f957610086565b8063089fe6aa1461008b578063150b7a02146100b65780636dbcf252146100f3578063a48b45551461010a575b600080fd5b34801561009757600080fd5b506100a0610224565b6040516100ad9190613b68565b60405180910390f35b3480156100c257600080fd5b506100dd60048036038101906100d8919061336a565b61022a565b6040516100ea9190613a56565b60405180910390f35b3480156100ff57600080fd5b5061010861023f565b005b34801561011657600080fd5b50610131600480360381019061012c9190613318565b6105c2565b60405161013e9190613b83565b60405180910390f35b34801561015357600080fd5b5061016e60048036038101906101699190613529565b61060e565b60405161017e94939291906139e8565b60405180910390f35b61018f6106ba565b005b34801561019d57600080fd5b506101a6610c42565b6040516101b39190613b83565b60405180910390f35b3480156101c857600080fd5b506101e360048036038101906101de9190613318565b610c4a565b6040516101f09190613b83565b60405180910390f35b34801561020557600080fd5b5061020e610c96565b60405161021b919061395f565b60405180910390f35b610bb881565b600063150b7a0260e01b905095945050505050565b600a60009054906101000a900473ffffffffffffffffffffffffffffffffffffffff1673ffffffffffffffffffffffffffffffffffffffff163373ffffffffffffffffffffffffffffffffffffffff16146102cf576040517f08c379a00000000000000000000000000000000000000000000000000000000081526004016102c690613af1565b60405180910390fd5b600560009054906101000a900460ff161561031f576040517f08c379a000000000000000000000000000000000000000000000000000000000815260040161031690613a71565b60405180910390fd5b6001600560006101000a81548160ff02191690831515021790555061035b604051806080016040528060428152602001613ee260429139610cbc565b61039c6040518060400160405280600e81526020017f66756e645261697365643a202573000000000000000000000000000000000000815250600c54610dba565b6000600360009054906101000a900473ffffffffffffffffffffffffffffffffffffffff16905060008173ffffffffffffffffffffffffffffffffffffffff166318160ddd6040518163ffffffff1660e01b815260040160206040518083038186803b15801561040b57600080fd5b505afa15801561041f573d6000803e3d6000fd5b505050506040513d601f19601f820116820180604052508101906104439190613552565b905060006064603283028161045457fe5b0490506104966040518060400160405280601e81526020017f616d6f756e74206f66204d494e4720746f2020756e69737761703a202573000081525082610dba565b6000600c541415610586576104df6040518060400160405280601c81526020017f7a65726f207261697365642c206275726e20616c6c20746f6b656e7300000000815250610cbc565b8273ffffffffffffffffffffffffffffffffffffffff1663a9059cbb734444444444444444444444444444444444444444836040518363ffffffff1660e01b815260040161052e92919061397a565b602060405180830381600087803b15801561054857600080fd5b505af115801561055c573d6000803e3d6000fd5b505050506040513d601f19601f8201168201806040525081019061058091906133ea565b5061059c565b61058f81610ec1565b61059b600c54826112ca565b5b6105bd604051806060016040528060408152602001613e5760409139610cbc565b505050565b6000600160008373ffffffffffffffffffffffffffffffffffffffff1673ffffffffffffffffffffffffffffffffffffffff168152602001908152602001600020600001549050919050565b60006020528060005260406000206000915090508060000160009054906101000a900473ffffffffffffffffffffffffffffffffffffffff16908060010160009054906101000a90046fffffffffffffffffffffffffffffffff16908060020160009054906101000a900473ffffffffffffffffffffffffffffffffffffffff16908060030160009054906101000a900473ffffffffffffffffffffffffffffffffffffffff16905084565b600034905060008111610702576040517f08c379a00000000000000000000000000000000000000000000000000000000081526004016106f990613a91565b60405180910390fd5b600b544210610746576040517f08c379a000000000000000000000000000000000000000000000000000000000815260040161073d90613b11565b60405180910390fd5b6000600960009054906101000a900473ffffffffffffffffffffffffffffffffffffffff1673ffffffffffffffffffffffffffffffffffffffff166370a08231306040518263ffffffff1660e01b81526004016107a3919061395f565b60206040518083038186803b1580156107bb57600080fd5b505afa1580156107cf573d6000803e3d6000fd5b505050506040513d601f19601f820116820180604052508101906107f39190613552565b90506000821461093157600960009054906101000a900473ffffffffffffffffffffffffffffffffffffffff1673ffffffffffffffffffffffffffffffffffffffff1663d0e30db0836040518263ffffffff1660e01b81526004016000604051808303818588803b15801561086757600080fd5b505af115801561087b573d6000803e3d6000fd5b5050505050600960009054906101000a900473ffffffffffffffffffffffffffffffffffffffff1673ffffffffffffffffffffffffffffffffffffffff1663a9059cbb30846040518363ffffffff1660e01b81526004016108dd929190613a2d565b602060405180830381600087803b1580156108f757600080fd5b505af115801561090b573d6000803e3d6000fd5b505050506040513d601f19601f8201168201806040525081019061092f91906133ea565b505b6000600960009054906101000a900473ffffffffffffffffffffffffffffffffffffffff1673ffffffffffffffffffffffffffffffffffffffff166370a08231306040518263ffffffff1660e01b815260040161098e919061395f565b60206040518083038186803b1580156109a657600080fd5b505afa1580156109ba573d6000803e3d6000fd5b505050506040513d601f19601f820116820180604052508101906109de9190613552565b9050610a1f6040518060400160405280601781526020017f62616c616e6365206f662057455448206e6f773a20257300000000000000000081525082610dba565b8282820314610a63576040517f08c379a0000000000000000000000000000000000000000000000000000000008152600401610a5a90613ad1565b60405180910390fd5b600160003373ffffffffffffffffffffffffffffffffffffffff1673ffffffffffffffffffffffffffffffffffffffff16815260200190815260200160002060010160009054906101000a900460ff16610b9c576002339080600181540180825580915050600190039060005260206000200160009091909190916101000a81548173ffffffffffffffffffffffffffffffffffffffff021916908373ffffffffffffffffffffffffffffffffffffffff16021790555060018060003373ffffffffffffffffffffffffffffffffffffffff1673ffffffffffffffffffffffffffffffffffffffff16815260200190815260200160002060010160006101000a81548160ff021916908315150217905550610b9b604051806060016040528060238152602001613daa60239139600280549050610dba565b5b34600160003373ffffffffffffffffffffffffffffffffffffffff1673ffffffffffffffffffffffffffffffffffffffff1681526020019081526020016000206000016000828254019250508190555034600c60008282540192505081905550610c3d6040518060400160405280600e81526020017f66756e645261697365643a202573000000000000000000000000000000000000815250600c54610dba565b505050565b600047905090565b6000600160008373ffffffffffffffffffffffffffffffffffffffff1673ffffffffffffffffffffffffffffffffffffffff168152602001908152602001600020600001549050919050565b600a60009054906101000a900473ffffffffffffffffffffffffffffffffffffffff1681565b610db7816040516024018080602001828103825283818151815260200191508051906020019080838360005b83811015610d03578082015181840152602081019050610ce8565b50505050905090810190601f168015610d305780820380516001836020036101000a031916815260200191505b50925050506040516020818303038152906040527f41304fac000000000000000000000000000000000000000000000000000000007bffffffffffffffffffffffffffffffffffffffffffffffffffffffff19166020820180517bffffffffffffffffffffffffffffffffffffffffffffffffffffffff8381831617835250505050611a3f565b50565b610ebd82826040516024018080602001838152602001828103825284818151815260200191508051906020019080838360005b83811015610e08578082015181840152602081019050610ded565b50505050905090810190601f168015610e355780820380516001836020036101000a031916815260200191505b5093505050506040516020818303038152906040527fb60e72cc000000000000000000000000000000000000000000000000000000007bffffffffffffffffffffffffffffffffffffffffffffffffffffffff19166020820180517bffffffffffffffffffffffffffffffffffffffffffffffffffffffff8381831617835250505050611a3f565b5050565b610ee2604051806080016040528060458152602001613d6560459139610cbc565b6000600360009054906101000a900473ffffffffffffffffffffffffffffffffffffffff1690506000600960009054906101000a900473ffffffffffffffffffffffffffffffffffffffff1673ffffffffffffffffffffffffffffffffffffffff166370a08231306040518263ffffffff1660e01b8152600401610f66919061395f565b60206040518083038186803b158015610f7e57600080fd5b505afa158015610f92573d6000803e3d6000fd5b505050506040513d601f19601f82011682018060405250810190610fb69190613552565b9050610ff76040518060400160405280601381526020017f62616c616e6365206f6620574554483a2025730000000000000000000000000081525082610dba565b6000600280548060200260200160405190810160405280929190818152602001828054801561107b57602002820191906000526020600020905b8160009054906101000a900473ffffffffffffffffffffffffffffffffffffffff1673ffffffffffffffffffffffffffffffffffffffff1681526020019060010190808311611031575b505050505090506110c26040518060400160405280601981526020017f63757272656e7446756e646572732e6c656e6774683a202573000000000000008152508251610dba565b60005b81518110156112a25760008282815181106110dc57fe5b602002602001015190506000600160008373ffffffffffffffffffffffffffffffffffffffff1673ffffffffffffffffffffffffffffffffffffffff1681526020019081526020016000206000015490506000858289028161113a57fe5b0490508673ffffffffffffffffffffffffffffffffffffffff1663a9059cbb84836040518363ffffffff1660e01b8152600401611178929190613a2d565b602060405180830381600087803b15801561119257600080fd5b505af11580156111a6573d6000803e3d6000fd5b505050506040513d601f19601f820116820180604052508101906111ca91906133ea565b506112926040518060400160405280601581526020017f62616c616e6365206f662066756e6465723a20257300000000000000000000008152508873ffffffffffffffffffffffffffffffffffffffff166370a08231866040518263ffffffff1660e01b815260040161123d919061395f565b60206040518083038186803b15801561125557600080fd5b505afa158015611269573d6000803e3d6000fd5b505050506040513d601f19601f8201168201806040525081019061128d9190613552565b610dba565b50505080806001019150506110c5565b506112c4604051806080016040528060438152602001613e1460439139610cbc565b50505050565b60006004541415611a3b57600360009054906101000a900473ffffffffffffffffffffffffffffffffffffffff1673ffffffffffffffffffffffffffffffffffffffff1673c02aaa39b223fe8d0a0e5c4f27ead9083c756cc273ffffffffffffffffffffffffffffffffffffffff1610156115f25761137d6040518060400160405280600981526020017f696e697420706f6f6c0000000000000000000000000000000000000000000000815250610cbc565b600061139f600e54838161138d57fe5b04600e54858161139957fe5b04611a59565b90506000600560019054906101000a900473ffffffffffffffffffffffffffffffffffffffff1673ffffffffffffffffffffffffffffffffffffffff166313ead56273c02aaa39b223fe8d0a0e5c4f27ead9083c756cc2600360009054906101000a900473ffffffffffffffffffffffffffffffffffffffff16610bb8866040518563ffffffff1660e01b815260040161143c94939291906139a3565b602060405180830381600087803b15801561145657600080fd5b505af115801561146a573d6000803e3d6000fd5b505050506040513d601f19601f8201168201806040525081019061148e9190613341565b905080600860006101000a81548173ffffffffffffffffffffffffffffffffffffffff021916908373ffffffffffffffffffffffffffffffffffffffff160217905550600860009054906101000a900473ffffffffffffffffffffffffffffffffffffffff1673ffffffffffffffffffffffffffffffffffffffff1663d0c93a7c6040518163ffffffff1660e01b815260040160206040518083038186803b15801561153957600080fd5b505afa15801561154d573d6000803e3d6000fd5b505050506040513d601f19601f820116820180604052508101906115719190613413565b600860146101000a81548162ffffff021916908360020b62ffffff16021790555060006115b4600e5486816115a257fe5b04600e5486816115ae57fe5b04611a86565b5050509050806004819055506115e7600454600e5487816115d157fe5b048703600e5487816115df57fe5b0487036128e3565b5050505050506118a1565b6116306040518060400160405280601281526020017f696e697420706f6f6c2072657665727365640000000000000000000000000000815250610cbc565b6000611652600e54848161164057fe5b04600e54848161164c57fe5b04611a59565b90506000600560019054906101000a900473ffffffffffffffffffffffffffffffffffffffff1673ffffffffffffffffffffffffffffffffffffffff166313ead562600360009054906101000a900473ffffffffffffffffffffffffffffffffffffffff1673c02aaa39b223fe8d0a0e5c4f27ead9083c756cc2610bb8866040518563ffffffff1660e01b81526004016116ef94939291906139a3565b602060405180830381600087803b15801561170957600080fd5b505af115801561171d573d6000803e3d6000fd5b505050506040513d601f19601f820116820180604052508101906117419190613341565b905080600860006101000a81548173ffffffffffffffffffffffffffffffffffffffff021916908373ffffffffffffffffffffffffffffffffffffffff160217905550600860009054906101000a900473ffffffffffffffffffffffffffffffffffffffff1673ffffffffffffffffffffffffffffffffffffffff1663d0c93a7c6040518163ffffffff1660e01b815260040160206040518083038186803b1580156117ec57600080fd5b505afa158015611800573d6000803e3d6000fd5b505050506040513d601f19601f820116820180604052508101906118249190613413565b600860146101000a81548162ffffff021916908360020b62ffffff1602179055506000611867600e54858161185557fe5b04600e54878161186157fe5b04611a86565b50505090508060048190555061189a600454600e54868161188457fe5b048603600e54888161189257fe5b0488036128e3565b5050505050505b611a1f6040518060400160405280602081526020017f746f6b656e303a202573202d3e20746f6b656e313a2025732c207469636b3a20815250600860009054906101000a900473ffffffffffffffffffffffffffffffffffffffff1673ffffffffffffffffffffffffffffffffffffffff16630dfe16816040518163ffffffff1660e01b815260040160206040518083038186803b15801561194257600080fd5b505afa158015611956573d6000803e3d6000fd5b505050506040513d601f19601f8201168201806040525081019061197a9190613341565b600860009054906101000a900473ffffffffffffffffffffffffffffffffffffffff1673ffffffffffffffffffffffffffffffffffffffff1663d21220a76040518163ffffffff1660e01b815260040160206040518083038186803b1580156119e257600080fd5b505afa1580156119f6573d6000803e3d6000fd5b505050506040513d601f19601f82011682018060405250810190611a1a9190613341565b612bd9565b611a3a600860149054906101000a900460020b60020b612d15565b5b5050565b611a5681611a4e612dae612dcf565b63ffffffff16565b50565b6000611a7e826c010000000000000000000000008086020281611a7857fe5b04612dda565b905092915050565b600080600080611cfd604051806060016040528060218152602001613df360219139600860009054906101000a900473ffffffffffffffffffffffffffffffffffffffff1673ffffffffffffffffffffffffffffffffffffffff16630dfe16816040518163ffffffff1660e01b815260040160206040518083038186803b158015611b1057600080fd5b505afa158015611b24573d6000803e3d6000fd5b505050506040513d601f19601f82011682018060405250810190611b489190613341565b73ffffffffffffffffffffffffffffffffffffffff166370a08231306040518263ffffffff1660e01b8152600401611b80919061395f565b60206040518083038186803b158015611b9857600080fd5b505afa158015611bac573d6000803e3d6000fd5b505050506040513d601f19601f82011682018060405250810190611bd09190613552565b600860009054906101000a900473ffffffffffffffffffffffffffffffffffffffff1673ffffffffffffffffffffffffffffffffffffffff1663d21220a76040518163ffffffff1660e01b815260040160206040518083038186803b158015611c3857600080fd5b505afa158015611c4c573d6000803e3d6000fd5b505050506040513d601f19601f82011682018060405250810190611c709190613341565b73ffffffffffffffffffffffffffffffffffffffff166370a08231306040518263ffffffff1660e01b8152600401611ca8919061395f565b60206040518083038186803b158015611cc057600080fd5b505afa158015611cd4573d6000803e3d6000fd5b505050506040513d601f19601f82011682018060405250810190611cf89190613552565b612ee9565b611d20604051806060016040528060268152602001613ebc602691398787612ee9565b600860009054906101000a900473ffffffffffffffffffffffffffffffffffffffff1673ffffffffffffffffffffffffffffffffffffffff16630dfe16816040518163ffffffff1660e01b815260040160206040518083038186803b158015611d8857600080fd5b505afa158015611d9c573d6000803e3d6000fd5b505050506040513d601f19601f82011682018060405250810190611dc09190613341565b73ffffffffffffffffffffffffffffffffffffffff1663095ea7b3600560019054906101000a900473ffffffffffffffffffffffffffffffffffffffff16886040518363ffffffff1660e01b8152600401611e1c929190613a2d565b602060405180830381600087803b158015611e3657600080fd5b505af1158015611e4a573d6000803e3d6000fd5b505050506040513d601f19601f82011682018060405250810190611e6e91906133ea565b50600860009054906101000a900473ffffffffffffffffffffffffffffffffffffffff1673ffffffffffffffffffffffffffffffffffffffff1663d21220a76040518163ffffffff1660e01b815260040160206040518083038186803b158015611ed757600080fd5b505afa158015611eeb573d6000803e3d6000fd5b505050506040513d601f19601f82011682018060405250810190611f0f9190613341565b73ffffffffffffffffffffffffffffffffffffffff1663095ea7b3600560019054906101000a900473ffffffffffffffffffffffffffffffffffffffff16876040518363ffffffff1660e01b8152600401611f6b929190613a2d565b602060405180830381600087803b158015611f8557600080fd5b505af1158015611f99573d6000803e3d6000fd5b505050506040513d601f19601f82011682018060405250810190611fbd91906133ea565b506000600860009054906101000a900473ffffffffffffffffffffffffffffffffffffffff1673ffffffffffffffffffffffffffffffffffffffff16633850c7bd6040518163ffffffff1660e01b815260040160e06040518083038186803b15801561202857600080fd5b505afa15801561203c573d6000803e3d6000fd5b505050506040513d601f19601f82011682018060405250810190612060919061348b565b50505050509150506120a66040518060400160405280600e81526020017f63757272656e74207469636b3a20000000000000000000000000000000000000815250610cbc565b6120b28160020b612d15565b600860149054906101000a900460020b60020b8160020b816120d057fe5b07810390506000600d60009054906101000a900460020b600860149054906101000a900460020b02820390506000600d60009054906101000a900460020b600860149054906101000a900460020b02830190506000600860149054906101000a900460020b60020b8460020b8161214357fe5b0760020b14612187576040517f08c379a000000000000000000000000000000000000000000000000000000000815260040161217e90613ab1565b60405180910390fd5b6121c56040518060400160405280601181526020017f6c6f7765722a7570706572207469636b20000000000000000000000000000000815250610cbc565b6121d18260020b612d15565b6121dd8160020b612d15565b6000604051806101600160405280600860009054906101000a900473ffffffffffffffffffffffffffffffffffffffff1673ffffffffffffffffffffffffffffffffffffffff16630dfe16816040518163ffffffff1660e01b815260040160206040518083038186803b15801561225357600080fd5b505afa158015612267573d6000803e3d6000fd5b505050506040513d601f19601f8201168201806040525081019061228b9190613341565b73ffffffffffffffffffffffffffffffffffffffff168152602001600860009054906101000a900473ffffffffffffffffffffffffffffffffffffffff1673ffffffffffffffffffffffffffffffffffffffff1663d21220a76040518163ffffffff1660e01b815260040160206040518083038186803b15801561230e57600080fd5b505afa158015612322573d6000803e3d6000fd5b505050506040513d601f19601f820116820180604052508101906123469190613341565b73ffffffffffffffffffffffffffffffffffffffff168152602001610bb862ffffff1681526020018460020b81526020018360020b81526020018b81526020018a815260200160008152602001600081526020013073ffffffffffffffffffffffffffffffffffffffff168152602001428152509050600560019054906101000a900473ffffffffffffffffffffffffffffffffffffffff1673ffffffffffffffffffffffffffffffffffffffff166388316456826040518263ffffffff1660e01b81526004016124179190613b4c565b608060405180830381600087803b15801561243157600080fd5b505af1158015612445573d6000803e3d6000fd5b505050506040513d601f19601f82011682018060405250810190612469919061357b565b809850819950829a50839b50505050506124b96040518060400160405280601b81526020017f6e657720706f736974696f6e206d696e7465643a2025732c20257300000000008152508787612ee9565b8986101561258f5761258e600860009054906101000a900473ffffffffffffffffffffffffffffffffffffffff1673ffffffffffffffffffffffffffffffffffffffff16630dfe16816040518163ffffffff1660e01b815260040160206040518083038186803b15801561252c57600080fd5b505afa158015612540573d6000803e3d6000fd5b505050506040513d601f19601f820116820180604052508101906125649190613341565b600560019054906101000a900473ffffffffffffffffffffffffffffffffffffffff166000612ff9565b5b8885101561266557612664600860009054906101000a900473ffffffffffffffffffffffffffffffffffffffff1673ffffffffffffffffffffffffffffffffffffffff1663d21220a76040518163ffffffff1660e01b815260040160206040518083038186803b15801561260257600080fd5b505afa158015612616573d6000803e3d6000fd5b505050506040513d601f19601f8201168201806040525081019061263a9190613341565b600560019054906101000a900473ffffffffffffffffffffffffffffffffffffffff166000612ff9565b5b6128d6604051806060016040528060258152602001613e9760259139600860009054906101000a900473ffffffffffffffffffffffffffffffffffffffff1673ffffffffffffffffffffffffffffffffffffffff16630dfe16816040518163ffffffff1660e01b815260040160206040518083038186803b1580156126e957600080fd5b505afa1580156126fd573d6000803e3d6000fd5b505050506040513d601f19601f820116820180604052508101906127219190613341565b73ffffffffffffffffffffffffffffffffffffffff166370a08231306040518263ffffffff1660e01b8152600401612759919061395f565b60206040518083038186803b15801561277157600080fd5b505afa158015612785573d6000803e3d6000fd5b505050506040513d601f19601f820116820180604052508101906127a99190613552565b600860009054906101000a900473ffffffffffffffffffffffffffffffffffffffff1673ffffffffffffffffffffffffffffffffffffffff1663d21220a76040518163ffffffff1660e01b815260040160206040518083038186803b15801561281157600080fd5b505afa158015612825573d6000803e3d6000fd5b505050506040513d601f19601f820116820180604052508101906128499190613341565b73ffffffffffffffffffffffffffffffffffffffff166370a08231306040518263ffffffff1660e01b8152600401612881919061395f565b60206040518083038186803b15801561289957600080fd5b505afa1580156128ad573d6000803e3d6000fd5b505050506040513d601f19601f820116820180604052508101906128d19190613552565b612ee9565b5050505092959194509250565b60008060006129b4600860009054906101000a900473ffffffffffffffffffffffffffffffffffffffff1673ffffffffffffffffffffffffffffffffffffffff16630dfe16816040518163ffffffff1660e01b815260040160206040518083038186803b15801561295357600080fd5b505afa158015612967573d6000803e3d6000fd5b505050506040513d601f19601f8201168201806040525081019061298b9190613341565b600560019054906101000a900473ffffffffffffffffffffffffffffffffffffffff1687612ff9565b612a80600860009054906101000a900473ffffffffffffffffffffffffffffffffffffffff1673ffffffffffffffffffffffffffffffffffffffff1663d21220a76040518163ffffffff1660e01b815260040160206040518083038186803b158015612a1f57600080fd5b505afa158015612a33573d6000803e3d6000fd5b505050506040513d601f19601f82011682018060405250810190612a579190613341565b600560019054906101000a900473ffffffffffffffffffffffffffffffffffffffff1686612ff9565b612aa3604051806060016040528060268152602001613dcd602691398686612ee9565b60006040518060c001604052808881526020018781526020018681526020016000815260200160008152602001428152509050600560019054906101000a900473ffffffffffffffffffffffffffffffffffffffff1673ffffffffffffffffffffffffffffffffffffffff1663219f5d17826040518263ffffffff1660e01b8152600401612b319190613b31565b606060405180830381600087803b158015612b4b57600080fd5b505af1158015612b5f573d6000803e3d6000fd5b505050506040513d601f19601f82011682018060405250810190612b83919061343c565b809450819550829650505050612bcf6040518060400160405280601881526020017f61637475616c20616d6f756e74733a202573202d3e20257300000000000000008152508484612ee9565b5093509350939050565b612d1083838360405160240180806020018473ffffffffffffffffffffffffffffffffffffffff1681526020018373ffffffffffffffffffffffffffffffffffffffff168152602001828103825285818151815260200191508051906020019080838360005b83811015612c5a578082015181840152602081019050612c3f565b50505050905090810190601f168015612c875780820380516001836020036101000a031916815260200191505b509450505050506040516020818303038152906040527ffcec75e0000000000000000000000000000000000000000000000000000000007bffffffffffffffffffffffffffffffffffffffffffffffffffffffff19166020820180517bffffffffffffffffffffffffffffffffffffffffffffffffffffffff8381831617835250505050611a3f565b505050565b612dab81604051602401808281526020019150506040516020818303038152906040527f2d5b6cb9000000000000000000000000000000000000000000000000000000007bffffffffffffffffffffffffffffffffffffffffffffffffffffffff19166020820180517bffffffffffffffffffffffffffffffffffffffffffffffffffffffff8381831617835250505050611a3f565b50565b60006a636f6e736f6c652e6c6f679050600080835160208501845afa505050565b6131fa819050919050565b600060019050817001000000000000000000000000000000008110612e06578060801c90508160401b91505b680100000000000000008110612e23578060401c90508160201b91505b6401000000008110612e3c578060201c90508160101b91505b620100008110612e53578060101c90508160081b91505b6101008110612e69578060081c90508160041b91505b60108110612e7e578060041c90508160021b91505b60088110612e8d578160011b91505b818304820160011c9150818304820160011c9150818304820160011c9150818304820160011c9150818304820160011c9150818304820160011c9150818304820160011c915081830482811015612ee2578092505b5050919050565b612ff48383836040516024018080602001848152602001838152602001828103825285818151815260200191508051906020019080838360005b83811015612f3e578082015181840152602081019050612f23565b50505050905090810190601f168015612f6b5780820380516001836020036101000a031916815260200191505b509450505050506040516020818303038152906040527fca47c4eb000000000000000000000000000000000000000000000000000000007bffffffffffffffffffffffffffffffffffffffffffffffffffffffff19166020820180517bffffffffffffffffffffffffffffffffffffffffffffffffffffffff8381831617835250505050611a3f565b505050565b6000808473ffffffffffffffffffffffffffffffffffffffff1663095ea7b360e01b8585604051602401808373ffffffffffffffffffffffffffffffffffffffff16815260200182815260200192505050604051602081830303815290604052907bffffffffffffffffffffffffffffffffffffffffffffffffffffffff19166020820180517bffffffffffffffffffffffffffffffffffffffffffffffffffffffff83818316178352505050506040518082805190602001908083835b602083106130da57805182526020820191506020810190506020830392506130b7565b6001836020036101000a0380198251168184511680821785525050505050509050019150506000604051808303816000865af19150503d806000811461313c576040519150601f19603f3d011682016040523d82523d6000602084013e613141565b606091505b50915091508180156131815750600081511480613180575080806020019051602081101561316e57600080fd5b81019080805190602001909291905050505b5b6131f3576040517f08c379a00000000000000000000000000000000000000000000000000000000081526004018080602001828103825260028152602001807f534100000000000000000000000000000000000000000000000000000000000081525060200191505060405180910390fd5b5050505050565bfe5b60008135905061320b81613cac565b92915050565b60008151905061322081613cac565b92915050565b60008151905061323581613cc3565b92915050565b60008083601f84011261324d57600080fd5b8235905067ffffffffffffffff81111561326657600080fd5b60208301915083600182028301111561327e57600080fd5b9250929050565b60008151905061329481613cda565b92915050565b6000815190506132a981613cf1565b92915050565b6000815190506132be81613d1f565b92915050565b6000815190506132d381613d08565b92915050565b6000813590506132e881613d36565b92915050565b6000815190506132fd81613d36565b92915050565b60008151905061331281613d4d565b92915050565b60006020828403121561332a57600080fd5b6000613338848285016131fc565b91505092915050565b60006020828403121561335357600080fd5b600061336184828501613211565b91505092915050565b60008060008060006080868803121561338257600080fd5b6000613390888289016131fc565b95505060206133a1888289016131fc565b94505060406133b2888289016132d9565b935050606086013567ffffffffffffffff8111156133cf57600080fd5b6133db8882890161323b565b92509250509295509295909350565b6000602082840312156133fc57600080fd5b600061340a84828501613226565b91505092915050565b60006020828403121561342557600080fd5b600061343384828501613285565b91505092915050565b60008060006060848603121561345157600080fd5b600061345f8682870161329a565b9350506020613470868287016132ee565b9250506040613481868287016132ee565b9150509250925092565b600080600080600080600060e0888a0312156134a657600080fd5b60006134b48a828b016132af565b97505060206134c58a828b01613285565b96505060406134d68a828b016132c4565b95505060606134e78a828b016132c4565b94505060806134f88a828b016132c4565b93505060a06135098a828b01613303565b92505060c061351a8a828b01613226565b91505092959891949750929550565b60006020828403121561353b57600080fd5b6000613549848285016132d9565b91505092915050565b60006020828403121561356457600080fd5b6000613572848285016132ee565b91505092915050565b6000806000806080858703121561359157600080fd5b600061359f878288016132ee565b94505060206135b08782880161329a565b93505060406135c1878288016132ee565b92505060606135d2878288016132ee565b91505092959194509250565b6135e781613c76565b82525050565b6135f681613baf565b82525050565b61360581613baf565b82525050565b61361481613bcd565b82525050565b61362381613bf9565b82525050565b6000613636601d83613b9e565b91507f46756e64696e67206f76657220686173206265656e2063616c6c65642e0000006000830152602082019050919050565b6000613676601083613b9e565b91507f66756e64206d757374203e207a65726f000000000000000000000000000000006000830152602082019050919050565b60006136b6600a83613b9e565b91507f7469636b206572726f72000000000000000000000000000000000000000000006000830152602082019050919050565b60006136f6601683613b9e565b91507f457468657265756d206e6f74206465706f7369746564000000000000000000006000830152602082019050919050565b6000613736600983613b9e565b91507f6e6f74206f776e657200000000000000000000000000000000000000000000006000830152602082019050919050565b6000613776601183613b9e565b91507f66756e64696e672068617320656e6465640000000000000000000000000000006000830152602082019050919050565b60c0820160008201516137bf6000850182613941565b5060208201516137d26020850182613941565b5060408201516137e56040850182613941565b5060608201516137f86060850182613941565b50608082015161380b6080850182613941565b5060a082015161381e60a0850182613941565b50505050565b6101608201600082015161383b60008501826135ed565b50602082015161384e60208501826135ed565b5060408201516138616040850182613923565b506060820151613874606085018261361a565b506080820151613887608085018261361a565b5060a082015161389a60a0850182613941565b5060c08201516138ad60c0850182613941565b5060e08201516138c060e0850182613941565b506101008201516138d5610100850182613941565b506101208201516138ea6101208501826135ed565b506101408201516138ff610140850182613941565b50505050565b61390e81613c06565b82525050565b61391d81613c30565b82525050565b61392c81613c50565b82525050565b61393b81613c50565b82525050565b61394a81613c5f565b82525050565b61395981613c5f565b82525050565b600060208201905061397460008301846135fc565b92915050565b600060408201905061398f60008301856135de565b61399c6020830184613950565b9392505050565b60006080820190506139b860008301876135fc565b6139c560208301866135fc565b6139d26040830185613932565b6139df6060830184613914565b95945050505050565b60006080820190506139fd60008301876135fc565b613a0a6020830186613905565b613a1760408301856135fc565b613a2460608301846135fc565b95945050505050565b6000604082019050613a4260008301856135fc565b613a4f6020830184613950565b9392505050565b6000602082019050613a6b600083018461360b565b92915050565b60006020820190508181036000830152613a8a81613629565b9050919050565b60006020820190508181036000830152613aaa81613669565b9050919050565b60006020820190508181036000830152613aca816136a9565b9050919050565b60006020820190508181036000830152613aea816136e9565b9050919050565b60006020820190508181036000830152613b0a81613729565b9050919050565b60006020820190508181036000830152613b2a81613769565b9050919050565b600060c082019050613b4660008301846137a9565b92915050565b600061016082019050613b626000830184613824565b92915050565b6000602082019050613b7d6000830184613932565b92915050565b6000602082019050613b986000830184613950565b92915050565b600082825260208201905092915050565b6000613bba82613c30565b9050919050565b60008115159050919050565b60007fffffffff0000000000000000000000000000000000000000000000000000000082169050919050565b60008160020b9050919050565b60006fffffffffffffffffffffffffffffffff82169050919050565b600061ffff82169050919050565b600073ffffffffffffffffffffffffffffffffffffffff82169050919050565b600062ffffff82169050919050565b6000819050919050565b600060ff82169050919050565b6000613c8182613c88565b9050919050565b6000613c9382613c9a565b9050919050565b6000613ca582613c30565b9050919050565b613cb581613baf565b8114613cc057600080fd5b50565b613ccc81613bc1565b8114613cd757600080fd5b50565b613ce381613bf9565b8114613cee57600080fd5b50565b613cfa81613c06565b8114613d0557600080fd5b50565b613d1181613c22565b8114613d1c57600080fd5b50565b613d2881613c30565b8114613d3357600080fd5b50565b613d3f81613c5f565b8114613d4a57600080fd5b50565b613d5681613c69565b8114613d6157600080fd5b5056fe2d2d2d2d2d2d2d2d2d2d2d2d20626567696e206f6620636f6e7472616374206d6574686f642073656e644d696e67546f46756e6465722829202d2d2d2d2d2d2d2d2d2d2d2d66756e646572735b696e6465784f6646756e64696e675d2e6c656e677468203d202573616d6f756e7420746f20696e637265617365206c69717569646974793a202573202d3e20257362616c616e6365206f662045544820616e64204d494e47202d3e2025732c2025732d2d2d2d2d2d2d2d2d2d2d2d20656e64206f6620636f6e7472616374206d6574686f642073656e644d696e67546f46756e6465722829202d2d2d2d2d2d2d2d2d2d2d2d2d2d2d2d2d2d2d2d2d2d2d2d20656e64206f6620636f6e7472616374206d6574686f64206f6e46756e64696e674f7665722829202d2d2d2d2d2d2d2d2d2d2d2d6e65772062616c616e6365206f662045544820616e64204d494e47202d3e2025732c202573616d6f756e7420746f206d696e74206e657720706f736974696f6e20202d3e2025732c2025732d2d2d2d2d2d2d2d2d2d2d2d20626567696e206f6620636f6e7472616374206d6574686f64206f6e46756e64696e674f7665722829202d2d2d2d2d2d2d2d2d2d2d2da26469706673582212208867b1e3eb2e505393c35e6669634a3f27b284400aa3dbfc729e47eebc3deb2864736f6c63430007060033",
  "linkReferences": {},
  "deployedLinkReferences": {}
}