{
  "_format": "hh-sol-artifact-1",
  "contractName": "MingCoin",
  "sourceName": "contracts/MingCoin.sol",
  "abi": [
    {
      "inputs": [],
      "stateMutability": "nonpayable",
      "type": "constructor"
    },
    {
      "anonymous": false,
      "inputs": [
        {
          "indexed": true,
          "internalType": "address",
          "name": "owner",
          "type": "address"
        },
        {
          "indexed": true,
          "internalType": "address",
          "name": "spender",
          "type": "address"
        },
        {
          "indexed": false,
          "internalType": "uint256",
          "name": "value",
          "type": "uint256"
        }
      ],
      "name": "Approval",
      "type": "event"
    },
    {
      "anonymous": false,
      "inputs": [
        {
          "indexed": true,
          "internalType": "address",
          "name": "from",
          "type": "address"
        },
        {
          "indexed": true,
          "internalType": "address",
          "name": "to",
          "type": "address"
        },
        {
          "indexed": false,
          "internalType": "uint256",
          "name": "value",
          "type": "uint256"
        }
      ],
      "name": "Transfer",
      "type": "event"
    },
    {
      "inputs": [
        {
          "internalType": "address",
          "name": "_addr",
          "type": "address"
        }
      ],
      "name": "addressToKeccak256Hash",
      "outputs": [
        {
          "internalType": "bytes32",
          "name": "",
          "type": "bytes32"
        }
      ],
      "stateMutability": "pure",
      "type": "function"
    },
    {
      "inputs": [
        {
          "internalType": "address",
          "name": "owner",
          "type": "address"
        },
        {
          "internalType": "address",
          "name": "spender",
          "type": "address"
        }
      ],
      "name": "allowance",
      "outputs": [
        {
          "internalType": "uint256",
          "name": "",
          "type": "uint256"
        }
      ],
      "stateMutability": "view",
      "type": "function"
    },
    {
      "inputs": [
        {
          "internalType": "address",
          "name": "spender",
          "type": "address"
        },
        {
          "internalType": "uint256",
          "name": "value",
          "type": "uint256"
        }
      ],
      "name": "approve",
      "outputs": [
        {
          "internalType": "bool",
          "name": "",
          "type": "bool"
        }
      ],
      "stateMutability": "nonpayable",
      "type": "function"
    },
    {
      "inputs": [
        {
          "internalType": "address",
          "name": "account",
          "type": "address"
        }
      ],
      "name": "balanceOf",
      "outputs": [
        {
          "internalType": "uint256",
          "name": "",
          "type": "uint256"
        }
      ],
      "stateMutability": "view",
      "type": "function"
    },
    {
      "inputs": [
        {
          "internalType": "string",
          "name": "recipient",
          "type": "string"
        },
        {
          "internalType": "uint256",
          "name": "amount",
          "type": "uint256"
        }
      ],
      "name": "burn",
      "outputs": [
        {
          "internalType": "address",
          "name": "",
          "type": "address"
        }
      ],
      "stateMutability": "nonpayable",
      "type": "function"
    },
    {
      "inputs": [
        {
          "internalType": "bytes1",
          "name": "b",
          "type": "bytes1"
        }
      ],
      "name": "char",
      "outputs": [
        {
          "internalType": "bytes1",
          "name": "c",
          "type": "bytes1"
        }
      ],
      "stateMutability": "pure",
      "type": "function"
    },
    {
      "inputs": [],
      "name": "decimals",
      "outputs": [
        {
          "internalType": "uint8",
          "name": "",
          "type": "uint8"
        }
      ],
      "stateMutability": "view",
      "type": "function"
    },
    {
      "inputs": [
        {
          "internalType": "string",
          "name": "recipient",
          "type": "string"
        }
      ],
      "name": "getAddressByName",
      "outputs": [
        {
          "internalType": "address",
          "name": "",
          "type": "address"
        }
      ],
      "stateMutability": "view",
      "type": "function"
    },
    {
      "inputs": [
        {
          "internalType": "address",
          "name": "addr",
          "type": "address"
        }
      ],
      "name": "getNameByAddress",
      "outputs": [
        {
          "internalType": "string",
          "name": "",
          "type": "string"
        }
      ],
      "stateMutability": "view",
      "type": "function"
    },
    {
      "inputs": [],
      "name": "getSortedBurnings",
      "outputs": [
        {
          "components": [
            {
              "internalType": "string",
              "name": "name",
              "type": "string"
            },
            {
              "internalType": "address",
              "name": "addressOfDead",
              "type": "address"
            },
            {
              "internalType": "uint256",
              "name": "amount",
              "type": "uint256"
            },
            {
              "internalType": "bool",
              "name": "exists",
              "type": "bool"
            }
          ],
          "internalType": "struct MingCoin.Burning[]",
          "name": "",
          "type": "tuple[]"
        }
      ],
      "stateMutability": "view",
      "type": "function"
    },
    {
      "inputs": [],
      "name": "name",
      "outputs": [
        {
          "internalType": "string",
          "name": "",
          "type": "string"
        }
      ],
      "stateMutability": "view",
      "type": "function"
    },
    {
      "inputs": [
        {
          "internalType": "address",
          "name": "_addr",
          "type": "address"
        }
      ],
      "name": "startsWith44444444",
      "outputs": [
        {
          "internalType": "bool",
          "name": "",
          "type": "bool"
        }
      ],
      "stateMutability": "pure",
      "type": "function"
    },
    {
      "inputs": [],
      "name": "symbol",
      "outputs": [
        {
          "internalType": "string",
          "name": "",
          "type": "string"
        }
      ],
      "stateMutability": "view",
      "type": "function"
    },
    {
      "inputs": [
        {
          "internalType": "address",
          "name": "_addr",
          "type": "address"
        }
      ],
      "name": "toAsciiString",
      "outputs": [
        {
          "internalType": "string",
          "name": "",
          "type": "string"
        }
      ],
      "stateMutability": "pure",
      "type": "function"
    },
    {
      "inputs": [],
      "name": "totalSupply",
      "outputs": [
        {
          "internalType": "uint256",
          "name": "",
          "type": "uint256"
        }
      ],
      "stateMutability": "view",
      "type": "function"
    },
    {
      "inputs": [
        {
          "internalType": "address",
          "name": "recipient",
          "type": "address"
        },
        {
          "internalType": "uint256",
          "name": "amount",
          "type": "uint256"
        }
      ],
      "name": "transfer",
      "outputs": [
        {
          "internalType": "bool",
          "name": "",
          "type": "bool"
        }
      ],
      "stateMutability": "nonpayable",
      "type": "function"
    },
    {
      "inputs": [
        {
          "internalType": "address",
          "name": "from",
          "type": "address"
        },
        {
          "internalType": "address",
          "name": "to",
          "type": "address"
        },
        {
          "internalType": "uint256",
          "name": "value",
          "type": "uint256"
        }
      ],
      "name": "transferFrom",
      "outputs": [
        {
          "internalType": "bool",
          "name": "",
          "type": "bool"
        }
      ],
      "stateMutability": "nonpayable",
      "type": "function"
    }
  ],
  "bytecode": "0x60806040523480156200001157600080fd5b506040518060400160405280600981526020017f4d696e6720436f696e00000000000000000000000000000000000000000000008152506040518060400160405280600481526020017f4d494e4700000000000000000000000000000000000000000000000000000000815250816003908051906020019062000096929190620003e4565b508060049080519060200190620000af929190620003e4565b505050620000d2336d15e9ad73cd24f69cbad10af00000620000d860201b60201c565b6200049a565b600073ffffffffffffffffffffffffffffffffffffffff168273ffffffffffffffffffffffffffffffffffffffff1614156200017c576040517f08c379a000000000000000000000000000000000000000000000000000000000815260040180806020018281038252601f8152602001807f45524332303a206d696e7420746f20746865207a65726f20616464726573730081525060200191505060405180910390fd5b62000190600083836200019460201b60201c565b5050565b600073ffffffffffffffffffffffffffffffffffffffff168373ffffffffffffffffffffffffffffffffffffffff161415620001e05780600260008282540192505081905550620002e1565b60008060008573ffffffffffffffffffffffffffffffffffffffff1673ffffffffffffffffffffffffffffffffffffffff168152602001908152602001600020549050818110156200029a576040517f08c379a00000000000000000000000000000000000000000000000000000000081526004018080602001828103825260148152602001807f696e73756666696369656e742062616c616e636500000000000000000000000081525060200191505060405180910390fd5b8181036000808673ffffffffffffffffffffffffffffffffffffffff1673ffffffffffffffffffffffffffffffffffffffff16815260200190815260200160002081905550505b600073ffffffffffffffffffffffffffffffffffffffff168273ffffffffffffffffffffffffffffffffffffffff1614156200032d57806002600082825403925050819055506200037a565b806000808473ffffffffffffffffffffffffffffffffffffffff1673ffffffffffffffffffffffffffffffffffffffff168152602001908152602001600020600082825401925050819055505b8173ffffffffffffffffffffffffffffffffffffffff168373ffffffffffffffffffffffffffffffffffffffff167fddf252ad1be2c89b69c2b068fc378daa952ba7f163c4a11628f55a4df523b3ef836040518082815260200191505060405180910390a3505050565b828054600181600116156101000203166002900490600052602060002090601f0160209004810192826200041c576000855562000468565b82601f106200043757805160ff191683800117855562000468565b8280016001018555821562000468579182015b82811115620004675782518255916020019190600101906200044a565b5b5090506200047791906200047b565b5090565b5b80821115620004965760008160009055506001016200047c565b5090565b61255480620004aa6000396000f3fe608060405234801561001057600080fd5b506004361061010b5760003560e01c806369f9ad2f116100a257806395d89b411161007157806395d89b41146103085780639a65ddec14610326578063a9059cbb14610356578063b48272cc14610386578063dd62ed3e146103b65761010b565b806369f9ad2f1461024857806370a08231146102785780637c80bb4f146102a857806395c7cf8d146102d85761010b565b80632c6e7598116100de5780632c6e7598146101ac578063313ce567146101dc578063642591b6146101fa57806368f3097a146102185761010b565b806306fdde0314610110578063095ea7b31461012e57806318160ddd1461015e57806323b872dd1461017c575b600080fd5b6101186103e6565b60405161012591906121c9565b60405180910390f35b61014860048036038101906101439190611cc9565b610488565b6040516101559190612178565b60405180910390f35b6101666104ab565b60405161017391906121eb565b60405180910390f35b61019660048036038101906101919190611c7a565b6104b5565b6040516101a39190612178565b60405180910390f35b6101c660048036038101906101c19190611c15565b6104e4565b6040516101d391906121c9565b60405180910390f35b6101e4610787565b6040516101f19190612206565b60405180910390f35b610202610790565b60405161020f9190612156565b60405180910390f35b610232600480360381019061022d9190611c15565b61098e565b60405161023f9190612178565b60405180910390f35b610262600480360381019061025d9190611d05565b610a7f565b60405161026f9190612193565b60405180910390f35b610292600480360381019061028d9190611c15565b610ab3565b60405161029f91906121eb565b60405180910390f35b6102c260048036038101906102bd9190611c15565b610afb565b6040516102cf91906121c9565b60405180910390f35b6102f260048036038101906102ed9190611c15565b610bdc565b6040516102ff91906121ae565b60405180910390f35b610310610c14565b60405161031d91906121c9565b60405180910390f35b610340600480360381019061033b9190611d2e565b610cb6565b60405161034d919061213b565b60405180910390f35b610370600480360381019061036b9190611cc9565b610d04565b60405161037d9190612178565b60405180910390f35b6103a0600480360381019061039b9190611d73565b610d3c565b6040516103ad919061213b565b60405180910390f35b6103d060048036038101906103cb9190611c3e565b610f2a565b6040516103dd91906121eb565b60405180910390f35b606060038054600181600116156101000203166002900480601f01602080910402602001604051908101604052809291908181526020018280546001816001161561010002031660029004801561047e5780601f106104535761010080835404028352916020019161047e565b820191906000526020600020905b81548152906001019060200180831161046157829003601f168201915b5050505050905090565b600080610493610fb1565b90506104a0818585610fb9565b600191505092915050565b6000600254905090565b6000806104c0610fb1565b90506104cd858285610fcb565b6104d8858585611095565b60019150509392505050565b60606000826040516020016104f991906120be565b604051602081830303815290604052905060006040518060400160405280601081526020017f303132333435363738396162636465660000000000000000000000000000000081525090506000602a67ffffffffffffffff8111801561055e57600080fd5b506040519080825280601f01601f1916602001820160405280156105915781602001600182028036833780820191505090505b5090507f3000000000000000000000000000000000000000000000000000000000000000816000815181106105c257fe5b60200101907effffffffffffffffffffffffffffffffffffffffffffffffffffffffffffff1916908160001a9053507f78000000000000000000000000000000000000000000000000000000000000008160018151811061061f57fe5b60200101907effffffffffffffffffffffffffffffffffffffffffffffffffffffffffffff1916908160001a90535060005b601481101561077b5782600485838151811061066957fe5b602001015160f81c60f81b7effffffffffffffffffffffffffffffffffffffffffffffffffffffffffffff1916901c60f81c60ff16815181106106a857fe5b602001015160f81c60f81b8260028302600201815181106106c557fe5b60200101907effffffffffffffffffffffffffffffffffffffffffffffffffffffffffffff1916908160001a90535082600f60f81b85838151811061070657fe5b602001015160f81c60f81b1660f81c60ff168151811061072257fe5b602001015160f81c60f81b82600283026003018151811061073f57fe5b60200101907effffffffffffffffffffffffffffffffffffffffffffffffffffffffffffff1916908160001a9053508080600101915050610651565b50809350505050919050565b60006012905090565b6060600060058054905067ffffffffffffffff811180156107b057600080fd5b506040519080825280602002602001820160405280156107ea57816020015b6107d7611a37565b8152602001906001900390816107cf5790505b50905060005b60058054905081101561097d5760066005828154811061080c57fe5b906000526020600020016040516108239190612124565b9081526020016040518091039020604051806080016040529081600082018054600181600116156101000203166002900480601f0160208091040260200160405190810160405280929190818152602001828054600181600116156101000203166002900480156108d55780601f106108aa576101008083540402835291602001916108d5565b820191906000526020600020905b8154815290600101906020018083116108b857829003601f168201915b505050505081526020016001820160009054906101000a900473ffffffffffffffffffffffffffffffffffffffff1673ffffffffffffffffffffffffffffffffffffffff1673ffffffffffffffffffffffffffffffffffffffff168152602001600282015481526020016003820160009054906101000a900460ff16151515158152505082828151811061096557fe5b602002602001018190525080806001019150506107f0565b50610987816111b1565b8091505090565b60008061099a836104e4565b905060006040518060400160405280600a81526020017f3078343434343434343400000000000000000000000000000000000000000000815250905060005b6008811015610a72578181815181106109ee57fe5b602001015160f81c60f81b7effffffffffffffffffffffffffffffffffffffffffffffffffffffffffffff1916838281518110610a2757fe5b602001015160f81c60f81b7effffffffffffffffffffffffffffffffffffffffffffffffffffffffffffff191614610a655760009350505050610a7a565b80806001019150506109d9565b506001925050505b919050565b6000600a8260f81c60ff161015610aa15760308260f81c0160f81b9050610aae565b60578260f81c0160f81b90505b919050565b60008060008373ffffffffffffffffffffffffffffffffffffffff1673ffffffffffffffffffffffffffffffffffffffff168152602001908152602001600020549050919050565b6060600760008373ffffffffffffffffffffffffffffffffffffffff1673ffffffffffffffffffffffffffffffffffffffff1681526020019081526020016000208054600181600116156101000203166002900480601f016020809104026020016040519081016040528092919081815260200182805460018160011615610100020316600290048015610bd05780601f10610ba557610100808354040283529160200191610bd0565b820191906000526020600020905b815481529060010190602001808311610bb357829003601f168201915b50505050509050919050565b6000610be7826104e4565b604051602001610bf7919061210d565b604051602081830303815290604052805190602001209050919050565b606060048054600181600116156101000203166002900480601f016020809104026020016040519081016040528092919081815260200182805460018160011615610100020316600290048015610cac5780601f10610c8157610100808354040283529160200191610cac565b820191906000526020600020905b815481529060010190602001808311610c8f57829003601f168201915b5050505050905090565b600060068383604051610cca9291906120f4565b908152602001604051809103902060010160009054906101000a900473ffffffffffffffffffffffffffffffffffffffff16905092915050565b6000610d2a6040518060600160405280602881526020016124ae6028913983338661128e565b610d3483836113d3565b905092915050565b600080610d48846113f6565b9050610d548184610d04565b5060001515600685604051610d69919061210d565b908152602001604051809103902060030160009054906101000a900460ff1615151415610e9d576001600685604051610da2919061210d565b908152602001604051809103902060030160006101000a81548160ff02191690831515021790555080600685604051610ddb919061210d565b908152602001604051809103902060010160006101000a81548173ffffffffffffffffffffffffffffffffffffffff021916908373ffffffffffffffffffffffffffffffffffffffff16021790555083600685604051610e3b919061210d565b90815260200160405180910390206000019080519060200190610e5f929190611a77565b50600584908060018154018082558091505060019003906000526020600020016000909190919091509080519060200190610e9b929190611a77565b505b82600685604051610eae919061210d565b90815260200160405180910390206002016000828254019250508190555083600760008373ffffffffffffffffffffffffffffffffffffffff1673ffffffffffffffffffffffffffffffffffffffff1681526020019081526020016000209080519060200190610f1f929190611a77565b508091505092915050565b6000600160008473ffffffffffffffffffffffffffffffffffffffff1673ffffffffffffffffffffffffffffffffffffffff16815260200190815260200160002060008373ffffffffffffffffffffffffffffffffffffffff1673ffffffffffffffffffffffffffffffffffffffff16815260200190815260200160002054905092915050565b600033905090565b610fc68383836001611599565b505050565b6000610fd78484610f2a565b90507fffffffffffffffffffffffffffffffffffffffffffffffffffffffffffffffff811461108f578181101561107f578181101561107e576040517f08c379a000000000000000000000000000000000000000000000000000000000815260040180806020018281038252601a8152602001807f4552433230496e73756666696369656e74416c6c6f77616e636500000000000081525060200191505060405180910390fd5b5b61108e84848484036000611599565b5b50505050565b600073ffffffffffffffffffffffffffffffffffffffff168373ffffffffffffffffffffffffffffffffffffffff16141561111b576040517f08c379a00000000000000000000000000000000000000000000000000000000081526004018080602001828103825260258152602001806124d66025913960400191505060405180910390fd5b600073ffffffffffffffffffffffffffffffffffffffff168273ffffffffffffffffffffffffffffffffffffffff1614156111a1576040517f08c379a00000000000000000000000000000000000000000000000000000000081526004018080602001828103825260238152602001806124696023913960400191505060405180910390fd5b6111ac838383611798565b505050565b60008151905060005b818110156112895760005b60018284030381101561127b578360018201815181106111e157fe5b6020026020010151604001518482815181106111f957fe5b602002602001015160400151101561126e57600084828151811061121957fe5b6020026020010151905084600183018151811061123257fe5b602002602001015185838151811061124657fe5b60200260200101819052508085600184018151811061126157fe5b6020026020010181905250505b80806001019150506111c5565b5080806001019150506111ba565b505050565b6113cd8484848460405160240180806020018581526020018473ffffffffffffffffffffffffffffffffffffffff1681526020018373ffffffffffffffffffffffffffffffffffffffff168152602001828103825286818151815260200191508051906020019080838360005b838110156113165780820151818401526020810190506112fb565b50505050905090810190601f1680156113435780820380516001836020036101000a031916815260200191505b50955050505050506040516020818303038152906040527f5ea2b7ae000000000000000000000000000000000000000000000000000000007bffffffffffffffffffffffffffffffffffffffffffffffffffffffff19166020820180517bffffffffffffffffffffffffffffffffffffffffffffffffffffffff83818316178352505050506119e3565b50505050565b6000806113de610fb1565b90506113eb818585611095565b600191505092915050565b6000808260405160200161140a919061210d565b60405160208183030381529060405280519060200120905060008160405160200161143591906120d9565b60405160208183030381529060405290506000601467ffffffffffffffff8111801561146057600080fd5b506040519080825280601f01601f1916602001820160405280156114935781602001600182028036833780820191505090505b5090506000805b6004811015611512577f44000000000000000000000000000000000000000000000000000000000000008383806001019450815181106114d657fe5b60200101907effffffffffffffffffffffffffffffffffffffffffffffffffffffffffffff1916908160001a905350808060010191505061149a565b5060005b60148210156115845783818151811061152b57fe5b602001015160f81c60f81b83838060010194508151811061154857fe5b60200101907effffffffffffffffffffffffffffffffffffffffffffffffffffffffffffff1916908160001a9053508080600101915050611516565b5061158e826119fd565b945050505050919050565b600073ffffffffffffffffffffffffffffffffffffffff168473ffffffffffffffffffffffffffffffffffffffff16141561161f576040517f08c379a00000000000000000000000000000000000000000000000000000000081526004018080602001828103825260248152602001806124fb6024913960400191505060405180910390fd5b600073ffffffffffffffffffffffffffffffffffffffff168373ffffffffffffffffffffffffffffffffffffffff1614156116a5576040517f08c379a000000000000000000000000000000000000000000000000000000000815260040180806020018281038252602281526020018061248c6022913960400191505060405180910390fd5b81600160008673ffffffffffffffffffffffffffffffffffffffff1673ffffffffffffffffffffffffffffffffffffffff16815260200190815260200160002060008573ffffffffffffffffffffffffffffffffffffffff1673ffffffffffffffffffffffffffffffffffffffff168152602001908152602001600020819055508015611792578273ffffffffffffffffffffffffffffffffffffffff168473ffffffffffffffffffffffffffffffffffffffff167f8c5be1e5ebec7d5bd14f71427d1e84f3dd0314c0f7b2291e5b200ac8c7c3b925846040518082815260200191505060405180910390a35b50505050565b600073ffffffffffffffffffffffffffffffffffffffff168373ffffffffffffffffffffffffffffffffffffffff1614156117e257806002600082825401925050819055506118e2565b60008060008573ffffffffffffffffffffffffffffffffffffffff1673ffffffffffffffffffffffffffffffffffffffff1681526020019081526020016000205490508181101561189b576040517f08c379a00000000000000000000000000000000000000000000000000000000081526004018080602001828103825260148152602001807f696e73756666696369656e742062616c616e636500000000000000000000000081525060200191505060405180910390fd5b8181036000808673ffffffffffffffffffffffffffffffffffffffff1673ffffffffffffffffffffffffffffffffffffffff16815260200190815260200160002081905550505b600073ffffffffffffffffffffffffffffffffffffffff168273ffffffffffffffffffffffffffffffffffffffff16141561192c5780600260008282540392505081905550611979565b806000808473ffffffffffffffffffffffffffffffffffffffff1673ffffffffffffffffffffffffffffffffffffffff168152602001908152602001600020600082825401925050819055505b8173ffffffffffffffffffffffffffffffffffffffff168373ffffffffffffffffffffffffffffffffffffffff167fddf252ad1be2c89b69c2b068fc378daa952ba7f163c4a11628f55a4df523b3ef836040518082815260200191505060405180910390a3505050565b6119fa816119f2611a0b611a2c565b63ffffffff16565b50565b600060148201519050919050565b60006a636f6e736f6c652e6c6f679050600080835160208501845afa505050565b611b05819050919050565b604051806080016040528060608152602001600073ffffffffffffffffffffffffffffffffffffffff168152602001600081526020016000151581525090565b828054600181600116156101000203166002900490600052602060002090601f016020900481019282611aad5760008555611af4565b82601f10611ac657805160ff1916838001178555611af4565b82800160010185558215611af4579182015b82811115611af3578251825591602001919060010190611ad8565b5b509050611b019190611b07565b5090565bfe5b5b80821115611b20576000816000905550600101611b08565b5090565b6000611b37611b3284612252565b612221565b905082815260208101848484011115611b4f57600080fd5b611b5a848285612393565b509392505050565b600081359050611b7181612423565b92915050565b600081359050611b868161243a565b92915050565b60008083601f840112611b9e57600080fd5b8235905067ffffffffffffffff811115611bb757600080fd5b602083019150836001820283011115611bcf57600080fd5b9250929050565b600082601f830112611be757600080fd5b8135611bf7848260208601611b24565b91505092915050565b600081359050611c0f81612451565b92915050565b600060208284031215611c2757600080fd5b6000611c3584828501611b62565b91505092915050565b60008060408385031215611c5157600080fd5b6000611c5f85828601611b62565b9250506020611c7085828601611b62565b9150509250929050565b600080600060608486031215611c8f57600080fd5b6000611c9d86828701611b62565b9350506020611cae86828701611b62565b9250506040611cbf86828701611c00565b9150509250925092565b60008060408385031215611cdc57600080fd5b6000611cea85828601611b62565b9250506020611cfb85828601611c00565b9150509250929050565b600060208284031215611d1757600080fd5b6000611d2584828501611b77565b91505092915050565b60008060208385031215611d4157600080fd5b600083013567ffffffffffffffff811115611d5b57600080fd5b611d6785828601611b8c565b92509250509250929050565b60008060408385031215611d8657600080fd5b600083013567ffffffffffffffff811115611da057600080fd5b611dac85828601611bd6565b9250506020611dbd85828601611c00565b9150509250929050565b6000611dd3838361202e565b905092915050565b611de481612308565b82525050565b611df381612308565b82525050565b611e0a611e0582612308565b6123d5565b82525050565b6000611e1b826122a7565b611e2581856122ca565b935083602082028501611e3785612282565b8060005b85811015611e735784840389528151611e548582611dc7565b9450611e5f836122bd565b925060208a01995050600181019050611e3b565b50829750879550505050505092915050565b611e8e8161231a565b82525050565b611e9d8161231a565b82525050565b611eac81612326565b82525050565b611ebb81612352565b82525050565b611ed2611ecd82612352565b6123e7565b82525050565b6000611ee483856122fd565b9350611ef1838584612393565b82840190509392505050565b6000611f08826122b2565b611f1281856122db565b9350611f228185602086016123a2565b611f2b81612405565b840191505092915050565b6000611f41826122b2565b611f4b81856122ec565b9350611f5b8185602086016123a2565b611f6481612405565b840191505092915050565b6000611f7a826122b2565b611f8481856122fd565b9350611f948185602086016123a2565b80840191505092915050565b600081546001811660008114611fbd5760018114611fe257612026565b607f6002830416611fce81876122fd565b955060ff1983168652808601935050612026565b60028204611ff081876122fd565b9550611ffb85612292565b60005b8281101561201d57815481890152600182019150602081019050611ffe565b82880195505050505b505092915050565b6000608083016000830151848203600086015261204b8282611efd565b91505060208301516120606020860182611ddb565b5060408301516120736040860182612091565b5060608301516120866060860182611e85565b508091505092915050565b61209a8161237c565b82525050565b6120a98161237c565b82525050565b6120b881612386565b82525050565b60006120ca8284611df9565b60148201915081905092915050565b60006120e58284611ec1565b60208201915081905092915050565b6000612101828486611ed8565b91508190509392505050565b60006121198284611f6f565b915081905092915050565b60006121308284611fa0565b915081905092915050565b60006020820190506121506000830184611dea565b92915050565b600060208201905081810360008301526121708184611e10565b905092915050565b600060208201905061218d6000830184611e94565b92915050565b60006020820190506121a86000830184611ea3565b92915050565b60006020820190506121c36000830184611eb2565b92915050565b600060208201905081810360008301526121e38184611f36565b905092915050565b600060208201905061220060008301846120a0565b92915050565b600060208201905061221b60008301846120af565b92915050565b6000604051905081810181811067ffffffffffffffff8211171561224857612247612403565b5b8060405250919050565b600067ffffffffffffffff82111561226d5761226c612403565b5b601f19601f8301169050602081019050919050565b6000819050602082019050919050565b60008190508160005260206000209050919050565b600081519050919050565b600081519050919050565b6000602082019050919050565b600082825260208201905092915050565b600082825260208201905092915050565b600082825260208201905092915050565b600081905092915050565b60006123138261235c565b9050919050565b60008115159050919050565b60007fff0000000000000000000000000000000000000000000000000000000000000082169050919050565b6000819050919050565b600073ffffffffffffffffffffffffffffffffffffffff82169050919050565b6000819050919050565b600060ff82169050919050565b82818337600083830152505050565b60005b838110156123c05780820151818401526020810190506123a5565b838111156123cf576000848401525b50505050565b60006123e0826123f1565b9050919050565b6000819050919050565b60006123fc82612416565b9050919050565bfe5b6000601f19601f8301169050919050565b60008160601b9050919050565b61242c81612308565b811461243757600080fd5b50565b61244381612326565b811461244e57600080fd5b50565b61245a8161237c565b811461246557600080fd5b5056fe45524332303a207472616e7366657220746f20746865207a65726f206164647265737345524332303a20617070726f766520746f20746865207a65726f206164647265737363616c6c696e67204d696e672e7472616e73666572282573292c2066726f6d20257320746f20257345524332303a207472616e736665722066726f6d20746865207a65726f206164647265737345524332303a20617070726f76652066726f6d20746865207a65726f2061646472657373a26469706673582212209556e2977934420073dde34e0bb63332d5c2e1c1a649a3fee1727456457ea11c64736f6c63430007060033",
  "linkReferences": {},
  "deployedLinkReferences": {}
}