{
  "_format": "hh-sol-artifact-1",
  "contractName": "Funding",
  "sourceName": "contracts/Funding.sol",
  "abi": [
    {
      "inputs": [
        {
          "internalType": "address",
          "name": "_addressOfMing",
          "type": "address"
        },
        {
          "internalType": "uint256",
          "name": "_endTime",
          "type": "uint256"
        }
      ],
      "stateMutability": "nonpayable",
      "type": "constructor"
    },
    {
      "anonymous": false,
      "inputs": [
        {
          "indexed": false,
          "internalType": "string",
          "name": "message",
          "type": "string"
        }
      ],
      "name": "LogData",
      "type": "event"
    },
    {
      "inputs": [],
      "name": "balance",
      "outputs": [
        {
          "internalType": "uint256",
          "name": "",
          "type": "uint256"
        }
      ],
      "stateMutability": "view",
      "type": "function"
    },
    {
      "inputs": [
        {
          "internalType": "string",
          "name": "str1",
          "type": "string"
        },
        {
          "internalType": "string",
          "name": "str2",
          "type": "string"
        }
      ],
      "name": "concatString",
      "outputs": [
        {
          "internalType": "string",
          "name": "",
          "type": "string"
        }
      ],
      "stateMutability": "pure",
      "type": "function"
    },
    {
      "inputs": [
        {
          "internalType": "string",
          "name": "str",
          "type": "string"
        },
        {
          "internalType": "uint256",
          "name": "num",
          "type": "uint256"
        }
      ],
      "name": "concatStringWithUint",
      "outputs": [
        {
          "internalType": "string",
          "name": "",
          "type": "string"
        }
      ],
      "stateMutability": "pure",
      "type": "function"
    },
    {
      "inputs": [
        {
          "internalType": "uint256",
          "name": "",
          "type": "uint256"
        }
      ],
      "name": "deposits",
      "outputs": [
        {
          "internalType": "address",
          "name": "owner",
          "type": "address"
        },
        {
          "internalType": "uint128",
          "name": "liquidity",
          "type": "uint128"
        },
        {
          "internalType": "address",
          "name": "token0",
          "type": "address"
        },
        {
          "internalType": "address",
          "name": "token1",
          "type": "address"
        }
      ],
      "stateMutability": "view",
      "type": "function"
    },
    {
      "inputs": [],
      "name": "fund",
      "outputs": [],
      "stateMutability": "payable",
      "type": "function"
    },
    {
      "inputs": [],
      "name": "fund4TestOnly",
      "outputs": [],
      "stateMutability": "payable",
      "type": "function"
    },
    {
      "inputs": [
        {
          "internalType": "address",
          "name": "addr",
          "type": "address"
        }
      ],
      "name": "getAmountFunded",
      "outputs": [
        {
          "internalType": "uint256",
          "name": "",
          "type": "uint256"
        }
      ],
      "stateMutability": "view",
      "type": "function"
    },
    {
      "inputs": [
        {
          "internalType": "address",
          "name": "addr",
          "type": "address"
        }
      ],
      "name": "getCurrentAmountFunded",
      "outputs": [
        {
          "internalType": "uint256",
          "name": "",
          "type": "uint256"
        }
      ],
      "stateMutability": "view",
      "type": "function"
    },
    {
      "inputs": [],
      "name": "i_owner",
      "outputs": [
        {
          "internalType": "address",
          "name": "",
          "type": "address"
        }
      ],
      "stateMutability": "view",
      "type": "function"
    },
    {
      "inputs": [
        {
          "internalType": "string",
          "name": "message",
          "type": "string"
        }
      ],
      "name": "log",
      "outputs": [],
      "stateMutability": "nonpayable",
      "type": "function"
    },
    {
      "inputs": [
        {
          "internalType": "address",
          "name": "operator",
          "type": "address"
        },
        {
          "internalType": "address",
          "name": "",
          "type": "address"
        },
        {
          "internalType": "uint256",
          "name": "tokenId",
          "type": "uint256"
        },
        {
          "internalType": "bytes",
          "name": "",
          "type": "bytes"
        }
      ],
      "name": "onERC721Received",
      "outputs": [
        {
          "internalType": "bytes4",
          "name": "",
          "type": "bytes4"
        }
      ],
      "stateMutability": "nonpayable",
      "type": "function"
    },
    {
      "inputs": [],
      "name": "onFundingOver",
      "outputs": [],
      "stateMutability": "nonpayable",
      "type": "function"
    },
    {
      "inputs": [],
      "name": "poolFee",
      "outputs": [
        {
          "internalType": "uint24",
          "name": "",
          "type": "uint24"
        }
      ],
      "stateMutability": "view",
      "type": "function"
    }
  ],
  "bytecode": "0x608060405260006004556000600560006101000a81548160ff02191690831515021790555073c36442b4a4522e871399cd717abdd847ab11fe88600560016101000a81548173ffffffffffffffffffffffffffffffffffffffff021916908373ffffffffffffffffffffffffffffffffffffffff160217905550731f98431c8ad98523631ae4a59f267346ea31f984600660006101000a81548173ffffffffffffffffffffffffffffffffffffffff021916908373ffffffffffffffffffffffffffffffffffffffff1602179055506002600c60006101000a81548162ffffff021916908360020b62ffffff1602179055506305f5e100600d553480156200010657600080fd5b5060405162004f7238038062004f7283398181016040528101906200012c919062000240565b81600360006101000a81548173ffffffffffffffffffffffffffffffffffffffff021916908373ffffffffffffffffffffffffffffffffffffffff16021790555033600960006101000a81548173ffffffffffffffffffffffffffffffffffffffff021916908373ffffffffffffffffffffffffffffffffffffffff16021790555073c02aaa39b223fe8d0a0e5c4f27ead9083c756cc2600860006101000a81548173ffffffffffffffffffffffffffffffffffffffff021916908373ffffffffffffffffffffffffffffffffffffffff16021790555080600a819055505050620002f3565b6000815190506200022381620002bf565b92915050565b6000815190506200023a81620002d9565b92915050565b600080604083850312156200025457600080fd5b6000620002648582860162000212565b9250506020620002778582860162000229565b9150509250929050565b60006200028e8262000295565b9050919050565b600073ffffffffffffffffffffffffffffffffffffffff82169050919050565b6000819050919050565b620002ca8162000281565b8114620002d657600080fd5b50565b620002e481620002b5565b8114620002f057600080fd5b50565b614c6f80620003036000396000f3fe6080604052600436106100c25760003560e01c8063a48b45551161007f578063b60d428811610059578063b60d428814610270578063b69ef8a81461027a578063d583f402146102a5578063dba6335f146102e2576100c2565b8063a48b4555146101b6578063ac5065d2146101f3578063b02c43d014610230576100c2565b8063089fe6aa146100c7578063150b7a02146100f257806341304fac1461012f5780635bb96f1f146101585780635ee06bec146101955780636dbcf2521461019f575b600080fd5b3480156100d357600080fd5b506100dc61030d565b6040516100e991906147cb565b60405180910390f35b3480156100fe57600080fd5b5061011960048036038101906101149190613dc2565b610313565b6040516101269190614697565b60405180910390f35b34801561013b57600080fd5b5061015660048036038101906101519190613e94565b610328565b005b34801561016457600080fd5b5061017f600480360381019061017a9190613ed5565b610362565b60405161018c91906146b2565b60405180910390f35b61019d61038e565b005b3480156101ab57600080fd5b506101b4610b51565b005b3480156101c257600080fd5b506101dd60048036038101906101d89190613d70565b610ed4565b6040516101ea91906147e6565b60405180910390f35b3480156101ff57600080fd5b5061021a60048036038101906102159190613f41565b610f20565b60405161022791906146b2565b60405180910390f35b34801561023c57600080fd5b5061025760048036038101906102529190614082565b610f4c565b6040516102679493929190614629565b60405180910390f35b610278610ff8565b005b34801561028657600080fd5b5061028f611632565b60405161029c91906147e6565b60405180910390f35b3480156102b157600080fd5b506102cc60048036038101906102c79190613d70565b61163a565b6040516102d991906147e6565b60405180910390f35b3480156102ee57600080fd5b506102f7611686565b6040516103049190614585565b60405180910390f35b610bb881565b600063150b7a0260e01b905095945050505050565b7f4609e0ccf047a9139d8e498ab3b5fe10aae422e66592ab6db3d4e8c87cf516ff8160405161035791906146b2565b60405180910390a150565b60608282604051602001610377929190614539565b604051602081830303815290604052905092915050565b6103cc6040518060400160405280600e81526020017f63616c6c696e672066756e642829000000000000000000000000000000000000815250610328565b600034905060008111610414576040517f08c379a000000000000000000000000000000000000000000000000000000000815260040161040b906146f4565b60405180910390fd5b61045b6104566040518060400160405280600d81526020017f4554482062616c616e63653a200000000000000000000000000000000000000081525083610f20565b610328565b600a54421061049f576040517f08c379a000000000000000000000000000000000000000000000000000000000815260040161049690614774565b60405180910390fd5b6000600860009054906101000a900473ffffffffffffffffffffffffffffffffffffffff1673ffffffffffffffffffffffffffffffffffffffff166370a08231306040518263ffffffff1660e01b81526004016104fc9190614585565b60206040518083038186803b15801561051457600080fd5b505afa158015610528573d6000803e3d6000fd5b505050506040513d601f19601f8201168201806040525081019061054c91906140ab565b90506000821461068a57600860009054906101000a900473ffffffffffffffffffffffffffffffffffffffff1673ffffffffffffffffffffffffffffffffffffffff1663d0e30db0836040518263ffffffff1660e01b81526004016000604051808303818588803b1580156105c057600080fd5b505af11580156105d4573d6000803e3d6000fd5b5050505050600860009054906101000a900473ffffffffffffffffffffffffffffffffffffffff1673ffffffffffffffffffffffffffffffffffffffff1663a9059cbb30846040518363ffffffff1660e01b815260040161063692919061466e565b602060405180830381600087803b15801561065057600080fd5b505af1158015610664573d6000803e3d6000fd5b505050506040513d601f19601f820116820180604052508101906106889190613e42565b505b6000600860009054906101000a900473ffffffffffffffffffffffffffffffffffffffff1673ffffffffffffffffffffffffffffffffffffffff166370a08231306040518263ffffffff1660e01b81526004016106e79190614585565b60206040518083038186803b1580156106ff57600080fd5b505afa158015610713573d6000803e3d6000fd5b505050506040513d601f19601f8201168201806040525081019061073791906140ab565b905061078061077b6040518060400160405280601581526020017f62616c616e6365206f662057455448206e6f773a20000000000000000000000081525083610f20565b610328565b82828203146107c4576040517f08c379a00000000000000000000000000000000000000000000000000000000081526004016107bb90614734565b60405180910390fd5b600160003373ffffffffffffffffffffffffffffffffffffffff1673ffffffffffffffffffffffffffffffffffffffff16815260200190815260200160002060010160009054906101000a900460ff1661091a576002339080600181540180825580915050600190039060005260206000200160009091909190916101000a81548173ffffffffffffffffffffffffffffffffffffffff021916908373ffffffffffffffffffffffffffffffffffffffff16021790555060018060003373ffffffffffffffffffffffffffffffffffffffff1673ffffffffffffffffffffffffffffffffffffffff16815260200190815260200160002060010160006101000a81548160ff0219169083151502179055506109196040518060400160405280601381526020017f66756e646572732e6c656e677468203d202573000000000000000000000000008152506002805490506116ac565b5b34600160003373ffffffffffffffffffffffffffffffffffffffff1673ffffffffffffffffffffffffffffffffffffffff1681526020019081526020016000206000016000828254019250508190555034600b600082825401925050819055506109c36109be6040518060400160405280600c81526020017f66756e645261697365643a200000000000000000000000000000000000000000815250600b54610f20565b610328565b6000600360009054906101000a900473ffffffffffffffffffffffffffffffffffffffff1690508073ffffffffffffffffffffffffffffffffffffffff1663a9059cbb336305f5e10034026040518363ffffffff1660e01b8152600401610a2b9291906145bb565b602060405180830381600087803b158015610a4557600080fd5b505af1158015610a59573d6000803e3d6000fd5b505050506040513d601f19601f82011682018060405250810190610a7d9190613e42565b5060008173ffffffffffffffffffffffffffffffffffffffff166370a08231336040518263ffffffff1660e01b8152600401610ab991906145a0565b60206040518083038186803b158015610ad157600080fd5b505afa158015610ae5573d6000803e3d6000fd5b505050506040513d601f19601f82011682018060405250810190610b0991906140ab565b9050610b4a6040518060400160405280601481526020017f62616c616e6365206f66206d696e67203d202573000000000000000000000000815250826116ac565b5050505050565b600960009054906101000a900473ffffffffffffffffffffffffffffffffffffffff1673ffffffffffffffffffffffffffffffffffffffff163373ffffffffffffffffffffffffffffffffffffffff1614610be1576040517f08c379a0000000000000000000000000000000000000000000000000000000008152600401610bd890614754565b60405180910390fd5b600560009054906101000a900460ff1615610c31576040517f08c379a0000000000000000000000000000000000000000000000000000000008152600401610c28906146d4565b60405180910390fd5b6001600560006101000a81548160ff021916908315150217905550610c6d604051806080016040528060428152602001614bf8604291396117b3565b610cae6040518060400160405280600e81526020017f66756e645261697365643a202573000000000000000000000000000000000000815250600b546116ac565b6000600360009054906101000a900473ffffffffffffffffffffffffffffffffffffffff16905060008173ffffffffffffffffffffffffffffffffffffffff166318160ddd6040518163ffffffff1660e01b815260040160206040518083038186803b158015610d1d57600080fd5b505afa158015610d31573d6000803e3d6000fd5b505050506040513d601f19601f82011682018060405250810190610d5591906140ab565b9050600060646032830281610d6657fe5b049050610da86040518060400160405280601e81526020017f616d6f756e74206f66204d494e4720746f2020756e69737761703a2025730000815250826116ac565b6000600b541415610e9857610df16040518060400160405280601c81526020017f7a65726f207261697365642c206275726e20616c6c20746f6b656e73000000008152506117b3565b8273ffffffffffffffffffffffffffffffffffffffff1663a9059cbb734444444444444444444444444444444444444444836040518363ffffffff1660e01b8152600401610e409291906145bb565b602060405180830381600087803b158015610e5a57600080fd5b505af1158015610e6e573d6000803e3d6000fd5b505050506040513d601f19601f82011682018060405250810190610e929190613e42565b50610eae565b610ea1816118b1565b610ead600b5482611cba565b5b610ecf604051806060016040528060408152602001614b6d604091396117b3565b505050565b6000600160008373ffffffffffffffffffffffffffffffffffffffff1673ffffffffffffffffffffffffffffffffffffffff168152602001908152602001600020600001549050919050565b60608282604051602001610f3592919061455d565b604051602081830303815290604052905092915050565b60006020528060005260406000206000915090508060000160009054906101000a900473ffffffffffffffffffffffffffffffffffffffff16908060010160009054906101000a90046fffffffffffffffffffffffffffffffff16908060020160009054906101000a900473ffffffffffffffffffffffffffffffffffffffff16908060030160009054906101000a900473ffffffffffffffffffffffffffffffffffffffff16905084565b6110366040518060400160405280600e81526020017f63616c6c696e672066756e642829000000000000000000000000000000000000815250610328565b60003490506000811161107e576040517f08c379a0000000000000000000000000000000000000000000000000000000008152600401611075906146f4565b60405180910390fd5b6110c56110c06040518060400160405280600d81526020017f4554482062616c616e63653a200000000000000000000000000000000000000081525083610f20565b610328565b600a544210611109576040517f08c379a000000000000000000000000000000000000000000000000000000000815260040161110090614774565b60405180910390fd5b6000600860009054906101000a900473ffffffffffffffffffffffffffffffffffffffff1673ffffffffffffffffffffffffffffffffffffffff166370a08231306040518263ffffffff1660e01b81526004016111669190614585565b60206040518083038186803b15801561117e57600080fd5b505afa158015611192573d6000803e3d6000fd5b505050506040513d601f19601f820116820180604052508101906111b691906140ab565b9050600082146112f457600860009054906101000a900473ffffffffffffffffffffffffffffffffffffffff1673ffffffffffffffffffffffffffffffffffffffff1663d0e30db0836040518263ffffffff1660e01b81526004016000604051808303818588803b15801561122a57600080fd5b505af115801561123e573d6000803e3d6000fd5b5050505050600860009054906101000a900473ffffffffffffffffffffffffffffffffffffffff1673ffffffffffffffffffffffffffffffffffffffff1663a9059cbb30846040518363ffffffff1660e01b81526004016112a092919061466e565b602060405180830381600087803b1580156112ba57600080fd5b505af11580156112ce573d6000803e3d6000fd5b505050506040513d601f19601f820116820180604052508101906112f29190613e42565b505b6000600860009054906101000a900473ffffffffffffffffffffffffffffffffffffffff1673ffffffffffffffffffffffffffffffffffffffff166370a08231306040518263ffffffff1660e01b81526004016113519190614585565b60206040518083038186803b15801561136957600080fd5b505afa15801561137d573d6000803e3d6000fd5b505050506040513d601f19601f820116820180604052508101906113a191906140ab565b90506113ea6113e56040518060400160405280601581526020017f62616c616e6365206f662057455448206e6f773a20000000000000000000000081525083610f20565b610328565b828282031461142e576040517f08c379a000000000000000000000000000000000000000000000000000000000815260040161142590614734565b60405180910390fd5b600160003373ffffffffffffffffffffffffffffffffffffffff1673ffffffffffffffffffffffffffffffffffffffff16815260200190815260200160002060010160009054906101000a900460ff16611584576002339080600181540180825580915050600190039060005260206000200160009091909190916101000a81548173ffffffffffffffffffffffffffffffffffffffff021916908373ffffffffffffffffffffffffffffffffffffffff16021790555060018060003373ffffffffffffffffffffffffffffffffffffffff1673ffffffffffffffffffffffffffffffffffffffff16815260200190815260200160002060010160006101000a81548160ff0219169083151502179055506115836040518060400160405280601381526020017f66756e646572732e6c656e677468203d202573000000000000000000000000008152506002805490506116ac565b5b34600160003373ffffffffffffffffffffffffffffffffffffffff1673ffffffffffffffffffffffffffffffffffffffff1681526020019081526020016000206000016000828254019250508190555034600b6000828254019250508190555061162d6116286040518060400160405280600c81526020017f66756e645261697365643a200000000000000000000000000000000000000000815250600b54610f20565b610328565b505050565b600047905090565b6000600160008373ffffffffffffffffffffffffffffffffffffffff1673ffffffffffffffffffffffffffffffffffffffff168152602001908152602001600020600001549050919050565b600960009054906101000a900473ffffffffffffffffffffffffffffffffffffffff1681565b6117af82826040516024018080602001838152602001828103825284818151815260200191508051906020019080838360005b838110156116fa5780820151818401526020810190506116df565b50505050905090810190601f1680156117275780820380516001836020036101000a031916815260200191505b5093505050506040516020818303038152906040527fb60e72cc000000000000000000000000000000000000000000000000000000007bffffffffffffffffffffffffffffffffffffffffffffffffffffffff19166020820180517bffffffffffffffffffffffffffffffffffffffffffffffffffffffff838183161783525050505061242f565b5050565b6118ae816040516024018080602001828103825283818151815260200191508051906020019080838360005b838110156117fa5780820151818401526020810190506117df565b50505050905090810190601f1680156118275780820380516001836020036101000a031916815260200191505b50925050506040516020818303038152906040527f41304fac000000000000000000000000000000000000000000000000000000007bffffffffffffffffffffffffffffffffffffffffffffffffffffffff19166020820180517bffffffffffffffffffffffffffffffffffffffffffffffffffffffff838183161783525050505061242f565b50565b6118d2604051806080016040528060458152602001614a9e604591396117b3565b6000600360009054906101000a900473ffffffffffffffffffffffffffffffffffffffff1690506000600860009054906101000a900473ffffffffffffffffffffffffffffffffffffffff1673ffffffffffffffffffffffffffffffffffffffff166370a08231306040518263ffffffff1660e01b81526004016119569190614585565b60206040518083038186803b15801561196e57600080fd5b505afa158015611982573d6000803e3d6000fd5b505050506040513d601f19601f820116820180604052508101906119a691906140ab565b90506119e76040518060400160405280601381526020017f62616c616e6365206f6620574554483a20257300000000000000000000000000815250826116ac565b60006002805480602002602001604051908101604052809291908181526020018280548015611a6b57602002820191906000526020600020905b8160009054906101000a900473ffffffffffffffffffffffffffffffffffffffff1673ffffffffffffffffffffffffffffffffffffffff1681526020019060010190808311611a21575b50505050509050611ab26040518060400160405280601981526020017f63757272656e7446756e646572732e6c656e6774683a2025730000000000000081525082516116ac565b60005b8151811015611c92576000828281518110611acc57fe5b602002602001015190506000600160008373ffffffffffffffffffffffffffffffffffffffff1673ffffffffffffffffffffffffffffffffffffffff16815260200190815260200160002060000154905060008582890281611b2a57fe5b0490508673ffffffffffffffffffffffffffffffffffffffff1663a9059cbb84836040518363ffffffff1660e01b8152600401611b6892919061466e565b602060405180830381600087803b158015611b8257600080fd5b505af1158015611b96573d6000803e3d6000fd5b505050506040513d601f19601f82011682018060405250810190611bba9190613e42565b50611c826040518060400160405280601581526020017f62616c616e6365206f662066756e6465723a20257300000000000000000000008152508873ffffffffffffffffffffffffffffffffffffffff166370a08231866040518263ffffffff1660e01b8152600401611c2d9190614585565b60206040518083038186803b158015611c4557600080fd5b505afa158015611c59573d6000803e3d6000fd5b505050506040513d601f19601f82011682018060405250810190611c7d91906140ab565b6116ac565b5050508080600101915050611ab5565b50611cb4604051806080016040528060438152602001614b2a604391396117b3565b50505050565b6000600454141561242b57600360009054906101000a900473ffffffffffffffffffffffffffffffffffffffff1673ffffffffffffffffffffffffffffffffffffffff1673c02aaa39b223fe8d0a0e5c4f27ead9083c756cc273ffffffffffffffffffffffffffffffffffffffff161015611fe257611d6d6040518060400160405280600981526020017f696e697420706f6f6c00000000000000000000000000000000000000000000008152506117b3565b6000611d8f600d548381611d7d57fe5b04600d548581611d8957fe5b04612449565b90506000600560019054906101000a900473ffffffffffffffffffffffffffffffffffffffff1673ffffffffffffffffffffffffffffffffffffffff166313ead56273c02aaa39b223fe8d0a0e5c4f27ead9083c756cc2600360009054906101000a900473ffffffffffffffffffffffffffffffffffffffff16610bb8866040518563ffffffff1660e01b8152600401611e2c94939291906145e4565b602060405180830381600087803b158015611e4657600080fd5b505af1158015611e5a573d6000803e3d6000fd5b505050506040513d601f19601f82011682018060405250810190611e7e9190613d99565b905080600760006101000a81548173ffffffffffffffffffffffffffffffffffffffff021916908373ffffffffffffffffffffffffffffffffffffffff160217905550600760009054906101000a900473ffffffffffffffffffffffffffffffffffffffff1673ffffffffffffffffffffffffffffffffffffffff1663d0c93a7c6040518163ffffffff1660e01b815260040160206040518083038186803b158015611f2957600080fd5b505afa158015611f3d573d6000803e3d6000fd5b505050506040513d601f19601f82011682018060405250810190611f619190613e6b565b600760146101000a81548162ffffff021916908360020b62ffffff1602179055506000611fa4600d548681611f9257fe5b04600d548681611f9e57fe5b04612476565b505050905080600481905550611fd7600454600d548781611fc157fe5b048703600d548781611fcf57fe5b0487036132d3565b505050505050612291565b6120206040518060400160405280601281526020017f696e697420706f6f6c20726576657273656400000000000000000000000000008152506117b3565b6000612042600d54848161203057fe5b04600d54848161203c57fe5b04612449565b90506000600560019054906101000a900473ffffffffffffffffffffffffffffffffffffffff1673ffffffffffffffffffffffffffffffffffffffff166313ead562600360009054906101000a900473ffffffffffffffffffffffffffffffffffffffff1673c02aaa39b223fe8d0a0e5c4f27ead9083c756cc2610bb8866040518563ffffffff1660e01b81526004016120df94939291906145e4565b602060405180830381600087803b1580156120f957600080fd5b505af115801561210d573d6000803e3d6000fd5b505050506040513d601f19601f820116820180604052508101906121319190613d99565b905080600760006101000a81548173ffffffffffffffffffffffffffffffffffffffff021916908373ffffffffffffffffffffffffffffffffffffffff160217905550600760009054906101000a900473ffffffffffffffffffffffffffffffffffffffff1673ffffffffffffffffffffffffffffffffffffffff1663d0c93a7c6040518163ffffffff1660e01b815260040160206040518083038186803b1580156121dc57600080fd5b505afa1580156121f0573d6000803e3d6000fd5b505050506040513d601f19601f820116820180604052508101906122149190613e6b565b600760146101000a81548162ffffff021916908360020b62ffffff1602179055506000612257600d54858161224557fe5b04600d54878161225157fe5b04612476565b50505090508060048190555061228a600454600d54868161227457fe5b048603600d54888161228257fe5b0488036132d3565b5050505050505b61240f6040518060400160405280602081526020017f746f6b656e303a202573202d3e20746f6b656e313a2025732c207469636b3a20815250600760009054906101000a900473ffffffffffffffffffffffffffffffffffffffff1673ffffffffffffffffffffffffffffffffffffffff16630dfe16816040518163ffffffff1660e01b815260040160206040518083038186803b15801561233257600080fd5b505afa158015612346573d6000803e3d6000fd5b505050506040513d601f19601f8201168201806040525081019061236a9190613d99565b600760009054906101000a900473ffffffffffffffffffffffffffffffffffffffff1673ffffffffffffffffffffffffffffffffffffffff1663d21220a76040518163ffffffff1660e01b815260040160206040518083038186803b1580156123d257600080fd5b505afa1580156123e6573d6000803e3d6000fd5b505050506040513d601f19601f8201168201806040525081019061240a9190613d99565b6135c9565b61242a600760149054906101000a900460020b60020b613705565b5b5050565b6124468161243e61379e6137bf565b63ffffffff16565b50565b600061246e826c01000000000000000000000000808602028161246857fe5b046137ca565b905092915050565b6000806000806126ed604051806060016040528060218152602001614b0960219139600760009054906101000a900473ffffffffffffffffffffffffffffffffffffffff1673ffffffffffffffffffffffffffffffffffffffff16630dfe16816040518163ffffffff1660e01b815260040160206040518083038186803b15801561250057600080fd5b505afa158015612514573d6000803e3d6000fd5b505050506040513d601f19601f820116820180604052508101906125389190613d99565b73ffffffffffffffffffffffffffffffffffffffff166370a08231306040518263ffffffff1660e01b81526004016125709190614585565b60206040518083038186803b15801561258857600080fd5b505afa15801561259c573d6000803e3d6000fd5b505050506040513d601f19601f820116820180604052508101906125c091906140ab565b600760009054906101000a900473ffffffffffffffffffffffffffffffffffffffff1673ffffffffffffffffffffffffffffffffffffffff1663d21220a76040518163ffffffff1660e01b815260040160206040518083038186803b15801561262857600080fd5b505afa15801561263c573d6000803e3d6000fd5b505050506040513d601f19601f820116820180604052508101906126609190613d99565b73ffffffffffffffffffffffffffffffffffffffff166370a08231306040518263ffffffff1660e01b81526004016126989190614585565b60206040518083038186803b1580156126b057600080fd5b505afa1580156126c4573d6000803e3d6000fd5b505050506040513d601f19601f820116820180604052508101906126e891906140ab565b6138d9565b612710604051806060016040528060268152602001614bd26026913987876138d9565b600760009054906101000a900473ffffffffffffffffffffffffffffffffffffffff1673ffffffffffffffffffffffffffffffffffffffff16630dfe16816040518163ffffffff1660e01b815260040160206040518083038186803b15801561277857600080fd5b505afa15801561278c573d6000803e3d6000fd5b505050506040513d601f19601f820116820180604052508101906127b09190613d99565b73ffffffffffffffffffffffffffffffffffffffff1663095ea7b3600560019054906101000a900473ffffffffffffffffffffffffffffffffffffffff16886040518363ffffffff1660e01b815260040161280c92919061466e565b602060405180830381600087803b15801561282657600080fd5b505af115801561283a573d6000803e3d6000fd5b505050506040513d601f19601f8201168201806040525081019061285e9190613e42565b50600760009054906101000a900473ffffffffffffffffffffffffffffffffffffffff1673ffffffffffffffffffffffffffffffffffffffff1663d21220a76040518163ffffffff1660e01b815260040160206040518083038186803b1580156128c757600080fd5b505afa1580156128db573d6000803e3d6000fd5b505050506040513d601f19601f820116820180604052508101906128ff9190613d99565b73ffffffffffffffffffffffffffffffffffffffff1663095ea7b3600560019054906101000a900473ffffffffffffffffffffffffffffffffffffffff16876040518363ffffffff1660e01b815260040161295b92919061466e565b602060405180830381600087803b15801561297557600080fd5b505af1158015612989573d6000803e3d6000fd5b505050506040513d601f19601f820116820180604052508101906129ad9190613e42565b506000600760009054906101000a900473ffffffffffffffffffffffffffffffffffffffff1673ffffffffffffffffffffffffffffffffffffffff16633850c7bd6040518163ffffffff1660e01b815260040160e06040518083038186803b158015612a1857600080fd5b505afa158015612a2c573d6000803e3d6000fd5b505050506040513d601f19601f82011682018060405250810190612a509190613fe4565b5050505050915050612a966040518060400160405280600e81526020017f63757272656e74207469636b3a200000000000000000000000000000000000008152506117b3565b612aa28160020b613705565b600760149054906101000a900460020b60020b8160020b81612ac057fe5b07810390506000600c60009054906101000a900460020b600760149054906101000a900460020b02820390506000600c60009054906101000a900460020b600760149054906101000a900460020b02830190506000600760149054906101000a900460020b60020b8460020b81612b3357fe5b0760020b14612b77576040517f08c379a0000000000000000000000000000000000000000000000000000000008152600401612b6e90614714565b60405180910390fd5b612bb56040518060400160405280601181526020017f6c6f7765722a7570706572207469636b200000000000000000000000000000008152506117b3565b612bc18260020b613705565b612bcd8160020b613705565b6000604051806101600160405280600760009054906101000a900473ffffffffffffffffffffffffffffffffffffffff1673ffffffffffffffffffffffffffffffffffffffff16630dfe16816040518163ffffffff1660e01b815260040160206040518083038186803b158015612c4357600080fd5b505afa158015612c57573d6000803e3d6000fd5b505050506040513d601f19601f82011682018060405250810190612c7b9190613d99565b73ffffffffffffffffffffffffffffffffffffffff168152602001600760009054906101000a900473ffffffffffffffffffffffffffffffffffffffff1673ffffffffffffffffffffffffffffffffffffffff1663d21220a76040518163ffffffff1660e01b815260040160206040518083038186803b158015612cfe57600080fd5b505afa158015612d12573d6000803e3d6000fd5b505050506040513d601f19601f82011682018060405250810190612d369190613d99565b73ffffffffffffffffffffffffffffffffffffffff168152602001610bb862ffffff1681526020018460020b81526020018360020b81526020018b81526020018a815260200160008152602001600081526020013073ffffffffffffffffffffffffffffffffffffffff168152602001428152509050600560019054906101000a900473ffffffffffffffffffffffffffffffffffffffff1673ffffffffffffffffffffffffffffffffffffffff166388316456826040518263ffffffff1660e01b8152600401612e0791906147af565b608060405180830381600087803b158015612e2157600080fd5b505af1158015612e35573d6000803e3d6000fd5b505050506040513d601f19601f82011682018060405250810190612e5991906140d4565b809850819950829a50839b5050505050612ea96040518060400160405280601b81526020017f6e657720706f736974696f6e206d696e7465643a2025732c202573000000000081525087876138d9565b89861015612f7f57612f7e600760009054906101000a900473ffffffffffffffffffffffffffffffffffffffff1673ffffffffffffffffffffffffffffffffffffffff16630dfe16816040518163ffffffff1660e01b815260040160206040518083038186803b158015612f1c57600080fd5b505afa158015612f30573d6000803e3d6000fd5b505050506040513d601f19601f82011682018060405250810190612f549190613d99565b600560019054906101000a900473ffffffffffffffffffffffffffffffffffffffff1660006139e9565b5b8885101561305557613054600760009054906101000a900473ffffffffffffffffffffffffffffffffffffffff1673ffffffffffffffffffffffffffffffffffffffff1663d21220a76040518163ffffffff1660e01b815260040160206040518083038186803b158015612ff257600080fd5b505afa158015613006573d6000803e3d6000fd5b505050506040513d601f19601f8201168201806040525081019061302a9190613d99565b600560019054906101000a900473ffffffffffffffffffffffffffffffffffffffff1660006139e9565b5b6132c6604051806060016040528060258152602001614bad60259139600760009054906101000a900473ffffffffffffffffffffffffffffffffffffffff1673ffffffffffffffffffffffffffffffffffffffff16630dfe16816040518163ffffffff1660e01b815260040160206040518083038186803b1580156130d957600080fd5b505afa1580156130ed573d6000803e3d6000fd5b505050506040513d601f19601f820116820180604052508101906131119190613d99565b73ffffffffffffffffffffffffffffffffffffffff166370a08231306040518263ffffffff1660e01b81526004016131499190614585565b60206040518083038186803b15801561316157600080fd5b505afa158015613175573d6000803e3d6000fd5b505050506040513d601f19601f8201168201806040525081019061319991906140ab565b600760009054906101000a900473ffffffffffffffffffffffffffffffffffffffff1673ffffffffffffffffffffffffffffffffffffffff1663d21220a76040518163ffffffff1660e01b815260040160206040518083038186803b15801561320157600080fd5b505afa158015613215573d6000803e3d6000fd5b505050506040513d601f19601f820116820180604052508101906132399190613d99565b73ffffffffffffffffffffffffffffffffffffffff166370a08231306040518263ffffffff1660e01b81526004016132719190614585565b60206040518083038186803b15801561328957600080fd5b505afa15801561329d573d6000803e3d6000fd5b505050506040513d601f19601f820116820180604052508101906132c191906140ab565b6138d9565b5050505092959194509250565b60008060006133a4600760009054906101000a900473ffffffffffffffffffffffffffffffffffffffff1673ffffffffffffffffffffffffffffffffffffffff16630dfe16816040518163ffffffff1660e01b815260040160206040518083038186803b15801561334357600080fd5b505afa158015613357573d6000803e3d6000fd5b505050506040513d601f19601f8201168201806040525081019061337b9190613d99565b600560019054906101000a900473ffffffffffffffffffffffffffffffffffffffff16876139e9565b613470600760009054906101000a900473ffffffffffffffffffffffffffffffffffffffff1673ffffffffffffffffffffffffffffffffffffffff1663d21220a76040518163ffffffff1660e01b815260040160206040518083038186803b15801561340f57600080fd5b505afa158015613423573d6000803e3d6000fd5b505050506040513d601f19601f820116820180604052508101906134479190613d99565b600560019054906101000a900473ffffffffffffffffffffffffffffffffffffffff16866139e9565b613493604051806060016040528060268152602001614ae36026913986866138d9565b60006040518060c001604052808881526020018781526020018681526020016000815260200160008152602001428152509050600560019054906101000a900473ffffffffffffffffffffffffffffffffffffffff1673ffffffffffffffffffffffffffffffffffffffff1663219f5d17826040518263ffffffff1660e01b81526004016135219190614794565b606060405180830381600087803b15801561353b57600080fd5b505af115801561354f573d6000803e3d6000fd5b505050506040513d601f19601f820116820180604052508101906135739190613f95565b8094508195508296505050506135bf6040518060400160405280601881526020017f61637475616c20616d6f756e74733a202573202d3e202573000000000000000081525084846138d9565b5093509350939050565b61370083838360405160240180806020018473ffffffffffffffffffffffffffffffffffffffff1681526020018373ffffffffffffffffffffffffffffffffffffffff168152602001828103825285818151815260200191508051906020019080838360005b8381101561364a57808201518184015260208101905061362f565b50505050905090810190601f1680156136775780820380516001836020036101000a031916815260200191505b509450505050506040516020818303038152906040527ffcec75e0000000000000000000000000000000000000000000000000000000007bffffffffffffffffffffffffffffffffffffffffffffffffffffffff19166020820180517bffffffffffffffffffffffffffffffffffffffffffffffffffffffff838183161783525050505061242f565b505050565b61379b81604051602401808281526020019150506040516020818303038152906040527f2d5b6cb9000000000000000000000000000000000000000000000000000000007bffffffffffffffffffffffffffffffffffffffffffffffffffffffff19166020820180517bffffffffffffffffffffffffffffffffffffffffffffffffffffffff838183161783525050505061242f565b50565b60006a636f6e736f6c652e6c6f679050600080835160208501845afa505050565b613bea819050919050565b6000600190508170010000000000000000000000000000000081106137f6578060801c90508160401b91505b680100000000000000008110613813578060401c90508160201b91505b640100000000811061382c578060201c90508160101b91505b620100008110613843578060101c90508160081b91505b6101008110613859578060081c90508160041b91505b6010811061386e578060041c90508160021b91505b6008811061387d578160011b91505b818304820160011c9150818304820160011c9150818304820160011c9150818304820160011c9150818304820160011c9150818304820160011c9150818304820160011c9150818304828110156138d2578092505b5050919050565b6139e48383836040516024018080602001848152602001838152602001828103825285818151815260200191508051906020019080838360005b8381101561392e578082015181840152602081019050613913565b50505050905090810190601f16801561395b5780820380516001836020036101000a031916815260200191505b509450505050506040516020818303038152906040527fca47c4eb000000000000000000000000000000000000000000000000000000007bffffffffffffffffffffffffffffffffffffffffffffffffffffffff19166020820180517bffffffffffffffffffffffffffffffffffffffffffffffffffffffff838183161783525050505061242f565b505050565b6000808473ffffffffffffffffffffffffffffffffffffffff1663095ea7b360e01b8585604051602401808373ffffffffffffffffffffffffffffffffffffffff16815260200182815260200192505050604051602081830303815290604052907bffffffffffffffffffffffffffffffffffffffffffffffffffffffff19166020820180517bffffffffffffffffffffffffffffffffffffffffffffffffffffffff83818316178352505050506040518082805190602001908083835b60208310613aca5780518252602082019150602081019050602083039250613aa7565b6001836020036101000a0380198251168184511680821785525050505050509050019150506000604051808303816000865af19150503d8060008114613b2c576040519150601f19603f3d011682016040523d82523d6000602084013e613b31565b606091505b5091509150818015613b715750600081511480613b705750808060200190516020811015613b5e57600080fd5b81019080805190602001909291905050505b5b613be3576040517f08c379a00000000000000000000000000000000000000000000000000000000081526004018080602001828103825260028152602001807f534100000000000000000000000000000000000000000000000000000000000081525060200191505060405180910390fd5b5050505050565bfe5b6000613bff613bfa84614832565b614801565b905082815260208101848484011115613c1757600080fd5b613c22848285614986565b509392505050565b600081359050613c39816149e5565b92915050565b600081519050613c4e816149e5565b92915050565b600081519050613c63816149fc565b92915050565b60008083601f840112613c7b57600080fd5b8235905067ffffffffffffffff811115613c9457600080fd5b602083019150836001820283011115613cac57600080fd5b9250929050565b600081519050613cc281614a13565b92915050565b600082601f830112613cd957600080fd5b8135613ce9848260208601613bec565b91505092915050565b600081519050613d0181614a2a565b92915050565b600081519050613d1681614a58565b92915050565b600081519050613d2b81614a41565b92915050565b600081359050613d4081614a6f565b92915050565b600081519050613d5581614a6f565b92915050565b600081519050613d6a81614a86565b92915050565b600060208284031215613d8257600080fd5b6000613d9084828501613c2a565b91505092915050565b600060208284031215613dab57600080fd5b6000613db984828501613c3f565b91505092915050565b600080600080600060808688031215613dda57600080fd5b6000613de888828901613c2a565b9550506020613df988828901613c2a565b9450506040613e0a88828901613d31565b935050606086013567ffffffffffffffff811115613e2757600080fd5b613e3388828901613c69565b92509250509295509295909350565b600060208284031215613e5457600080fd5b6000613e6284828501613c54565b91505092915050565b600060208284031215613e7d57600080fd5b6000613e8b84828501613cb3565b91505092915050565b600060208284031215613ea657600080fd5b600082013567ffffffffffffffff811115613ec057600080fd5b613ecc84828501613cc8565b91505092915050565b60008060408385031215613ee857600080fd5b600083013567ffffffffffffffff811115613f0257600080fd5b613f0e85828601613cc8565b925050602083013567ffffffffffffffff811115613f2b57600080fd5b613f3785828601613cc8565b9150509250929050565b60008060408385031215613f5457600080fd5b600083013567ffffffffffffffff811115613f6e57600080fd5b613f7a85828601613cc8565b9250506020613f8b85828601613d31565b9150509250929050565b600080600060608486031215613faa57600080fd5b6000613fb886828701613cf2565b9350506020613fc986828701613d46565b9250506040613fda86828701613d46565b9150509250925092565b600080600080600080600060e0888a031215613fff57600080fd5b600061400d8a828b01613d07565b975050602061401e8a828b01613cb3565b965050604061402f8a828b01613d1c565b95505060606140408a828b01613d1c565b94505060806140518a828b01613d1c565b93505060a06140628a828b01613d5b565b92505060c06140738a828b01613c54565b91505092959891949750929550565b60006020828403121561409457600080fd5b60006140a284828501613d31565b91505092915050565b6000602082840312156140bd57600080fd5b60006140cb84828501613d46565b91505092915050565b600080600080608085870312156140ea57600080fd5b60006140f887828801613d46565b945050602061410987828801613cf2565b935050604061411a87828801613d46565b925050606061412b87828801613d46565b91505092959194509250565b61414081614950565b82525050565b61414f81614889565b82525050565b61415e81614889565b82525050565b61416d816148a7565b82525050565b61417c816148d3565b82525050565b600061418d82614862565b614197818561486d565b93506141a7818560208601614995565b6141b0816149d4565b840191505092915050565b60006141c682614862565b6141d0818561487e565b93506141e0818560208601614995565b80840191505092915050565b60006141f9601d8361486d565b91507f46756e64696e67206f76657220686173206265656e2063616c6c65642e0000006000830152602082019050919050565b600061423960108361486d565b91507f66756e64206d757374203e207a65726f000000000000000000000000000000006000830152602082019050919050565b6000614279600a8361486d565b91507f7469636b206572726f72000000000000000000000000000000000000000000006000830152602082019050919050565b60006142b960168361486d565b91507f457468657265756d206e6f74206465706f7369746564000000000000000000006000830152602082019050919050565b60006142f960098361486d565b91507f6e6f74206f776e657200000000000000000000000000000000000000000000006000830152602082019050919050565b600061433960118361486d565b91507f66756e64696e672068617320656e6465640000000000000000000000000000006000830152602082019050919050565b60c0820160008201516143826000850182614504565b5060208201516143956020850182614504565b5060408201516143a86040850182614504565b5060608201516143bb6060850182614504565b5060808201516143ce6080850182614504565b5060a08201516143e160a0850182614504565b50505050565b610160820160008201516143fe6000850182614146565b5060208201516144116020850182614146565b50604082015161442460408501826144e6565b5060608201516144376060850182614173565b50608082015161444a6080850182614173565b5060a082015161445d60a0850182614504565b5060c082015161447060c0850182614504565b5060e082015161448360e0850182614504565b50610100820151614498610100850182614504565b506101208201516144ad610120850182614146565b506101408201516144c2610140850182614504565b50505050565b6144d1816148e0565b82525050565b6144e08161490a565b82525050565b6144ef8161492a565b82525050565b6144fe8161492a565b82525050565b61450d81614939565b82525050565b61451c81614939565b82525050565b61453361452e82614939565b6149c8565b82525050565b600061454582856141bb565b915061455182846141bb565b91508190509392505050565b600061456982856141bb565b91506145758284614522565b6020820191508190509392505050565b600060208201905061459a6000830184614155565b92915050565b60006020820190506145b56000830184614137565b92915050565b60006040820190506145d06000830185614137565b6145dd6020830184614513565b9392505050565b60006080820190506145f96000830187614155565b6146066020830186614155565b61461360408301856144f5565b61462060608301846144d7565b95945050505050565b600060808201905061463e6000830187614155565b61464b60208301866144c8565b6146586040830185614155565b6146656060830184614155565b95945050505050565b60006040820190506146836000830185614155565b6146906020830184614513565b9392505050565b60006020820190506146ac6000830184614164565b92915050565b600060208201905081810360008301526146cc8184614182565b905092915050565b600060208201905081810360008301526146ed816141ec565b9050919050565b6000602082019050818103600083015261470d8161422c565b9050919050565b6000602082019050818103600083015261472d8161426c565b9050919050565b6000602082019050818103600083015261474d816142ac565b9050919050565b6000602082019050818103600083015261476d816142ec565b9050919050565b6000602082019050818103600083015261478d8161432c565b9050919050565b600060c0820190506147a9600083018461436c565b92915050565b6000610160820190506147c560008301846143e7565b92915050565b60006020820190506147e060008301846144f5565b92915050565b60006020820190506147fb6000830184614513565b92915050565b6000604051905081810181811067ffffffffffffffff82111715614828576148276149d2565b5b8060405250919050565b600067ffffffffffffffff82111561484d5761484c6149d2565b5b601f19601f8301169050602081019050919050565b600081519050919050565b600082825260208201905092915050565b600081905092915050565b60006148948261490a565b9050919050565b60008115159050919050565b60007fffffffff0000000000000000000000000000000000000000000000000000000082169050919050565b60008160020b9050919050565b60006fffffffffffffffffffffffffffffffff82169050919050565b600061ffff82169050919050565b600073ffffffffffffffffffffffffffffffffffffffff82169050919050565b600062ffffff82169050919050565b6000819050919050565b600060ff82169050919050565b600061495b82614962565b9050919050565b600061496d82614974565b9050919050565b600061497f8261490a565b9050919050565b82818337600083830152505050565b60005b838110156149b3578082015181840152602081019050614998565b838111156149c2576000848401525b50505050565b6000819050919050565bfe5b6000601f19601f8301169050919050565b6149ee81614889565b81146149f957600080fd5b50565b614a058161489b565b8114614a1057600080fd5b50565b614a1c816148d3565b8114614a2757600080fd5b50565b614a33816148e0565b8114614a3e57600080fd5b50565b614a4a816148fc565b8114614a5557600080fd5b50565b614a618161490a565b8114614a6c57600080fd5b50565b614a7881614939565b8114614a8357600080fd5b50565b614a8f81614943565b8114614a9a57600080fd5b5056fe2d2d2d2d2d2d2d2d2d2d2d2d20626567696e206f6620636f6e7472616374206d6574686f642073656e644d696e67546f46756e6465722829202d2d2d2d2d2d2d2d2d2d2d2d616d6f756e7420746f20696e637265617365206c69717569646974793a202573202d3e20257362616c616e6365206f662045544820616e64204d494e47202d3e2025732c2025732d2d2d2d2d2d2d2d2d2d2d2d20656e64206f6620636f6e7472616374206d6574686f642073656e644d696e67546f46756e6465722829202d2d2d2d2d2d2d2d2d2d2d2d2d2d2d2d2d2d2d2d2d2d2d2d20656e64206f6620636f6e7472616374206d6574686f64206f6e46756e64696e674f7665722829202d2d2d2d2d2d2d2d2d2d2d2d6e65772062616c616e6365206f662045544820616e64204d494e47202d3e2025732c202573616d6f756e7420746f206d696e74206e657720706f736974696f6e20202d3e2025732c2025732d2d2d2d2d2d2d2d2d2d2d2d20626567696e206f6620636f6e7472616374206d6574686f64206f6e46756e64696e674f7665722829202d2d2d2d2d2d2d2d2d2d2d2da264697066735822122011ac9309ebf1dc7fc777e9c39a8d9d922cf7942200d3ae74520538c19c15aba564736f6c63430007060033",
  "linkReferences": {},
  "deployedLinkReferences": {}
}