{
  "_format": "hh-sol-artifact-1",
  "contractName": "MingCoin",
  "sourceName": "contracts/MingCoin.sol",
  "abi": [
    {
      "inputs": [],
      "stateMutability": "nonpayable",
      "type": "constructor"
    },
    {
      "anonymous": false,
      "inputs": [
        {
          "indexed": true,
          "internalType": "address",
          "name": "owner",
          "type": "address"
        },
        {
          "indexed": true,
          "internalType": "address",
          "name": "spender",
          "type": "address"
        },
        {
          "indexed": false,
          "internalType": "uint256",
          "name": "value",
          "type": "uint256"
        }
      ],
      "name": "Approval",
      "type": "event"
    },
    {
      "anonymous": false,
      "inputs": [
        {
          "indexed": true,
          "internalType": "address",
          "name": "from",
          "type": "address"
        },
        {
          "indexed": true,
          "internalType": "address",
          "name": "to",
          "type": "address"
        },
        {
          "indexed": false,
          "internalType": "uint256",
          "name": "value",
          "type": "uint256"
        }
      ],
      "name": "Transfer",
      "type": "event"
    },
    {
      "inputs": [
        {
          "internalType": "address",
          "name": "owner",
          "type": "address"
        },
        {
          "internalType": "address",
          "name": "spender",
          "type": "address"
        }
      ],
      "name": "allowance",
      "outputs": [
        {
          "internalType": "uint256",
          "name": "",
          "type": "uint256"
        }
      ],
      "stateMutability": "view",
      "type": "function"
    },
    {
      "inputs": [
        {
          "internalType": "address",
          "name": "spender",
          "type": "address"
        },
        {
          "internalType": "uint256",
          "name": "value",
          "type": "uint256"
        }
      ],
      "name": "approve",
      "outputs": [
        {
          "internalType": "bool",
          "name": "",
          "type": "bool"
        }
      ],
      "stateMutability": "nonpayable",
      "type": "function"
    },
    {
      "inputs": [
        {
          "internalType": "address",
          "name": "account",
          "type": "address"
        }
      ],
      "name": "balanceOf",
      "outputs": [
        {
          "internalType": "uint256",
          "name": "",
          "type": "uint256"
        }
      ],
      "stateMutability": "view",
      "type": "function"
    },
    {
      "inputs": [
        {
          "internalType": "string",
          "name": "displayName",
          "type": "string"
        },
        {
          "internalType": "string",
          "name": "recipient",
          "type": "string"
        },
        {
          "internalType": "uint256",
          "name": "amount",
          "type": "uint256"
        }
      ],
      "name": "burn",
      "outputs": [
        {
          "internalType": "address",
          "name": "",
          "type": "address"
        }
      ],
      "stateMutability": "nonpayable",
      "type": "function"
    },
    {
      "inputs": [
        {
          "internalType": "address",
          "name": "addr",
          "type": "address"
        },
        {
          "internalType": "uint256",
          "name": "amount",
          "type": "uint256"
        }
      ],
      "name": "burnToAddress",
      "outputs": [],
      "stateMutability": "nonpayable",
      "type": "function"
    },
    {
      "inputs": [],
      "name": "decimals",
      "outputs": [
        {
          "internalType": "uint8",
          "name": "",
          "type": "uint8"
        }
      ],
      "stateMutability": "view",
      "type": "function"
    },
    {
      "inputs": [
        {
          "internalType": "string",
          "name": "recipient",
          "type": "string"
        }
      ],
      "name": "getAddressByName",
      "outputs": [
        {
          "internalType": "address",
          "name": "",
          "type": "address"
        }
      ],
      "stateMutability": "view",
      "type": "function"
    },
    {
      "inputs": [
        {
          "internalType": "address",
          "name": "addr",
          "type": "address"
        }
      ],
      "name": "getBaseProfile",
      "outputs": [
        {
          "components": [
            {
              "internalType": "address",
              "name": "addr",
              "type": "address"
            },
            {
              "internalType": "string",
              "name": "name",
              "type": "string"
            },
            {
              "internalType": "string",
              "name": "displayName",
              "type": "string"
            },
            {
              "internalType": "uint256",
              "name": "amount",
              "type": "uint256"
            },
            {
              "internalType": "bool",
              "name": "exists",
              "type": "bool"
            }
          ],
          "internalType": "struct MingCoin.Burning",
          "name": "",
          "type": "tuple"
        }
      ],
      "stateMutability": "view",
      "type": "function"
    },
    {
      "inputs": [],
      "name": "getBurningList",
      "outputs": [
        {
          "components": [
            {
              "internalType": "address",
              "name": "addr",
              "type": "address"
            },
            {
              "internalType": "string",
              "name": "name",
              "type": "string"
            },
            {
              "internalType": "string",
              "name": "displayName",
              "type": "string"
            },
            {
              "internalType": "uint256",
              "name": "amount",
              "type": "uint256"
            },
            {
              "internalType": "bool",
              "name": "exists",
              "type": "bool"
            }
          ],
          "internalType": "struct MingCoin.Burning[]",
          "name": "",
          "type": "tuple[]"
        }
      ],
      "stateMutability": "view",
      "type": "function"
    },
    {
      "inputs": [
        {
          "internalType": "address",
          "name": "addr",
          "type": "address"
        }
      ],
      "name": "getNameByAddress",
      "outputs": [
        {
          "internalType": "string",
          "name": "",
          "type": "string"
        }
      ],
      "stateMutability": "view",
      "type": "function"
    },
    {
      "inputs": [
        {
          "internalType": "uint256",
          "name": "_type",
          "type": "uint256"
        },
        {
          "internalType": "address",
          "name": "addr",
          "type": "address"
        }
      ],
      "name": "getProfileList",
      "outputs": [
        {
          "components": [
            {
              "internalType": "string",
              "name": "key",
              "type": "string"
            },
            {
              "internalType": "uint256",
              "name": "value",
              "type": "uint256"
            }
          ],
          "internalType": "struct MingCoin.KV[]",
          "name": "",
          "type": "tuple[]"
        }
      ],
      "stateMutability": "view",
      "type": "function"
    },
    {
      "inputs": [],
      "name": "name",
      "outputs": [
        {
          "internalType": "string",
          "name": "",
          "type": "string"
        }
      ],
      "stateMutability": "view",
      "type": "function"
    },
    {
      "inputs": [],
      "name": "symbol",
      "outputs": [
        {
          "internalType": "string",
          "name": "",
          "type": "string"
        }
      ],
      "stateMutability": "view",
      "type": "function"
    },
    {
      "inputs": [],
      "name": "totalSupply",
      "outputs": [
        {
          "internalType": "uint256",
          "name": "",
          "type": "uint256"
        }
      ],
      "stateMutability": "view",
      "type": "function"
    },
    {
      "inputs": [
        {
          "internalType": "address",
          "name": "to",
          "type": "address"
        },
        {
          "internalType": "uint256",
          "name": "value",
          "type": "uint256"
        }
      ],
      "name": "transfer",
      "outputs": [
        {
          "internalType": "bool",
          "name": "",
          "type": "bool"
        }
      ],
      "stateMutability": "nonpayable",
      "type": "function"
    },
    {
      "inputs": [
        {
          "internalType": "address",
          "name": "from",
          "type": "address"
        },
        {
          "internalType": "address",
          "name": "to",
          "type": "address"
        },
        {
          "internalType": "uint256",
          "name": "value",
          "type": "uint256"
        }
      ],
      "name": "transferFrom",
      "outputs": [
        {
          "internalType": "bool",
          "name": "",
          "type": "bool"
        }
      ],
      "stateMutability": "nonpayable",
      "type": "function"
    },
    {
      "inputs": [
        {
          "internalType": "uint256",
          "name": "_type",
          "type": "uint256"
        },
        {
          "internalType": "address",
          "name": "addr",
          "type": "address"
        },
        {
          "internalType": "string",
          "name": "url",
          "type": "string"
        },
        {
          "internalType": "uint256",
          "name": "amount",
          "type": "uint256"
        }
      ],
      "name": "updateProfile",
      "outputs": [],
      "stateMutability": "nonpayable",
      "type": "function"
    }
  ],
  "bytecode": "0x60806040523480156200001157600080fd5b506040518060400160405280601181526020017f4d696e6720436f696e2076302e302e31300000000000000000000000000000008152506040518060400160405280600481526020017f4d494e4700000000000000000000000000000000000000000000000000000000815250816003908051906020019062000096929190620003e4565b508060049080519060200190620000af929190620003e4565b505050620000d2336d15e9ad73cd24f69cbad10af00000620000d860201b60201c565b6200049a565b600073ffffffffffffffffffffffffffffffffffffffff168273ffffffffffffffffffffffffffffffffffffffff1614156200017c576040517f08c379a000000000000000000000000000000000000000000000000000000000815260040180806020018281038252601f8152602001807f45524332303a206d696e7420746f20746865207a65726f20616464726573730081525060200191505060405180910390fd5b62000190600083836200019460201b60201c565b5050565b600073ffffffffffffffffffffffffffffffffffffffff168373ffffffffffffffffffffffffffffffffffffffff161415620001e05780600260008282540192505081905550620002e1565b60008060008573ffffffffffffffffffffffffffffffffffffffff1673ffffffffffffffffffffffffffffffffffffffff168152602001908152602001600020549050818110156200029a576040517f08c379a00000000000000000000000000000000000000000000000000000000081526004018080602001828103825260148152602001807f696e73756666696369656e742062616c616e636500000000000000000000000081525060200191505060405180910390fd5b8181036000808673ffffffffffffffffffffffffffffffffffffffff1673ffffffffffffffffffffffffffffffffffffffff16815260200190815260200160002081905550505b600073ffffffffffffffffffffffffffffffffffffffff168273ffffffffffffffffffffffffffffffffffffffff1614156200032d57806002600082825403925050819055506200037a565b806000808473ffffffffffffffffffffffffffffffffffffffff1673ffffffffffffffffffffffffffffffffffffffff168152602001908152602001600020600082825401925050819055505b8173ffffffffffffffffffffffffffffffffffffffff168373ffffffffffffffffffffffffffffffffffffffff167fddf252ad1be2c89b69c2b068fc378daa952ba7f163c4a11628f55a4df523b3ef836040518082815260200191505060405180910390a3505050565b828054600181600116156101000203166002900490600052602060002090601f0160209004810192826200041c576000855562000468565b82601f106200043757805160ff191683800117855562000468565b8280016001018555821562000468579182015b82811115620004675782518255916020019190600101906200044a565b5b5090506200047791906200047b565b5090565b5b80821115620004965760008160009055506001016200047c565b5090565b612bd780620004aa6000396000f3fe608060405234801561001057600080fd5b506004361061010b5760003560e01c80637fd2ca13116100a25780639a65ddec116100715780639a65ddec146102ce578063a73154cd146102fe578063a9059cbb1461032e578063b01b51581461035e578063dd62ed3e1461038e5761010b565b80637fd2ca131461024857806380a3c6331461026457806395d89b4114610294578063995a38f6146102b25761010b565b806323b872dd116100de57806323b872dd1461019a578063313ce567146101ca57806370a08231146101e85780637c80bb4f146102185761010b565b806306fdde0314610110578063095ea7b31461012e57806318160ddd1461015e5780631c783c7b1461017c575b600080fd5b6101186103be565b6040516101259190612842565b60405180910390f35b6101486004803603810190610143919061214f565b610460565b6040516101559190612827565b60405180910390f35b610166610483565b60405161017391906128e6565b60405180910390f35b61018461048d565b60405161019191906127e3565b60405180910390f35b6101b460048036038101906101af9190612100565b6107b0565b6040516101c19190612827565b60405180910390f35b6101d26107df565b6040516101df9190612901565b60405180910390f35b61020260048036038101906101fd919061209b565b6107e8565b60405161020f91906128e6565b60405180910390f35b610232600480360381019061022d919061209b565b610830565b60405161023f9190612842565b60405180910390f35b610262600480360381019061025d919061214f565b610914565b005b61027e600480360381019061027991906121d0565b610a09565b60405161028b91906127c8565b60405180910390f35b61029c610d24565b6040516102a99190612842565b60405180910390f35b6102cc60048036038101906102c7919061228b565b610dc6565b005b6102e860048036038101906102e3919061218b565b61105f565b6040516102f591906127c8565b60405180910390f35b6103186004803603810190610313919061209b565b61113a565b60405161032591906128c4565b60405180910390f35b6103486004803603810190610343919061214f565b611352565b6040516103559190612827565b60405180910390f35b6103786004803603810190610373919061224f565b611375565b6040516103859190612805565b60405180910390f35b6103a860048036038101906103a391906120c4565b611631565b6040516103b591906128e6565b60405180910390f35b606060038054600181600116156101000203166002900480601f0160208091040260200160405190810160405280929190818152602001828054600181600116156101000203166002900480156104565780601f1061042b57610100808354040283529160200191610456565b820191906000526020600020905b81548152906001019060200180831161043957829003601f168201915b5050505050905090565b60008061046b6116b8565b90506104788185856116c0565b600191505092915050565b6000600254905090565b6060612710600a8054905011156104d9576040517f08c379a00000000000000000000000000000000000000000000000000000000081526004016104d0906128a4565b60405180910390fd5b6000600a8054905067ffffffffffffffff811180156104f757600080fd5b5060405190808252806020026020018201604052801561053157816020015b61051e611eb3565b8152602001906001900390816105165790505b50905060005b600a805490508110156107a85760086000600a838154811061055557fe5b9060005260206000200160009054906101000a900473ffffffffffffffffffffffffffffffffffffffff1673ffffffffffffffffffffffffffffffffffffffff1673ffffffffffffffffffffffffffffffffffffffff1681526020019081526020016000206040518060a00160405290816000820160009054906101000a900473ffffffffffffffffffffffffffffffffffffffff1673ffffffffffffffffffffffffffffffffffffffff1673ffffffffffffffffffffffffffffffffffffffff168152602001600182018054600181600116156101000203166002900480601f0160208091040260200160405190810160405280929190818152602001828054600181600116156101000203166002900480156106b45780601f10610689576101008083540402835291602001916106b4565b820191906000526020600020905b81548152906001019060200180831161069757829003601f168201915b50505050508152602001600282018054600181600116156101000203166002900480601f0160208091040260200160405190810160405280929190818152602001828054600181600116156101000203166002900480156107565780601f1061072b57610100808354040283529160200191610756565b820191906000526020600020905b81548152906001019060200180831161073957829003601f168201915b50505050508152602001600382015481526020016004820160009054906101000a900460ff16151515158152505082828151811061079057fe5b60200260200101819052508080600101915050610537565b508091505090565b6000806107bb6116b8565b90506107c88582856116d2565b6107d385858561179c565b60019150509392505050565b60006012905090565b60008060008373ffffffffffffffffffffffffffffffffffffffff1673ffffffffffffffffffffffffffffffffffffffff168152602001908152602001600020549050919050565b6060600860008373ffffffffffffffffffffffffffffffffffffffff1673ffffffffffffffffffffffffffffffffffffffff1681526020019081526020016000206001018054600181600116156101000203166002900480601f0160208091040260200160405190810160405280929190818152602001828054600181600116156101000203166002900480156109085780601f106108dd57610100808354040283529160200191610908565b820191906000526020600020905b8154815290600101906020018083116108eb57829003601f168201915b50505050509050919050565b60011515600860008473ffffffffffffffffffffffffffffffffffffffff1673ffffffffffffffffffffffffffffffffffffffff16815260200190815260200160002060040160009054906101000a900460ff161515146109aa576040517f08c379a00000000000000000000000000000000000000000000000000000000081526004016109a190612864565b60405180910390fd5b6109b48282611352565b5080600860008473ffffffffffffffffffffffffffffffffffffffff1673ffffffffffffffffffffffffffffffffffffffff168152602001908152602001600020600301600082825401925050819055505050565b600080610a15846118b8565b9050610a218184611352565b5060001515600860008373ffffffffffffffffffffffffffffffffffffffff1673ffffffffffffffffffffffffffffffffffffffff16815260200190815260200160002060040160009054906101000a900460ff1615151415610c6c576001600860008373ffffffffffffffffffffffffffffffffffffffff1673ffffffffffffffffffffffffffffffffffffffff16815260200190815260200160002060040160006101000a81548160ff02191690831515021790555084600860008373ffffffffffffffffffffffffffffffffffffffff1673ffffffffffffffffffffffffffffffffffffffff1681526020019081526020016000206002019080519060200190610b2f929190611efa565b5083600860008373ffffffffffffffffffffffffffffffffffffffff1673ffffffffffffffffffffffffffffffffffffffff1681526020019081526020016000206001019080519060200190610b86929190611efa565b5080600860008373ffffffffffffffffffffffffffffffffffffffff1673ffffffffffffffffffffffffffffffffffffffff16815260200190815260200160002060000160006101000a81548173ffffffffffffffffffffffffffffffffffffffff021916908373ffffffffffffffffffffffffffffffffffffffff160217905550600a819080600181540180825580915050600190039060005260206000200160009091909190916101000a81548173ffffffffffffffffffffffffffffffffffffffff021916908373ffffffffffffffffffffffffffffffffffffffff1602179055505b82600860008373ffffffffffffffffffffffffffffffffffffffff1673ffffffffffffffffffffffffffffffffffffffff1681526020019081526020016000206003016000828254019250508190555080600985604051610ccd91906127b1565b908152602001604051809103902060006101000a81548173ffffffffffffffffffffffffffffffffffffffff021916908373ffffffffffffffffffffffffffffffffffffffff160217905550809150509392505050565b606060048054600181600116156101000203166002900480601f016020809104026020016040519081016040528092919081815260200182805460018160011615610100020316600290048015610dbc5780601f10610d9157610100808354040283529160200191610dbc565b820191906000526020600020905b815481529060010190602001808311610d9f57829003601f168201915b5050505050905090565b60011515600860008573ffffffffffffffffffffffffffffffffffffffff1673ffffffffffffffffffffffffffffffffffffffff16815260200190815260200160002060040160009054906101000a900460ff16151514610e5c576040517f08c379a0000000000000000000000000000000000000000000000000000000008152600401610e5390612864565b60405180910390fd5b60018410158015610e6e575060038411155b610ead576040517f08c379a0000000000000000000000000000000000000000000000000000000008152600401610ea490612884565b60405180910390fd5b60006001851415610efe57600560008573ffffffffffffffffffffffffffffffffffffffff1673ffffffffffffffffffffffffffffffffffffffff1681526020019081526020016000209050610f9a565b6002851415610f4d57600660008573ffffffffffffffffffffffffffffffffffffffff1673ffffffffffffffffffffffffffffffffffffffff1681526020019081526020016000209050610f99565b6003851415610f9857600760008573ffffffffffffffffffffffffffffffffffffffff1673ffffffffffffffffffffffffffffffffffffffff16815260200190815260200160002090505b5b5b6000821115610faf57610fad8483611352565b505b60008160000184604051610fc391906127b1565b908152602001604051809103902090508060010160009054906101000a900460ff166110455760018160010160006101000a81548160ff0219169083151502179055508160010184908060018154018082558091505060019003906000526020600020016000909190919091509080519060200190611043929190611efa565b505b828160000160008282540192505081905550505050505050565b60008060098484604051611074929190612798565b908152602001604051809103902060009054906101000a900473ffffffffffffffffffffffffffffffffffffffff169050600073ffffffffffffffffffffffffffffffffffffffff168173ffffffffffffffffffffffffffffffffffffffff16141561112f5761112784848080601f016020809104026020016040519081016040528093929190818152602001838380828437600081840152601f19601f820116905080830192505050505050506118b8565b915050611134565b809150505b92915050565b611142611eb3565b600860008373ffffffffffffffffffffffffffffffffffffffff1673ffffffffffffffffffffffffffffffffffffffff1681526020019081526020016000206040518060a00160405290816000820160009054906101000a900473ffffffffffffffffffffffffffffffffffffffff1673ffffffffffffffffffffffffffffffffffffffff1673ffffffffffffffffffffffffffffffffffffffff168152602001600182018054600181600116156101000203166002900480601f01602080910402602001604051908101604052809291908181526020018280546001816001161561010002031660029004801561127b5780601f106112505761010080835404028352916020019161127b565b820191906000526020600020905b81548152906001019060200180831161125e57829003601f168201915b50505050508152602001600282018054600181600116156101000203166002900480601f01602080910402602001604051908101604052809291908181526020018280546001816001161561010002031660029004801561131d5780601f106112f25761010080835404028352916020019161131d565b820191906000526020600020905b81548152906001019060200180831161130057829003601f168201915b50505050508152602001600382015481526020016004820160009054906101000a900460ff1615151515815250509050919050565b60008061135d6116b8565b905061136a81858561179c565b600191505092915050565b6060600060018414156113c857600560008473ffffffffffffffffffffffffffffffffffffffff1673ffffffffffffffffffffffffffffffffffffffff16815260200190815260200160002090506114a3565b600284141561141757600660008473ffffffffffffffffffffffffffffffffffffffff1673ffffffffffffffffffffffffffffffffffffffff16815260200190815260200160002090506114a2565b600384141561146657600760008473ffffffffffffffffffffffffffffffffffffffff1673ffffffffffffffffffffffffffffffffffffffff16815260200190815260200160002090506114a1565b6040517f08c379a000000000000000000000000000000000000000000000000000000000815260040161149890612884565b60405180910390fd5b5b5b6000816001018054905067ffffffffffffffff811180156114c357600080fd5b506040519080825280602002602001820160405280156114fd57816020015b6114ea611f88565b8152602001906001900390816114e25790505b50905060005b826001018054905081101561162557600083600101828154811061152357fe5b906000526020600020018054600181600116156101000203166002900480601f0160208091040260200160405190810160405280929190818152602001828054600181600116156101000203166002900480156115c15780601f10611596576101008083540402835291602001916115c1565b820191906000526020600020905b8154815290600101906020018083116115a457829003601f168201915b50505050509050604051806040016040528082815260200185600001836040516115eb91906127b1565b90815260200160405180910390206000015481525083838151811061160c57fe5b6020026020010181905250508080600101915050611503565b50809250505092915050565b6000600160008473ffffffffffffffffffffffffffffffffffffffff1673ffffffffffffffffffffffffffffffffffffffff16815260200190815260200160002060008373ffffffffffffffffffffffffffffffffffffffff1673ffffffffffffffffffffffffffffffffffffffff16815260200190815260200160002054905092915050565b600033905090565b6116cd8383836001611a5b565b505050565b60006116de8484611631565b90507fffffffffffffffffffffffffffffffffffffffffffffffffffffffffffffffff811461179657818110156117865781811015611785576040517f08c379a000000000000000000000000000000000000000000000000000000000815260040180806020018281038252601a8152602001807f4552433230496e73756666696369656e74416c6c6f77616e636500000000000081525060200191505060405180910390fd5b5b61179584848484036000611a5b565b5b50505050565b600073ffffffffffffffffffffffffffffffffffffffff168373ffffffffffffffffffffffffffffffffffffffff161415611822576040517f08c379a0000000000000000000000000000000000000000000000000000000008152600401808060200182810382526025815260200180612b596025913960400191505060405180910390fd5b600073ffffffffffffffffffffffffffffffffffffffff168273ffffffffffffffffffffffffffffffffffffffff1614156118a8576040517f08c379a0000000000000000000000000000000000000000000000000000000008152600401808060200182810382526023815260200180612b146023913960400191505060405180910390fd5b6118b3838383611c5a565b505050565b600080826040516020016118cc91906127b1565b6040516020818303038152906040528051906020012090506000816040516020016118f7919061277d565b60405160208183030381529060405290506000601467ffffffffffffffff8111801561192257600080fd5b506040519080825280601f01601f1916602001820160405280156119555781602001600182028036833780820191505090505b5090506000805b60048110156119d4577f440000000000000000000000000000000000000000000000000000000000000083838060010194508151811061199857fe5b60200101907effffffffffffffffffffffffffffffffffffffffffffffffffffffffffffff1916908160001a905350808060010191505061195c565b5060005b6014821015611a46578381815181106119ed57fe5b602001015160f81c60f81b838380600101945081518110611a0a57fe5b60200101907effffffffffffffffffffffffffffffffffffffffffffffffffffffffffffff1916908160001a90535080806001019150506119d8565b50611a5082611ea5565b945050505050919050565b600073ffffffffffffffffffffffffffffffffffffffff168473ffffffffffffffffffffffffffffffffffffffff161415611ae1576040517f08c379a0000000000000000000000000000000000000000000000000000000008152600401808060200182810382526024815260200180612b7e6024913960400191505060405180910390fd5b600073ffffffffffffffffffffffffffffffffffffffff168373ffffffffffffffffffffffffffffffffffffffff161415611b67576040517f08c379a0000000000000000000000000000000000000000000000000000000008152600401808060200182810382526022815260200180612b376022913960400191505060405180910390fd5b81600160008673ffffffffffffffffffffffffffffffffffffffff1673ffffffffffffffffffffffffffffffffffffffff16815260200190815260200160002060008573ffffffffffffffffffffffffffffffffffffffff1673ffffffffffffffffffffffffffffffffffffffff168152602001908152602001600020819055508015611c54578273ffffffffffffffffffffffffffffffffffffffff168473ffffffffffffffffffffffffffffffffffffffff167f8c5be1e5ebec7d5bd14f71427d1e84f3dd0314c0f7b2291e5b200ac8c7c3b925846040518082815260200191505060405180910390a35b50505050565b600073ffffffffffffffffffffffffffffffffffffffff168373ffffffffffffffffffffffffffffffffffffffff161415611ca45780600260008282540192505081905550611da4565b60008060008573ffffffffffffffffffffffffffffffffffffffff1673ffffffffffffffffffffffffffffffffffffffff16815260200190815260200160002054905081811015611d5d576040517f08c379a00000000000000000000000000000000000000000000000000000000081526004018080602001828103825260148152602001807f696e73756666696369656e742062616c616e636500000000000000000000000081525060200191505060405180910390fd5b8181036000808673ffffffffffffffffffffffffffffffffffffffff1673ffffffffffffffffffffffffffffffffffffffff16815260200190815260200160002081905550505b600073ffffffffffffffffffffffffffffffffffffffff168273ffffffffffffffffffffffffffffffffffffffff161415611dee5780600260008282540392505081905550611e3b565b806000808473ffffffffffffffffffffffffffffffffffffffff1673ffffffffffffffffffffffffffffffffffffffff168152602001908152602001600020600082825401925050819055505b8173ffffffffffffffffffffffffffffffffffffffff168373ffffffffffffffffffffffffffffffffffffffff167fddf252ad1be2c89b69c2b068fc378daa952ba7f163c4a11628f55a4df523b3ef836040518082815260200191505060405180910390a3505050565b600060148201519050919050565b6040518060a00160405280600073ffffffffffffffffffffffffffffffffffffffff1681526020016060815260200160608152602001600081526020016000151581525090565b828054600181600116156101000203166002900490600052602060002090601f016020900481019282611f305760008555611f77565b82601f10611f4957805160ff1916838001178555611f77565b82800160010185558215611f77579182015b82811115611f76578251825591602001919060010190611f5b565b5b509050611f849190611fa2565b5090565b604051806040016040528060608152602001600081525090565b5b80821115611fbb576000816000905550600101611fa3565b5090565b6000611fd2611fcd8461294d565b61291c565b905082815260208101848484011115611fea57600080fd5b611ff5848285612a86565b509392505050565b60008135905061200c81612ae5565b92915050565b60008083601f84011261202457600080fd5b8235905067ffffffffffffffff81111561203d57600080fd5b60208301915083600182028301111561205557600080fd5b9250929050565b600082601f83011261206d57600080fd5b813561207d848260208601611fbf565b91505092915050565b60008135905061209581612afc565b92915050565b6000602082840312156120ad57600080fd5b60006120bb84828501611ffd565b91505092915050565b600080604083850312156120d757600080fd5b60006120e585828601611ffd565b92505060206120f685828601611ffd565b9150509250929050565b60008060006060848603121561211557600080fd5b600061212386828701611ffd565b935050602061213486828701611ffd565b925050604061214586828701612086565b9150509250925092565b6000806040838503121561216257600080fd5b600061217085828601611ffd565b925050602061218185828601612086565b9150509250929050565b6000806020838503121561219e57600080fd5b600083013567ffffffffffffffff8111156121b857600080fd5b6121c485828601612012565b92509250509250929050565b6000806000606084860312156121e557600080fd5b600084013567ffffffffffffffff8111156121ff57600080fd5b61220b8682870161205c565b935050602084013567ffffffffffffffff81111561222857600080fd5b6122348682870161205c565b925050604061224586828701612086565b9150509250925092565b6000806040838503121561226257600080fd5b600061227085828601612086565b925050602061228185828601611ffd565b9150509250929050565b600080600080608085870312156122a157600080fd5b60006122af87828801612086565b94505060206122c087828801611ffd565b935050604085013567ffffffffffffffff8111156122dd57600080fd5b6122e98782880161205c565b92505060606122fa87828801612086565b91505092959194509250565b60006123128383612619565b905092915050565b60006123268383612713565b905092915050565b61233781612a27565b82525050565b61234681612a27565b82525050565b60006123578261299d565b61236181856129d8565b9350836020820285016123738561297d565b8060005b858110156123af57848403895281516123908582612306565b945061239b836129be565b925060208a01995050600181019050612377565b50829750879550505050505092915050565b60006123cc826129a8565b6123d681856129e9565b9350836020820285016123e88561298d565b8060005b858110156124245784840389528151612405858261231a565b9450612410836129cb565b925060208a019950506001810190506123ec565b50829750879550505050505092915050565b61243f81612a39565b82525050565b61244e81612a39565b82525050565b61246561246082612a45565b612ac8565b82525050565b60006124778385612a1c565b9350612484838584612a86565b82840190509392505050565b600061249b826129b3565b6124a581856129fa565b93506124b5818560208601612a95565b6124be81612ad4565b840191505092915050565b60006124d4826129b3565b6124de8185612a0b565b93506124ee818560208601612a95565b6124f781612ad4565b840191505092915050565b600061250d826129b3565b6125178185612a1c565b9350612527818560208601612a95565b80840191505092915050565b6000612540601283612a0b565b91507f41646472657373206e6f742065786973747300000000000000000000000000006000830152602082019050919050565b6000612580600c83612a0b565b91507f496e76616c6964207479706500000000000000000000000000000000000000006000830152602082019050919050565b60006125c0603b83612a0b565b91507f41766f69642063616c6c696e6720746869732066756e6374696f6e206173207460008301527f6865206164647265737365732067726f7720746f6f206c6172676500000000006020830152604082019050919050565b600060a083016000830151612631600086018261232e565b50602083015184820360208601526126498282612490565b915050604083015184820360408601526126638282612490565b91505060608301516126786060860182612750565b50608083015161268b6080860182612436565b508091505092915050565b600060a0830160008301516126ae600086018261232e565b50602083015184820360208601526126c68282612490565b915050604083015184820360408601526126e08282612490565b91505060608301516126f56060860182612750565b5060808301516127086080860182612436565b508091505092915050565b600060408301600083015184820360008601526127308282612490565b91505060208301516127456020860182612750565b508091505092915050565b61275981612a6f565b82525050565b61276881612a6f565b82525050565b61277781612a79565b82525050565b60006127898284612454565b60208201915081905092915050565b60006127a582848661246b565b91508190509392505050565b60006127bd8284612502565b915081905092915050565b60006020820190506127dd600083018461233d565b92915050565b600060208201905081810360008301526127fd818461234c565b905092915050565b6000602082019050818103600083015261281f81846123c1565b905092915050565b600060208201905061283c6000830184612445565b92915050565b6000602082019050818103600083015261285c81846124c9565b905092915050565b6000602082019050818103600083015261287d81612533565b9050919050565b6000602082019050818103600083015261289d81612573565b9050919050565b600060208201905081810360008301526128bd816125b3565b9050919050565b600060208201905081810360008301526128de8184612696565b905092915050565b60006020820190506128fb600083018461275f565b92915050565b6000602082019050612916600083018461276e565b92915050565b6000604051905081810181811067ffffffffffffffff8211171561294357612942612ad2565b5b8060405250919050565b600067ffffffffffffffff82111561296857612967612ad2565b5b601f19601f8301169050602081019050919050565b6000819050602082019050919050565b6000819050602082019050919050565b600081519050919050565b600081519050919050565b600081519050919050565b6000602082019050919050565b6000602082019050919050565b600082825260208201905092915050565b600082825260208201905092915050565b600082825260208201905092915050565b600082825260208201905092915050565b600081905092915050565b6000612a3282612a4f565b9050919050565b60008115159050919050565b6000819050919050565b600073ffffffffffffffffffffffffffffffffffffffff82169050919050565b6000819050919050565b600060ff82169050919050565b82818337600083830152505050565b60005b83811015612ab3578082015181840152602081019050612a98565b83811115612ac2576000848401525b50505050565b6000819050919050565bfe5b6000601f19601f8301169050919050565b612aee81612a27565b8114612af957600080fd5b50565b612b0581612a6f565b8114612b1057600080fd5b5056fe45524332303a207472616e7366657220746f20746865207a65726f206164647265737345524332303a20617070726f766520746f20746865207a65726f206164647265737345524332303a207472616e736665722066726f6d20746865207a65726f206164647265737345524332303a20617070726f76652066726f6d20746865207a65726f2061646472657373a2646970667358221220024e703a03fdc1ec2b3ba240fccd183c950acd8da46e51c5f83d56661a71242a64736f6c63430007060033",
  "linkReferences": {},
  "deployedLinkReferences": {}
}