{
  "_format": "hh-sol-artifact-1",
  "contractName": "MingCoin",
  "sourceName": "contracts/MingCoin.sol",
  "abi": [
    {
      "inputs": [],
      "stateMutability": "nonpayable",
      "type": "constructor"
    },
    {
      "anonymous": false,
      "inputs": [
        {
          "indexed": true,
          "internalType": "address",
          "name": "owner",
          "type": "address"
        },
        {
          "indexed": true,
          "internalType": "address",
          "name": "spender",
          "type": "address"
        },
        {
          "indexed": false,
          "internalType": "uint256",
          "name": "value",
          "type": "uint256"
        }
      ],
      "name": "Approval",
      "type": "event"
    },
    {
      "anonymous": false,
      "inputs": [
        {
          "indexed": true,
          "internalType": "address",
          "name": "from",
          "type": "address"
        },
        {
          "indexed": true,
          "internalType": "address",
          "name": "to",
          "type": "address"
        },
        {
          "indexed": false,
          "internalType": "uint256",
          "name": "value",
          "type": "uint256"
        }
      ],
      "name": "Transfer",
      "type": "event"
    },
    {
      "inputs": [
        {
          "internalType": "address",
          "name": "owner",
          "type": "address"
        },
        {
          "internalType": "address",
          "name": "spender",
          "type": "address"
        }
      ],
      "name": "allowance",
      "outputs": [
        {
          "internalType": "uint256",
          "name": "",
          "type": "uint256"
        }
      ],
      "stateMutability": "view",
      "type": "function"
    },
    {
      "inputs": [
        {
          "internalType": "address",
          "name": "spender",
          "type": "address"
        },
        {
          "internalType": "uint256",
          "name": "value",
          "type": "uint256"
        }
      ],
      "name": "approve",
      "outputs": [
        {
          "internalType": "bool",
          "name": "",
          "type": "bool"
        }
      ],
      "stateMutability": "nonpayable",
      "type": "function"
    },
    {
      "inputs": [
        {
          "internalType": "address",
          "name": "account",
          "type": "address"
        }
      ],
      "name": "balanceOf",
      "outputs": [
        {
          "internalType": "uint256",
          "name": "",
          "type": "uint256"
        }
      ],
      "stateMutability": "view",
      "type": "function"
    },
    {
      "inputs": [
        {
          "internalType": "string",
          "name": "displayName",
          "type": "string"
        },
        {
          "internalType": "string",
          "name": "recipient",
          "type": "string"
        },
        {
          "internalType": "uint256",
          "name": "amount",
          "type": "uint256"
        }
      ],
      "name": "burn",
      "outputs": [
        {
          "internalType": "address",
          "name": "",
          "type": "address"
        }
      ],
      "stateMutability": "nonpayable",
      "type": "function"
    },
    {
      "inputs": [
        {
          "internalType": "address",
          "name": "addr",
          "type": "address"
        },
        {
          "internalType": "uint256",
          "name": "amount",
          "type": "uint256"
        }
      ],
      "name": "burnToAddress",
      "outputs": [],
      "stateMutability": "nonpayable",
      "type": "function"
    },
    {
      "inputs": [],
      "name": "decimals",
      "outputs": [
        {
          "internalType": "uint8",
          "name": "",
          "type": "uint8"
        }
      ],
      "stateMutability": "view",
      "type": "function"
    },
    {
      "inputs": [
        {
          "internalType": "string",
          "name": "recipient",
          "type": "string"
        }
      ],
      "name": "getAddressByName",
      "outputs": [
        {
          "internalType": "address",
          "name": "",
          "type": "address"
        }
      ],
      "stateMutability": "view",
      "type": "function"
    },
    {
      "inputs": [
        {
          "internalType": "address",
          "name": "addr",
          "type": "address"
        }
      ],
      "name": "getBaseProfile",
      "outputs": [
        {
          "components": [
            {
              "internalType": "address",
              "name": "addr",
              "type": "address"
            },
            {
              "internalType": "string",
              "name": "name",
              "type": "string"
            },
            {
              "internalType": "string",
              "name": "displayName",
              "type": "string"
            },
            {
              "internalType": "uint256",
              "name": "amount",
              "type": "uint256"
            },
            {
              "internalType": "bool",
              "name": "exists",
              "type": "bool"
            }
          ],
          "internalType": "struct MingCoin.Burning",
          "name": "",
          "type": "tuple"
        }
      ],
      "stateMutability": "view",
      "type": "function"
    },
    {
      "inputs": [],
      "name": "getBurningList",
      "outputs": [
        {
          "components": [
            {
              "internalType": "address",
              "name": "addr",
              "type": "address"
            },
            {
              "internalType": "string",
              "name": "name",
              "type": "string"
            },
            {
              "internalType": "string",
              "name": "displayName",
              "type": "string"
            },
            {
              "internalType": "uint256",
              "name": "amount",
              "type": "uint256"
            },
            {
              "internalType": "bool",
              "name": "exists",
              "type": "bool"
            }
          ],
          "internalType": "struct MingCoin.Burning[]",
          "name": "",
          "type": "tuple[]"
        }
      ],
      "stateMutability": "view",
      "type": "function"
    },
    {
      "inputs": [
        {
          "internalType": "address",
          "name": "addr",
          "type": "address"
        }
      ],
      "name": "getNameByAddress",
      "outputs": [
        {
          "internalType": "string",
          "name": "",
          "type": "string"
        }
      ],
      "stateMutability": "view",
      "type": "function"
    },
    {
      "inputs": [
        {
          "internalType": "uint256",
          "name": "_type",
          "type": "uint256"
        },
        {
          "internalType": "address",
          "name": "addr",
          "type": "address"
        }
      ],
      "name": "getProfileList",
      "outputs": [
        {
          "components": [
            {
              "internalType": "string",
              "name": "key",
              "type": "string"
            },
            {
              "internalType": "uint256",
              "name": "value",
              "type": "uint256"
            }
          ],
          "internalType": "struct MingCoin.KV[]",
          "name": "",
          "type": "tuple[]"
        }
      ],
      "stateMutability": "view",
      "type": "function"
    },
    {
      "inputs": [],
      "name": "mint",
      "outputs": [],
      "stateMutability": "nonpayable",
      "type": "function"
    },
    {
      "inputs": [],
      "name": "name",
      "outputs": [
        {
          "internalType": "string",
          "name": "",
          "type": "string"
        }
      ],
      "stateMutability": "view",
      "type": "function"
    },
    {
      "inputs": [],
      "name": "symbol",
      "outputs": [
        {
          "internalType": "string",
          "name": "",
          "type": "string"
        }
      ],
      "stateMutability": "view",
      "type": "function"
    },
    {
      "inputs": [],
      "name": "totalMinted",
      "outputs": [
        {
          "internalType": "uint256",
          "name": "",
          "type": "uint256"
        }
      ],
      "stateMutability": "view",
      "type": "function"
    },
    {
      "inputs": [],
      "name": "totalSupply",
      "outputs": [
        {
          "internalType": "uint256",
          "name": "",
          "type": "uint256"
        }
      ],
      "stateMutability": "view",
      "type": "function"
    },
    {
      "inputs": [
        {
          "internalType": "address",
          "name": "to",
          "type": "address"
        },
        {
          "internalType": "uint256",
          "name": "value",
          "type": "uint256"
        }
      ],
      "name": "transfer",
      "outputs": [
        {
          "internalType": "bool",
          "name": "",
          "type": "bool"
        }
      ],
      "stateMutability": "nonpayable",
      "type": "function"
    },
    {
      "inputs": [
        {
          "internalType": "address",
          "name": "from",
          "type": "address"
        },
        {
          "internalType": "address",
          "name": "to",
          "type": "address"
        },
        {
          "internalType": "uint256",
          "name": "value",
          "type": "uint256"
        }
      ],
      "name": "transferFrom",
      "outputs": [
        {
          "internalType": "bool",
          "name": "",
          "type": "bool"
        }
      ],
      "stateMutability": "nonpayable",
      "type": "function"
    },
    {
      "inputs": [
        {
          "internalType": "uint256",
          "name": "_type",
          "type": "uint256"
        },
        {
          "internalType": "address",
          "name": "addr",
          "type": "address"
        },
        {
          "internalType": "string",
          "name": "url",
          "type": "string"
        },
        {
          "internalType": "uint256",
          "name": "amount",
          "type": "uint256"
        }
      ],
      "name": "updateProfile",
      "outputs": [],
      "stateMutability": "nonpayable",
      "type": "function"
    }
  ],
  "bytecode": "0x60806040526000600b553480156200001657600080fd5b506040518060400160405280601081526020017f4d696e6720436f696e2076302e312e30000000000000000000000000000000008152506040518060400160405280600481526020017f4d494e470000000000000000000000000000000000000000000000000000000081525081600390805190602001906200009b929190620000bd565b508060049080519060200190620000b4929190620000bd565b50505062000173565b828054600181600116156101000203166002900490600052602060002090601f016020900481019282620000f5576000855562000141565b82601f106200011057805160ff191683800117855562000141565b8280016001018555821562000141579182015b828111156200014057825182559160200191906001019062000123565b5b50905062000150919062000154565b5090565b5b808211156200016f57600081600090555060010162000155565b5090565b612daf80620001836000396000f3fe608060405234801561001057600080fd5b50600436106101215760003560e01c80637fd2ca13116100ad578063a2309ff811610071578063a2309ff81461031e578063a73154cd1461033c578063a9059cbb1461036c578063b01b51581461039c578063dd62ed3e146103cc57610121565b80637fd2ca131461026857806380a3c6331461028457806395d89b41146102b4578063995a38f6146102d25780639a65ddec146102ee57610121565b80631c783c7b116100f45780631c783c7b1461019c57806323b872dd146101ba578063313ce567146101ea57806370a08231146102085780637c80bb4f1461023857610121565b806306fdde0314610126578063095ea7b3146101445780631249c58b1461017457806318160ddd1461017e575b600080fd5b61012e6103fc565b60405161013b91906129fa565b60405180910390f35b61015e600480360381019061015991906122c7565b61049e565b60405161016b91906129df565b60405180910390f35b61017c6104c1565b005b61018661053e565b6040516101939190612abe565b60405180910390f35b6101a4610548565b6040516101b1919061299b565b60405180910390f35b6101d460048036038101906101cf9190612278565b61086b565b6040516101e191906129df565b60405180910390f35b6101f261089a565b6040516101ff9190612ad9565b60405180910390f35b610222600480360381019061021d9190612213565b6108a3565b60405161022f9190612abe565b60405180910390f35b610252600480360381019061024d9190612213565b6108eb565b60405161025f91906129fa565b60405180910390f35b610282600480360381019061027d91906122c7565b6109cf565b005b61029e60048036038101906102999190612348565b610ac4565b6040516102ab9190612980565b60405180910390f35b6102bc610ddf565b6040516102c991906129fa565b60405180910390f35b6102ec60048036038101906102e79190612403565b610e81565b005b61030860048036038101906103039190612303565b61111a565b6040516103159190612980565b60405180910390f35b6103266111f5565b6040516103339190612abe565b60405180910390f35b61035660048036038101906103519190612213565b6111ff565b6040516103639190612a9c565b60405180910390f35b610386600480360381019061038191906122c7565b611417565b60405161039391906129df565b60405180910390f35b6103b660048036038101906103b191906123c7565b61143a565b6040516103c391906129bd565b60405180910390f35b6103e660048036038101906103e1919061223c565b6116f6565b6040516103f39190612abe565b60405180910390f35b606060038054600181600116156101000203166002900480601f0160208091040260200160405190810160405280929190818152602001828054600181600116156101000203166002900480156104945780601f1061046957610100808354040283529160200191610494565b820191906000526020600020905b81548152906001019060200180831161047757829003601f168201915b5050505050905090565b6000806104a961177d565b90506104b6818585611785565b600191505092915050565b6c059c13d3eac3d0188a0af00000600b5410610512576040517f08c379a000000000000000000000000000000000000000000000000000000000815260040161050990612a1c565b60405180910390fd5b6000695e1d61b13e3b057dc000905061052b3382611797565b80600b6000828254019250508190555050565b6000600254905090565b6060612710600a805490501115610594576040517f08c379a000000000000000000000000000000000000000000000000000000000815260040161058b90612a7c565b60405180910390fd5b6000600a8054905067ffffffffffffffff811180156105b257600080fd5b506040519080825280602002602001820160405280156105ec57816020015b6105d961202b565b8152602001906001900390816105d15790505b50905060005b600a805490508110156108635760086000600a838154811061061057fe5b9060005260206000200160009054906101000a900473ffffffffffffffffffffffffffffffffffffffff1673ffffffffffffffffffffffffffffffffffffffff1673ffffffffffffffffffffffffffffffffffffffff1681526020019081526020016000206040518060a00160405290816000820160009054906101000a900473ffffffffffffffffffffffffffffffffffffffff1673ffffffffffffffffffffffffffffffffffffffff1673ffffffffffffffffffffffffffffffffffffffff168152602001600182018054600181600116156101000203166002900480601f01602080910402602001604051908101604052809291908181526020018280546001816001161561010002031660029004801561076f5780601f106107445761010080835404028352916020019161076f565b820191906000526020600020905b81548152906001019060200180831161075257829003601f168201915b50505050508152602001600282018054600181600116156101000203166002900480601f0160208091040260200160405190810160405280929190818152602001828054600181600116156101000203166002900480156108115780601f106107e657610100808354040283529160200191610811565b820191906000526020600020905b8154815290600101906020018083116107f457829003601f168201915b50505050508152602001600382015481526020016004820160009054906101000a900460ff16151515158152505082828151811061084b57fe5b602002602001018190525080806001019150506105f2565b508091505090565b60008061087661177d565b905061088385828561184a565b61088e858585611914565b60019150509392505050565b60006012905090565b60008060008373ffffffffffffffffffffffffffffffffffffffff1673ffffffffffffffffffffffffffffffffffffffff168152602001908152602001600020549050919050565b6060600860008373ffffffffffffffffffffffffffffffffffffffff1673ffffffffffffffffffffffffffffffffffffffff1681526020019081526020016000206001018054600181600116156101000203166002900480601f0160208091040260200160405190810160405280929190818152602001828054600181600116156101000203166002900480156109c35780601f10610998576101008083540402835291602001916109c3565b820191906000526020600020905b8154815290600101906020018083116109a657829003601f168201915b50505050509050919050565b60011515600860008473ffffffffffffffffffffffffffffffffffffffff1673ffffffffffffffffffffffffffffffffffffffff16815260200190815260200160002060040160009054906101000a900460ff16151514610a65576040517f08c379a0000000000000000000000000000000000000000000000000000000008152600401610a5c90612a3c565b60405180910390fd5b610a6f8282611417565b5080600860008473ffffffffffffffffffffffffffffffffffffffff1673ffffffffffffffffffffffffffffffffffffffff168152602001908152602001600020600301600082825401925050819055505050565b600080610ad084611a30565b9050610adc8184611417565b5060001515600860008373ffffffffffffffffffffffffffffffffffffffff1673ffffffffffffffffffffffffffffffffffffffff16815260200190815260200160002060040160009054906101000a900460ff1615151415610d27576001600860008373ffffffffffffffffffffffffffffffffffffffff1673ffffffffffffffffffffffffffffffffffffffff16815260200190815260200160002060040160006101000a81548160ff02191690831515021790555084600860008373ffffffffffffffffffffffffffffffffffffffff1673ffffffffffffffffffffffffffffffffffffffff1681526020019081526020016000206002019080519060200190610bea929190612072565b5083600860008373ffffffffffffffffffffffffffffffffffffffff1673ffffffffffffffffffffffffffffffffffffffff1681526020019081526020016000206001019080519060200190610c41929190612072565b5080600860008373ffffffffffffffffffffffffffffffffffffffff1673ffffffffffffffffffffffffffffffffffffffff16815260200190815260200160002060000160006101000a81548173ffffffffffffffffffffffffffffffffffffffff021916908373ffffffffffffffffffffffffffffffffffffffff160217905550600a819080600181540180825580915050600190039060005260206000200160009091909190916101000a81548173ffffffffffffffffffffffffffffffffffffffff021916908373ffffffffffffffffffffffffffffffffffffffff1602179055505b82600860008373ffffffffffffffffffffffffffffffffffffffff1673ffffffffffffffffffffffffffffffffffffffff1681526020019081526020016000206003016000828254019250508190555080600985604051610d889190612969565b908152602001604051809103902060006101000a81548173ffffffffffffffffffffffffffffffffffffffff021916908373ffffffffffffffffffffffffffffffffffffffff160217905550809150509392505050565b606060048054600181600116156101000203166002900480601f016020809104026020016040519081016040528092919081815260200182805460018160011615610100020316600290048015610e775780601f10610e4c57610100808354040283529160200191610e77565b820191906000526020600020905b815481529060010190602001808311610e5a57829003601f168201915b5050505050905090565b60011515600860008573ffffffffffffffffffffffffffffffffffffffff1673ffffffffffffffffffffffffffffffffffffffff16815260200190815260200160002060040160009054906101000a900460ff16151514610f17576040517f08c379a0000000000000000000000000000000000000000000000000000000008152600401610f0e90612a3c565b60405180910390fd5b60018410158015610f29575060038411155b610f68576040517f08c379a0000000000000000000000000000000000000000000000000000000008152600401610f5f90612a5c565b60405180910390fd5b60006001851415610fb957600560008573ffffffffffffffffffffffffffffffffffffffff1673ffffffffffffffffffffffffffffffffffffffff1681526020019081526020016000209050611055565b600285141561100857600660008573ffffffffffffffffffffffffffffffffffffffff1673ffffffffffffffffffffffffffffffffffffffff1681526020019081526020016000209050611054565b600385141561105357600760008573ffffffffffffffffffffffffffffffffffffffff1673ffffffffffffffffffffffffffffffffffffffff16815260200190815260200160002090505b5b5b600082111561106a576110688483611417565b505b6000816000018460405161107e9190612969565b908152602001604051809103902090508060010160009054906101000a900460ff166111005760018160010160006101000a81548160ff02191690831515021790555081600101849080600181540180825580915050600190039060005260206000200160009091909190915090805190602001906110fe929190612072565b505b828160000160008282540192505081905550505050505050565b6000806009848460405161112f929190612950565b908152602001604051809103902060009054906101000a900473ffffffffffffffffffffffffffffffffffffffff169050600073ffffffffffffffffffffffffffffffffffffffff168173ffffffffffffffffffffffffffffffffffffffff1614156111ea576111e284848080601f016020809104026020016040519081016040528093929190818152602001838380828437600081840152601f19601f82011690508083019250505050505050611a30565b9150506111ef565b809150505b92915050565b6000600b54905090565b61120761202b565b600860008373ffffffffffffffffffffffffffffffffffffffff1673ffffffffffffffffffffffffffffffffffffffff1681526020019081526020016000206040518060a00160405290816000820160009054906101000a900473ffffffffffffffffffffffffffffffffffffffff1673ffffffffffffffffffffffffffffffffffffffff1673ffffffffffffffffffffffffffffffffffffffff168152602001600182018054600181600116156101000203166002900480601f0160208091040260200160405190810160405280929190818152602001828054600181600116156101000203166002900480156113405780601f1061131557610100808354040283529160200191611340565b820191906000526020600020905b81548152906001019060200180831161132357829003601f168201915b50505050508152602001600282018054600181600116156101000203166002900480601f0160208091040260200160405190810160405280929190818152602001828054600181600116156101000203166002900480156113e25780601f106113b7576101008083540402835291602001916113e2565b820191906000526020600020905b8154815290600101906020018083116113c557829003601f168201915b50505050508152602001600382015481526020016004820160009054906101000a900460ff1615151515815250509050919050565b60008061142261177d565b905061142f818585611914565b600191505092915050565b60606000600184141561148d57600560008473ffffffffffffffffffffffffffffffffffffffff1673ffffffffffffffffffffffffffffffffffffffff1681526020019081526020016000209050611568565b60028414156114dc57600660008473ffffffffffffffffffffffffffffffffffffffff1673ffffffffffffffffffffffffffffffffffffffff1681526020019081526020016000209050611567565b600384141561152b57600760008473ffffffffffffffffffffffffffffffffffffffff1673ffffffffffffffffffffffffffffffffffffffff1681526020019081526020016000209050611566565b6040517f08c379a000000000000000000000000000000000000000000000000000000000815260040161155d90612a5c565b60405180910390fd5b5b5b6000816001018054905067ffffffffffffffff8111801561158857600080fd5b506040519080825280602002602001820160405280156115c257816020015b6115af612100565b8152602001906001900390816115a75790505b50905060005b82600101805490508110156116ea5760008360010182815481106115e857fe5b906000526020600020018054600181600116156101000203166002900480601f0160208091040260200160405190810160405280929190818152602001828054600181600116156101000203166002900480156116865780601f1061165b57610100808354040283529160200191611686565b820191906000526020600020905b81548152906001019060200180831161166957829003601f168201915b50505050509050604051806040016040528082815260200185600001836040516116b09190612969565b9081526020016040518091039020600001548152508383815181106116d157fe5b60200260200101819052505080806001019150506115c8565b50809250505092915050565b6000600160008473ffffffffffffffffffffffffffffffffffffffff1673ffffffffffffffffffffffffffffffffffffffff16815260200190815260200160002060008373ffffffffffffffffffffffffffffffffffffffff1673ffffffffffffffffffffffffffffffffffffffff16815260200190815260200160002054905092915050565b600033905090565b6117928383836001611bd3565b505050565b600073ffffffffffffffffffffffffffffffffffffffff168273ffffffffffffffffffffffffffffffffffffffff16141561183a576040517f08c379a000000000000000000000000000000000000000000000000000000000815260040180806020018281038252601f8152602001807f45524332303a206d696e7420746f20746865207a65726f20616464726573730081525060200191505060405180910390fd5b61184660008383611dd2565b5050565b600061185684846116f6565b90507fffffffffffffffffffffffffffffffffffffffffffffffffffffffffffffffff811461190e57818110156118fe57818110156118fd576040517f08c379a000000000000000000000000000000000000000000000000000000000815260040180806020018281038252601a8152602001807f4552433230496e73756666696369656e74416c6c6f77616e636500000000000081525060200191505060405180910390fd5b5b61190d84848484036000611bd3565b5b50505050565b600073ffffffffffffffffffffffffffffffffffffffff168373ffffffffffffffffffffffffffffffffffffffff16141561199a576040517f08c379a0000000000000000000000000000000000000000000000000000000008152600401808060200182810382526025815260200180612d316025913960400191505060405180910390fd5b600073ffffffffffffffffffffffffffffffffffffffff168273ffffffffffffffffffffffffffffffffffffffff161415611a20576040517f08c379a0000000000000000000000000000000000000000000000000000000008152600401808060200182810382526023815260200180612cec6023913960400191505060405180910390fd5b611a2b838383611dd2565b505050565b60008082604051602001611a449190612969565b604051602081830303815290604052805190602001209050600081604051602001611a6f9190612935565b60405160208183030381529060405290506000601467ffffffffffffffff81118015611a9a57600080fd5b506040519080825280601f01601f191660200182016040528015611acd5781602001600182028036833780820191505090505b5090506000805b6004811015611b4c577f4400000000000000000000000000000000000000000000000000000000000000838380600101945081518110611b1057fe5b60200101907effffffffffffffffffffffffffffffffffffffffffffffffffffffffffffff1916908160001a9053508080600101915050611ad4565b5060005b6014821015611bbe57838181518110611b6557fe5b602001015160f81c60f81b838380600101945081518110611b8257fe5b60200101907effffffffffffffffffffffffffffffffffffffffffffffffffffffffffffff1916908160001a9053508080600101915050611b50565b50611bc88261201d565b945050505050919050565b600073ffffffffffffffffffffffffffffffffffffffff168473ffffffffffffffffffffffffffffffffffffffff161415611c59576040517f08c379a0000000000000000000000000000000000000000000000000000000008152600401808060200182810382526024815260200180612d566024913960400191505060405180910390fd5b600073ffffffffffffffffffffffffffffffffffffffff168373ffffffffffffffffffffffffffffffffffffffff161415611cdf576040517f08c379a0000000000000000000000000000000000000000000000000000000008152600401808060200182810382526022815260200180612d0f6022913960400191505060405180910390fd5b81600160008673ffffffffffffffffffffffffffffffffffffffff1673ffffffffffffffffffffffffffffffffffffffff16815260200190815260200160002060008573ffffffffffffffffffffffffffffffffffffffff1673ffffffffffffffffffffffffffffffffffffffff168152602001908152602001600020819055508015611dcc578273ffffffffffffffffffffffffffffffffffffffff168473ffffffffffffffffffffffffffffffffffffffff167f8c5be1e5ebec7d5bd14f71427d1e84f3dd0314c0f7b2291e5b200ac8c7c3b925846040518082815260200191505060405180910390a35b50505050565b600073ffffffffffffffffffffffffffffffffffffffff168373ffffffffffffffffffffffffffffffffffffffff161415611e1c5780600260008282540192505081905550611f1c565b60008060008573ffffffffffffffffffffffffffffffffffffffff1673ffffffffffffffffffffffffffffffffffffffff16815260200190815260200160002054905081811015611ed5576040517f08c379a00000000000000000000000000000000000000000000000000000000081526004018080602001828103825260148152602001807f696e73756666696369656e742062616c616e636500000000000000000000000081525060200191505060405180910390fd5b8181036000808673ffffffffffffffffffffffffffffffffffffffff1673ffffffffffffffffffffffffffffffffffffffff16815260200190815260200160002081905550505b600073ffffffffffffffffffffffffffffffffffffffff168273ffffffffffffffffffffffffffffffffffffffff161415611f665780600260008282540392505081905550611fb3565b806000808473ffffffffffffffffffffffffffffffffffffffff1673ffffffffffffffffffffffffffffffffffffffff168152602001908152602001600020600082825401925050819055505b8173ffffffffffffffffffffffffffffffffffffffff168373ffffffffffffffffffffffffffffffffffffffff167fddf252ad1be2c89b69c2b068fc378daa952ba7f163c4a11628f55a4df523b3ef836040518082815260200191505060405180910390a3505050565b600060148201519050919050565b6040518060a00160405280600073ffffffffffffffffffffffffffffffffffffffff1681526020016060815260200160608152602001600081526020016000151581525090565b828054600181600116156101000203166002900490600052602060002090601f0160209004810192826120a857600085556120ef565b82601f106120c157805160ff19168380011785556120ef565b828001600101855582156120ef579182015b828111156120ee5782518255916020019190600101906120d3565b5b5090506120fc919061211a565b5090565b604051806040016040528060608152602001600081525090565b5b8082111561213357600081600090555060010161211b565b5090565b600061214a61214584612b25565b612af4565b90508281526020810184848401111561216257600080fd5b61216d848285612c5e565b509392505050565b60008135905061218481612cbd565b92915050565b60008083601f84011261219c57600080fd5b8235905067ffffffffffffffff8111156121b557600080fd5b6020830191508360018202830111156121cd57600080fd5b9250929050565b600082601f8301126121e557600080fd5b81356121f5848260208601612137565b91505092915050565b60008135905061220d81612cd4565b92915050565b60006020828403121561222557600080fd5b600061223384828501612175565b91505092915050565b6000806040838503121561224f57600080fd5b600061225d85828601612175565b925050602061226e85828601612175565b9150509250929050565b60008060006060848603121561228d57600080fd5b600061229b86828701612175565b93505060206122ac86828701612175565b92505060406122bd868287016121fe565b9150509250925092565b600080604083850312156122da57600080fd5b60006122e885828601612175565b92505060206122f9858286016121fe565b9150509250929050565b6000806020838503121561231657600080fd5b600083013567ffffffffffffffff81111561233057600080fd5b61233c8582860161218a565b92509250509250929050565b60008060006060848603121561235d57600080fd5b600084013567ffffffffffffffff81111561237757600080fd5b612383868287016121d4565b935050602084013567ffffffffffffffff8111156123a057600080fd5b6123ac868287016121d4565b92505060406123bd868287016121fe565b9150509250925092565b600080604083850312156123da57600080fd5b60006123e8858286016121fe565b92505060206123f985828601612175565b9150509250929050565b6000806000806080858703121561241957600080fd5b6000612427878288016121fe565b945050602061243887828801612175565b935050604085013567ffffffffffffffff81111561245557600080fd5b612461878288016121d4565b9250506060612472878288016121fe565b91505092959194509250565b600061248a83836127d1565b905092915050565b600061249e83836128cb565b905092915050565b6124af81612bff565b82525050565b6124be81612bff565b82525050565b60006124cf82612b75565b6124d98185612bb0565b9350836020820285016124eb85612b55565b8060005b858110156125275784840389528151612508858261247e565b945061251383612b96565b925060208a019950506001810190506124ef565b50829750879550505050505092915050565b600061254482612b80565b61254e8185612bc1565b93508360208202850161256085612b65565b8060005b8581101561259c578484038952815161257d8582612492565b945061258883612ba3565b925060208a01995050600181019050612564565b50829750879550505050505092915050565b6125b781612c11565b82525050565b6125c681612c11565b82525050565b6125dd6125d882612c1d565b612ca0565b82525050565b60006125ef8385612bf4565b93506125fc838584612c5e565b82840190509392505050565b600061261382612b8b565b61261d8185612bd2565b935061262d818560208601612c6d565b61263681612cac565b840191505092915050565b600061264c82612b8b565b6126568185612be3565b9350612666818560208601612c6d565b61266f81612cac565b840191505092915050565b600061268582612b8b565b61268f8185612bf4565b935061269f818560208601612c6d565b80840191505092915050565b60006126b8600a83612be3565b91507f4d6178206d696e746564000000000000000000000000000000000000000000006000830152602082019050919050565b60006126f8601283612be3565b91507f41646472657373206e6f742065786973747300000000000000000000000000006000830152602082019050919050565b6000612738600c83612be3565b91507f496e76616c6964207479706500000000000000000000000000000000000000006000830152602082019050919050565b6000612778603b83612be3565b91507f41766f69642063616c6c696e6720746869732066756e6374696f6e206173207460008301527f6865206164647265737365732067726f7720746f6f206c6172676500000000006020830152604082019050919050565b600060a0830160008301516127e960008601826124a6565b50602083015184820360208601526128018282612608565b9150506040830151848203604086015261281b8282612608565b91505060608301516128306060860182612908565b50608083015161284360808601826125ae565b508091505092915050565b600060a08301600083015161286660008601826124a6565b506020830151848203602086015261287e8282612608565b915050604083015184820360408601526128988282612608565b91505060608301516128ad6060860182612908565b5060808301516128c060808601826125ae565b508091505092915050565b600060408301600083015184820360008601526128e88282612608565b91505060208301516128fd6020860182612908565b508091505092915050565b61291181612c47565b82525050565b61292081612c47565b82525050565b61292f81612c51565b82525050565b600061294182846125cc565b60208201915081905092915050565b600061295d8284866125e3565b91508190509392505050565b6000612975828461267a565b915081905092915050565b600060208201905061299560008301846124b5565b92915050565b600060208201905081810360008301526129b581846124c4565b905092915050565b600060208201905081810360008301526129d78184612539565b905092915050565b60006020820190506129f460008301846125bd565b92915050565b60006020820190508181036000830152612a148184612641565b905092915050565b60006020820190508181036000830152612a35816126ab565b9050919050565b60006020820190508181036000830152612a55816126eb565b9050919050565b60006020820190508181036000830152612a758161272b565b9050919050565b60006020820190508181036000830152612a958161276b565b9050919050565b60006020820190508181036000830152612ab6818461284e565b905092915050565b6000602082019050612ad36000830184612917565b92915050565b6000602082019050612aee6000830184612926565b92915050565b6000604051905081810181811067ffffffffffffffff82111715612b1b57612b1a612caa565b5b8060405250919050565b600067ffffffffffffffff821115612b4057612b3f612caa565b5b601f19601f8301169050602081019050919050565b6000819050602082019050919050565b6000819050602082019050919050565b600081519050919050565b600081519050919050565b600081519050919050565b6000602082019050919050565b6000602082019050919050565b600082825260208201905092915050565b600082825260208201905092915050565b600082825260208201905092915050565b600082825260208201905092915050565b600081905092915050565b6000612c0a82612c27565b9050919050565b60008115159050919050565b6000819050919050565b600073ffffffffffffffffffffffffffffffffffffffff82169050919050565b6000819050919050565b600060ff82169050919050565b82818337600083830152505050565b60005b83811015612c8b578082015181840152602081019050612c70565b83811115612c9a576000848401525b50505050565b6000819050919050565bfe5b6000601f19601f8301169050919050565b612cc681612bff565b8114612cd157600080fd5b50565b612cdd81612c47565b8114612ce857600080fd5b5056fe45524332303a207472616e7366657220746f20746865207a65726f206164647265737345524332303a20617070726f766520746f20746865207a65726f206164647265737345524332303a207472616e736665722066726f6d20746865207a65726f206164647265737345524332303a20617070726f76652066726f6d20746865207a65726f2061646472657373a264697066735822122052cb7a8c84666be66a9a65b77e11f6062df03ba39317f30d5a08ebeaa204740764736f6c63430007060033",
  "linkReferences": {},
  "deployedLinkReferences": {}
}