{
  "_format": "hh-sol-artifact-1",
  "contractName": "MingCoin",
  "sourceName": "contracts/MingCoin.sol",
  "abi": [
    {
      "inputs": [],
      "stateMutability": "nonpayable",
      "type": "constructor"
    },
    {
      "anonymous": false,
      "inputs": [
        {
          "indexed": true,
          "internalType": "address",
          "name": "owner",
          "type": "address"
        },
        {
          "indexed": true,
          "internalType": "address",
          "name": "spender",
          "type": "address"
        },
        {
          "indexed": false,
          "internalType": "uint256",
          "name": "value",
          "type": "uint256"
        }
      ],
      "name": "Approval",
      "type": "event"
    },
    {
      "anonymous": false,
      "inputs": [
        {
          "indexed": true,
          "internalType": "address",
          "name": "from",
          "type": "address"
        },
        {
          "indexed": true,
          "internalType": "address",
          "name": "to",
          "type": "address"
        },
        {
          "indexed": false,
          "internalType": "uint256",
          "name": "value",
          "type": "uint256"
        }
      ],
      "name": "Transfer",
      "type": "event"
    },
    {
      "inputs": [
        {
          "internalType": "address",
          "name": "owner",
          "type": "address"
        },
        {
          "internalType": "address",
          "name": "spender",
          "type": "address"
        }
      ],
      "name": "allowance",
      "outputs": [
        {
          "internalType": "uint256",
          "name": "",
          "type": "uint256"
        }
      ],
      "stateMutability": "view",
      "type": "function"
    },
    {
      "inputs": [
        {
          "internalType": "address",
          "name": "spender",
          "type": "address"
        },
        {
          "internalType": "uint256",
          "name": "value",
          "type": "uint256"
        }
      ],
      "name": "approve",
      "outputs": [
        {
          "internalType": "bool",
          "name": "",
          "type": "bool"
        }
      ],
      "stateMutability": "nonpayable",
      "type": "function"
    },
    {
      "inputs": [
        {
          "internalType": "address",
          "name": "account",
          "type": "address"
        }
      ],
      "name": "balanceOf",
      "outputs": [
        {
          "internalType": "uint256",
          "name": "",
          "type": "uint256"
        }
      ],
      "stateMutability": "view",
      "type": "function"
    },
    {
      "inputs": [],
      "name": "balanceToMint",
      "outputs": [
        {
          "internalType": "uint256",
          "name": "",
          "type": "uint256"
        }
      ],
      "stateMutability": "view",
      "type": "function"
    },
    {
      "inputs": [],
      "name": "batchMint",
      "outputs": [],
      "stateMutability": "payable",
      "type": "function"
    },
    {
      "inputs": [
        {
          "internalType": "string",
          "name": "recipient",
          "type": "string"
        },
        {
          "internalType": "uint256",
          "name": "amount",
          "type": "uint256"
        },
        {
          "internalType": "string",
          "name": "message",
          "type": "string"
        }
      ],
      "name": "burn",
      "outputs": [
        {
          "internalType": "address",
          "name": "",
          "type": "address"
        }
      ],
      "stateMutability": "nonpayable",
      "type": "function"
    },
    {
      "inputs": [
        {
          "internalType": "address",
          "name": "addr",
          "type": "address"
        },
        {
          "internalType": "uint256",
          "name": "amount",
          "type": "uint256"
        },
        {
          "internalType": "string",
          "name": "message",
          "type": "string"
        }
      ],
      "name": "burnToAddress",
      "outputs": [],
      "stateMutability": "nonpayable",
      "type": "function"
    },
    {
      "inputs": [],
      "name": "decimals",
      "outputs": [
        {
          "internalType": "uint8",
          "name": "",
          "type": "uint8"
        }
      ],
      "stateMutability": "view",
      "type": "function"
    },
    {
      "inputs": [
        {
          "internalType": "string",
          "name": "recipient",
          "type": "string"
        }
      ],
      "name": "getAddressByName",
      "outputs": [
        {
          "internalType": "address",
          "name": "",
          "type": "address"
        }
      ],
      "stateMutability": "view",
      "type": "function"
    },
    {
      "inputs": [
        {
          "internalType": "address",
          "name": "addr",
          "type": "address"
        }
      ],
      "name": "getBaseProfile",
      "outputs": [
        {
          "components": [
            {
              "internalType": "address",
              "name": "addr",
              "type": "address"
            },
            {
              "internalType": "string",
              "name": "name",
              "type": "string"
            },
            {
              "internalType": "uint256",
              "name": "amount",
              "type": "uint256"
            },
            {
              "internalType": "bool",
              "name": "exists",
              "type": "bool"
            }
          ],
          "internalType": "struct MingCoin.Burning",
          "name": "",
          "type": "tuple"
        }
      ],
      "stateMutability": "view",
      "type": "function"
    },
    {
      "inputs": [
        {
          "internalType": "address",
          "name": "addr",
          "type": "address"
        }
      ],
      "name": "getBurningHistory",
      "outputs": [
        {
          "components": [
            {
              "internalType": "address",
              "name": "from",
              "type": "address"
            },
            {
              "internalType": "uint256",
              "name": "amount",
              "type": "uint256"
            },
            {
              "internalType": "string",
              "name": "message",
              "type": "string"
            }
          ],
          "internalType": "struct MingCoin.BurningInfo[]",
          "name": "",
          "type": "tuple[]"
        }
      ],
      "stateMutability": "view",
      "type": "function"
    },
    {
      "inputs": [],
      "name": "getBurningList",
      "outputs": [
        {
          "components": [
            {
              "internalType": "address",
              "name": "addr",
              "type": "address"
            },
            {
              "internalType": "string",
              "name": "name",
              "type": "string"
            },
            {
              "internalType": "uint256",
              "name": "amount",
              "type": "uint256"
            },
            {
              "internalType": "bool",
              "name": "exists",
              "type": "bool"
            }
          ],
          "internalType": "struct MingCoin.Burning[]",
          "name": "",
          "type": "tuple[]"
        }
      ],
      "stateMutability": "view",
      "type": "function"
    },
    {
      "inputs": [
        {
          "internalType": "address",
          "name": "addr",
          "type": "address"
        }
      ],
      "name": "getNameByAddress",
      "outputs": [
        {
          "internalType": "string",
          "name": "",
          "type": "string"
        }
      ],
      "stateMutability": "view",
      "type": "function"
    },
    {
      "inputs": [
        {
          "internalType": "uint256",
          "name": "_type",
          "type": "uint256"
        },
        {
          "internalType": "address",
          "name": "addr",
          "type": "address"
        }
      ],
      "name": "getProfileList",
      "outputs": [
        {
          "components": [
            {
              "internalType": "string",
              "name": "key",
              "type": "string"
            },
            {
              "internalType": "uint256",
              "name": "value",
              "type": "uint256"
            }
          ],
          "internalType": "struct MingCoin.KV[]",
          "name": "",
          "type": "tuple[]"
        }
      ],
      "stateMutability": "view",
      "type": "function"
    },
    {
      "inputs": [],
      "name": "isMintOver",
      "outputs": [
        {
          "internalType": "bool",
          "name": "",
          "type": "bool"
        }
      ],
      "stateMutability": "view",
      "type": "function"
    },
    {
      "inputs": [],
      "name": "maxSupply",
      "outputs": [
        {
          "internalType": "uint256",
          "name": "",
          "type": "uint256"
        }
      ],
      "stateMutability": "pure",
      "type": "function"
    },
    {
      "inputs": [],
      "name": "mint",
      "outputs": [
        {
          "internalType": "uint256",
          "name": "",
          "type": "uint256"
        }
      ],
      "stateMutability": "nonpayable",
      "type": "function"
    },
    {
      "inputs": [],
      "name": "name",
      "outputs": [
        {
          "internalType": "string",
          "name": "",
          "type": "string"
        }
      ],
      "stateMutability": "view",
      "type": "function"
    },
    {
      "inputs": [],
      "name": "symbol",
      "outputs": [
        {
          "internalType": "string",
          "name": "",
          "type": "string"
        }
      ],
      "stateMutability": "view",
      "type": "function"
    },
    {
      "inputs": [],
      "name": "totalMinted",
      "outputs": [
        {
          "internalType": "uint256",
          "name": "",
          "type": "uint256"
        }
      ],
      "stateMutability": "view",
      "type": "function"
    },
    {
      "inputs": [],
      "name": "totalSupply",
      "outputs": [
        {
          "internalType": "uint256",
          "name": "",
          "type": "uint256"
        }
      ],
      "stateMutability": "view",
      "type": "function"
    },
    {
      "inputs": [
        {
          "internalType": "address",
          "name": "to",
          "type": "address"
        },
        {
          "internalType": "uint256",
          "name": "value",
          "type": "uint256"
        }
      ],
      "name": "transfer",
      "outputs": [
        {
          "internalType": "bool",
          "name": "",
          "type": "bool"
        }
      ],
      "stateMutability": "nonpayable",
      "type": "function"
    },
    {
      "inputs": [
        {
          "internalType": "address",
          "name": "from",
          "type": "address"
        },
        {
          "internalType": "address",
          "name": "to",
          "type": "address"
        },
        {
          "internalType": "uint256",
          "name": "value",
          "type": "uint256"
        }
      ],
      "name": "transferFrom",
      "outputs": [
        {
          "internalType": "bool",
          "name": "",
          "type": "bool"
        }
      ],
      "stateMutability": "nonpayable",
      "type": "function"
    },
    {
      "inputs": [
        {
          "internalType": "uint256",
          "name": "_type",
          "type": "uint256"
        },
        {
          "internalType": "address",
          "name": "addr",
          "type": "address"
        },
        {
          "internalType": "string",
          "name": "url",
          "type": "string"
        },
        {
          "internalType": "uint256",
          "name": "amount",
          "type": "uint256"
        }
      ],
      "name": "updateProfile",
      "outputs": [],
      "stateMutability": "nonpayable",
      "type": "function"
    }
  ],
  "bytecode": "0x60806040526000600c553480156200001657600080fd5b506040518060400160405280601081526020017f4d696e6720436f696e2076302e312e33000000000000000000000000000000008152506040518060400160405280600481526020017f4d494e470000000000000000000000000000000000000000000000000000000081525081600390805190602001906200009b92919062000112565b508060049080519060200190620000b492919062000112565b50505073b4fbf271143f4fbf7b91a5ded31805e42b2208d6600d60006101000a81548173ffffffffffffffffffffffffffffffffffffffff021916908373ffffffffffffffffffffffffffffffffffffffff160217905550620001c8565b828054600181600116156101000203166002900490600052602060002090601f0160209004810192826200014a576000855562000196565b82601f106200016557805160ff191683800117855562000196565b8280016001018555821562000196579182015b828111156200019557825182559160200191906001019062000178565b5b509050620001a59190620001a9565b5090565b5b80821115620001c4576000816000905550600101620001aa565b5090565b61379c80620001d86000396000f3fe60806040526004361061014b5760003560e01c806389791cb6116100b6578063a9059cbb1161006f578063a9059cbb146104d0578063b01b51581461050d578063ccfba8811461054a578063d5abeb0114610587578063dd62ed3e146105b2578063e3424c93146105ef5761014b565b806389791cb6146103ac57806395d89b41146103d7578063995a38f6146104025780639a65ddec1461042b578063a2309ff814610468578063a73154cd146104935761014b565b80631c783c7b116101085780631c783c7b1461027657806323b872dd146102a1578063313ce567146102de57806370a0823114610309578063743d6152146103465780637c80bb4f1461036f5761014b565b806306fdde0314610150578063095ea7b31461017b5780630b59c43e146101b85780631249c58b146101e357806313a768e11461020e57806318160ddd1461024b575b600080fd5b34801561015c57600080fd5b506101656105f9565b6040516101729190613337565b60405180910390f35b34801561018757600080fd5b506101a2600480360381019061019d919061299b565b61069b565b6040516101af919061331c565b60405180910390f35b3480156101c457600080fd5b506101cd6106be565b6040516101da919061331c565b60405180910390f35b3480156101ef57600080fd5b506101f86106d8565b604051610205919061345b565b60405180910390f35b34801561021a57600080fd5b5061023560048036038101906102309190612aac565b6107ae565b6040516102429190613272565b60405180910390f35b34801561025757600080fd5b506102606109c5565b60405161026d919061345b565b60405180910390f35b34801561028257600080fd5b5061028b6109cf565b60405161029891906132d8565b60405180910390f35b3480156102ad57600080fd5b506102c860048036038101906102c3919061294c565b610c50565b6040516102d5919061331c565b60405180910390f35b3480156102ea57600080fd5b506102f3610c7f565b6040516103009190613476565b60405180910390f35b34801561031557600080fd5b50610330600480360381019061032b91906128e7565b610c88565b60405161033d919061345b565b60405180910390f35b34801561035257600080fd5b5061036d600480360381019061036891906129d7565b610cd0565b005b34801561037b57600080fd5b50610396600480360381019061039191906128e7565b610d76565b6040516103a39190613337565b60405180910390f35b3480156103b857600080fd5b506103c1610e5a565b6040516103ce919061345b565b60405180910390f35b3480156103e357600080fd5b506103ec610e73565b6040516103f99190613337565b60405180910390f35b34801561040e57600080fd5b5061042960048036038101906104249190612b90565b610f15565b005b34801561043757600080fd5b50610452600480360381019061044d9190612a67565b6111ae565b60405161045f9190613272565b60405180910390f35b34801561047457600080fd5b5061047d611289565b60405161048a919061345b565b60405180910390f35b34801561049f57600080fd5b506104ba60048036038101906104b591906128e7565b611293565b6040516104c79190613439565b60405180910390f35b3480156104dc57600080fd5b506104f760048036038101906104f2919061299b565b611409565b604051610504919061331c565b60405180910390f35b34801561051957600080fd5b50610534600480360381019061052f9190612b54565b61142c565b60405161054191906132fa565b60405180910390f35b34801561055657600080fd5b50610571600480360381019061056c91906128e7565b6116e8565b60405161057e91906132b6565b60405180910390f35b34801561059357600080fd5b5061059c611888565b6040516105a9919061345b565b60405180910390f35b3480156105be57600080fd5b506105d960048036038101906105d49190612910565b61189d565b6040516105e6919061345b565b60405180910390f35b6105f7611924565b005b606060038054600181600116156101000203166002900480601f0160208091040260200160405190810160405280929190818152602001828054600181600116156101000203166002900480156106915780601f1061066657610100808354040283529160200191610691565b820191906000526020600020905b81548152906001019060200180831161067457829003601f168201915b5050505050905090565b6000806106a6611cc5565b90506106b3818585611ccd565b600191505092915050565b60006c059c13d3eac3d0188a0af00000600c541015905090565b600080695e1d5b8642c46ef0000090506c059c13d3eac3d0188a0af00000600c5410610739576040517f08c379a0000000000000000000000000000000000000000000000000000000008152600401610730906133b9565b60405180910390fd5b6c059c13d3eac3d0188a0af0000081600c5401111561078c576000600c546c059c13d3eac3d0188a0af000000390506107723382611cdf565b80600c6000828254019250508190555080925050506107ab565b6107963382611cdf565b80600c60008282540192505081905550809150505b90565b6000806107ba85611d92565b905060001515600860008373ffffffffffffffffffffffffffffffffffffffff1673ffffffffffffffffffffffffffffffffffffffff16815260200190815260200160002060030160009054906101000a900460ff16151514156109af576001600860008373ffffffffffffffffffffffffffffffffffffffff1673ffffffffffffffffffffffffffffffffffffffff16815260200190815260200160002060030160006101000a81548160ff02191690831515021790555084600860008373ffffffffffffffffffffffffffffffffffffffff1673ffffffffffffffffffffffffffffffffffffffff16815260200190815260200160002060010190805190602001906108c99291906126dc565b5080600860008373ffffffffffffffffffffffffffffffffffffffff1673ffffffffffffffffffffffffffffffffffffffff16815260200190815260200160002060000160006101000a81548173ffffffffffffffffffffffffffffffffffffffff021916908373ffffffffffffffffffffffffffffffffffffffff160217905550600b819080600181540180825580915050600190039060005260206000200160009091909190916101000a81548173ffffffffffffffffffffffffffffffffffffffff021916908373ffffffffffffffffffffffffffffffffffffffff1602179055505b6109ba818585611f35565b809150509392505050565b6000600254905090565b6060612710600b805490501115610a1b576040517f08c379a0000000000000000000000000000000000000000000000000000000008152600401610a1290613419565b60405180910390fd5b6000600b8054905067ffffffffffffffff81118015610a3957600080fd5b50604051908082528060200260200182016040528015610a7357816020015b610a6061276a565b815260200190600190039081610a585790505b50905060005b600b80549050811015610c485760086000600b8381548110610a9757fe5b9060005260206000200160009054906101000a900473ffffffffffffffffffffffffffffffffffffffff1673ffffffffffffffffffffffffffffffffffffffff1673ffffffffffffffffffffffffffffffffffffffff1681526020019081526020016000206040518060800160405290816000820160009054906101000a900473ffffffffffffffffffffffffffffffffffffffff1673ffffffffffffffffffffffffffffffffffffffff1673ffffffffffffffffffffffffffffffffffffffff168152602001600182018054600181600116156101000203166002900480601f016020809104026020016040519081016040528092919081815260200182805460018160011615610100020316600290048015610bf65780601f10610bcb57610100808354040283529160200191610bf6565b820191906000526020600020905b815481529060010190602001808311610bd957829003601f168201915b50505050508152602001600282015481526020016003820160009054906101000a900460ff161515151581525050828281518110610c3057fe5b60200260200101819052508080600101915050610a79565b508091505090565b600080610c5b611cc5565b9050610c6885828561209e565b610c73858585612168565b60019150509392505050565b60006012905090565b60008060008373ffffffffffffffffffffffffffffffffffffffff1673ffffffffffffffffffffffffffffffffffffffff168152602001908152602001600020549050919050565b60011515600860008573ffffffffffffffffffffffffffffffffffffffff1673ffffffffffffffffffffffffffffffffffffffff16815260200190815260200160002060030160009054906101000a900460ff16151514610d66576040517f08c379a0000000000000000000000000000000000000000000000000000000008152600401610d5d90613359565b60405180910390fd5b610d71838383611f35565b505050565b6060600860008373ffffffffffffffffffffffffffffffffffffffff1673ffffffffffffffffffffffffffffffffffffffff1681526020019081526020016000206001018054600181600116156101000203166002900480601f016020809104026020016040519081016040528092919081815260200182805460018160011615610100020316600290048015610e4e5780601f10610e2357610100808354040283529160200191610e4e565b820191906000526020600020905b815481529060010190602001808311610e3157829003601f168201915b50505050509050919050565b6000600c546c059c13d3eac3d0188a0af0000003905090565b606060048054600181600116156101000203166002900480601f016020809104026020016040519081016040528092919081815260200182805460018160011615610100020316600290048015610f0b5780601f10610ee057610100808354040283529160200191610f0b565b820191906000526020600020905b815481529060010190602001808311610eee57829003601f168201915b5050505050905090565b60011515600860008573ffffffffffffffffffffffffffffffffffffffff1673ffffffffffffffffffffffffffffffffffffffff16815260200190815260200160002060030160009054906101000a900460ff16151514610fab576040517f08c379a0000000000000000000000000000000000000000000000000000000008152600401610fa290613359565b60405180910390fd5b60018410158015610fbd575060038411155b610ffc576040517f08c379a0000000000000000000000000000000000000000000000000000000008152600401610ff3906133d9565b60405180910390fd5b6000600185141561104d57600560008573ffffffffffffffffffffffffffffffffffffffff1673ffffffffffffffffffffffffffffffffffffffff16815260200190815260200160002090506110e9565b600285141561109c57600660008573ffffffffffffffffffffffffffffffffffffffff1673ffffffffffffffffffffffffffffffffffffffff16815260200190815260200160002090506110e8565b60038514156110e757600760008573ffffffffffffffffffffffffffffffffffffffff1673ffffffffffffffffffffffffffffffffffffffff16815260200190815260200160002090505b5b5b60008211156110fe576110fc8483611409565b505b60008160000184604051611112919061325b565b908152602001604051809103902090508060010160009054906101000a900460ff166111945760018160010160006101000a81548160ff02191690831515021790555081600101849080600181540180825580915050600190039060005260206000200160009091909190915090805190602001906111929291906126dc565b505b828160000160008282540192505081905550505050505050565b600080600a84846040516111c3929190613242565b908152602001604051809103902060009054906101000a900473ffffffffffffffffffffffffffffffffffffffff169050600073ffffffffffffffffffffffffffffffffffffffff168173ffffffffffffffffffffffffffffffffffffffff16141561127e5761127684848080601f016020809104026020016040519081016040528093929190818152602001838380828437600081840152601f19601f82011690508083019250505050505050611d92565b915050611283565b809150505b92915050565b6000600c54905090565b61129b61276a565b600860008373ffffffffffffffffffffffffffffffffffffffff1673ffffffffffffffffffffffffffffffffffffffff1681526020019081526020016000206040518060800160405290816000820160009054906101000a900473ffffffffffffffffffffffffffffffffffffffff1673ffffffffffffffffffffffffffffffffffffffff1673ffffffffffffffffffffffffffffffffffffffff168152602001600182018054600181600116156101000203166002900480601f0160208091040260200160405190810160405280929190818152602001828054600181600116156101000203166002900480156113d45780601f106113a9576101008083540402835291602001916113d4565b820191906000526020600020905b8154815290600101906020018083116113b757829003601f168201915b50505050508152602001600282015481526020016003820160009054906101000a900460ff1615151515815250509050919050565b600080611414611cc5565b9050611421818585612168565b600191505092915050565b60606000600184141561147f57600560008473ffffffffffffffffffffffffffffffffffffffff1673ffffffffffffffffffffffffffffffffffffffff168152602001908152602001600020905061155a565b60028414156114ce57600660008473ffffffffffffffffffffffffffffffffffffffff1673ffffffffffffffffffffffffffffffffffffffff1681526020019081526020016000209050611559565b600384141561151d57600760008473ffffffffffffffffffffffffffffffffffffffff1673ffffffffffffffffffffffffffffffffffffffff1681526020019081526020016000209050611558565b6040517f08c379a000000000000000000000000000000000000000000000000000000000815260040161154f906133d9565b60405180910390fd5b5b5b6000816001018054905067ffffffffffffffff8111801561157a57600080fd5b506040519080825280602002602001820160405280156115b457816020015b6115a16127aa565b8152602001906001900390816115995790505b50905060005b82600101805490508110156116dc5760008360010182815481106115da57fe5b906000526020600020018054600181600116156101000203166002900480601f0160208091040260200160405190810160405280929190818152602001828054600181600116156101000203166002900480156116785780601f1061164d57610100808354040283529160200191611678565b820191906000526020600020905b81548152906001019060200180831161165b57829003601f168201915b50505050509050604051806040016040528082815260200185600001836040516116a2919061325b565b9081526020016040518091039020600001548152508383815181106116c357fe5b60200260200101819052505080806001019150506115ba565b50809250505092915050565b6060600960008373ffffffffffffffffffffffffffffffffffffffff1673ffffffffffffffffffffffffffffffffffffffff168152602001908152602001600020805480602002602001604051908101604052809291908181526020016000905b8282101561187d57838290600052602060002090600302016040518060600160405290816000820160009054906101000a900473ffffffffffffffffffffffffffffffffffffffff1673ffffffffffffffffffffffffffffffffffffffff1673ffffffffffffffffffffffffffffffffffffffff16815260200160018201548152602001600282018054600181600116156101000203166002900480601f0160208091040260200160405190810160405280929190818152602001828054600181600116156101000203166002900480156118655780601f1061183a57610100808354040283529160200191611865565b820191906000526020600020905b81548152906001019060200180831161184857829003601f168201915b50505050508152505081526020019060010190611749565b505050509050919050565b60006c059c13d3eac3d0188a0af00000905090565b6000600160008473ffffffffffffffffffffffffffffffffffffffff1673ffffffffffffffffffffffffffffffffffffffff16815260200190815260200160002060008373ffffffffffffffffffffffffffffffffffffffff1673ffffffffffffffffffffffffffffffffffffffff16815260200190815260200160002054905092915050565b60003490506000811161196c576040517f08c379a000000000000000000000000000000000000000000000000000000000815260040161196390613399565b60405180910390fd5b600063065b9aaa8202905060028102611983610e5a565b10156119c4576040517f08c379a00000000000000000000000000000000000000000000000000000000081526004016119bb90613379565b60405180910390fd5b6000600d60009054906101000a900473ffffffffffffffffffffffffffffffffffffffff1673ffffffffffffffffffffffffffffffffffffffff166370a08231306040518263ffffffff1660e01b8152600401611a219190613272565b60206040518083038186803b158015611a3957600080fd5b505afa158015611a4d573d6000803e3d6000fd5b505050506040513d601f19601f82011682018060405250810190611a719190612b2b565b905060008314611baf57600d60009054906101000a900473ffffffffffffffffffffffffffffffffffffffff1673ffffffffffffffffffffffffffffffffffffffff1663d0e30db0846040518263ffffffff1660e01b81526004016000604051808303818588803b158015611ae557600080fd5b505af1158015611af9573d6000803e3d6000fd5b5050505050600d60009054906101000a900473ffffffffffffffffffffffffffffffffffffffff1673ffffffffffffffffffffffffffffffffffffffff1663a9059cbb30856040518363ffffffff1660e01b8152600401611b5b92919061328d565b602060405180830381600087803b158015611b7557600080fd5b505af1158015611b89573d6000803e3d6000fd5b505050506040513d601f19601f82011682018060405250810190611bad9190612a3e565b505b6000600d60009054906101000a900473ffffffffffffffffffffffffffffffffffffffff1673ffffffffffffffffffffffffffffffffffffffff166370a08231306040518263ffffffff1660e01b8152600401611c0c9190613272565b60206040518083038186803b158015611c2457600080fd5b505afa158015611c38573d6000803e3d6000fd5b505050506040513d601f19601f82011682018060405250810190611c5c9190612b2b565b90508382820314611ca2576040517f08c379a0000000000000000000000000000000000000000000000000000000008152600401611c99906133f9565b60405180910390fd5b611cac3384611cdf565b60028302600c6000828254019250508190555050505050565b600033905090565b611cda8383836001612284565b505050565b600073ffffffffffffffffffffffffffffffffffffffff168273ffffffffffffffffffffffffffffffffffffffff161415611d82576040517f08c379a000000000000000000000000000000000000000000000000000000000815260040180806020018281038252601f8152602001807f45524332303a206d696e7420746f20746865207a65726f20616464726573730081525060200191505060405180910390fd5b611d8e60008383612483565b5050565b60008082604051602001611da6919061325b565b604051602081830303815290604052805190602001209050600081604051602001611dd19190613227565b60405160208183030381529060405290506000601467ffffffffffffffff81118015611dfc57600080fd5b506040519080825280601f01601f191660200182016040528015611e2f5781602001600182028036833780820191505090505b5090506000805b6004811015611eae577f4400000000000000000000000000000000000000000000000000000000000000838380600101945081518110611e7257fe5b60200101907effffffffffffffffffffffffffffffffffffffffffffffffffffffffffffff1916908160001a9053508080600101915050611e36565b5060005b6014821015611f2057838181518110611ec757fe5b602001015160f81c60f81b838380600101945081518110611ee457fe5b60200101907effffffffffffffffffffffffffffffffffffffffffffffffffffffffffffff1916908160001a9053508080600101915050611eb2565b50611f2a826126ce565b945050505050919050565b611f3f8383611409565b5081600860008573ffffffffffffffffffffffffffffffffffffffff1673ffffffffffffffffffffffffffffffffffffffff16815260200190815260200160002060020160008282540192505081905550600960008473ffffffffffffffffffffffffffffffffffffffff1673ffffffffffffffffffffffffffffffffffffffff16815260200190815260200160002060405180606001604052803373ffffffffffffffffffffffffffffffffffffffff16815260200184815260200183815250908060018154018082558091505060019003906000526020600020906003020160009091909190915060008201518160000160006101000a81548173ffffffffffffffffffffffffffffffffffffffff021916908373ffffffffffffffffffffffffffffffffffffffff1602179055506020820151816001015560408201518160020190805190602001906120969291906126dc565b505050505050565b60006120aa848461189d565b90507fffffffffffffffffffffffffffffffffffffffffffffffffffffffffffffffff811461216257818110156121525781811015612151576040517f08c379a000000000000000000000000000000000000000000000000000000000815260040180806020018281038252601a8152602001807f4552433230496e73756666696369656e74416c6c6f77616e636500000000000081525060200191505060405180910390fd5b5b61216184848484036000612284565b5b50505050565b600073ffffffffffffffffffffffffffffffffffffffff168373ffffffffffffffffffffffffffffffffffffffff1614156121ee576040517f08c379a000000000000000000000000000000000000000000000000000000000815260040180806020018281038252602581526020018061371e6025913960400191505060405180910390fd5b600073ffffffffffffffffffffffffffffffffffffffff168273ffffffffffffffffffffffffffffffffffffffff161415612274576040517f08c379a00000000000000000000000000000000000000000000000000000000081526004018080602001828103825260238152602001806136d96023913960400191505060405180910390fd5b61227f838383612483565b505050565b600073ffffffffffffffffffffffffffffffffffffffff168473ffffffffffffffffffffffffffffffffffffffff16141561230a576040517f08c379a00000000000000000000000000000000000000000000000000000000081526004018080602001828103825260248152602001806137436024913960400191505060405180910390fd5b600073ffffffffffffffffffffffffffffffffffffffff168373ffffffffffffffffffffffffffffffffffffffff161415612390576040517f08c379a00000000000000000000000000000000000000000000000000000000081526004018080602001828103825260228152602001806136fc6022913960400191505060405180910390fd5b81600160008673ffffffffffffffffffffffffffffffffffffffff1673ffffffffffffffffffffffffffffffffffffffff16815260200190815260200160002060008573ffffffffffffffffffffffffffffffffffffffff1673ffffffffffffffffffffffffffffffffffffffff16815260200190815260200160002081905550801561247d578273ffffffffffffffffffffffffffffffffffffffff168473ffffffffffffffffffffffffffffffffffffffff167f8c5be1e5ebec7d5bd14f71427d1e84f3dd0314c0f7b2291e5b200ac8c7c3b925846040518082815260200191505060405180910390a35b50505050565b600073ffffffffffffffffffffffffffffffffffffffff168373ffffffffffffffffffffffffffffffffffffffff1614156124cd57806002600082825401925050819055506125cd565b60008060008573ffffffffffffffffffffffffffffffffffffffff1673ffffffffffffffffffffffffffffffffffffffff16815260200190815260200160002054905081811015612586576040517f08c379a00000000000000000000000000000000000000000000000000000000081526004018080602001828103825260148152602001807f696e73756666696369656e742062616c616e636500000000000000000000000081525060200191505060405180910390fd5b8181036000808673ffffffffffffffffffffffffffffffffffffffff1673ffffffffffffffffffffffffffffffffffffffff16815260200190815260200160002081905550505b600073ffffffffffffffffffffffffffffffffffffffff168273ffffffffffffffffffffffffffffffffffffffff1614156126175780600260008282540392505081905550612664565b806000808473ffffffffffffffffffffffffffffffffffffffff1673ffffffffffffffffffffffffffffffffffffffff168152602001908152602001600020600082825401925050819055505b8173ffffffffffffffffffffffffffffffffffffffff168373ffffffffffffffffffffffffffffffffffffffff167fddf252ad1be2c89b69c2b068fc378daa952ba7f163c4a11628f55a4df523b3ef836040518082815260200191505060405180910390a3505050565b600060148201519050919050565b828054600181600116156101000203166002900490600052602060002090601f0160209004810192826127125760008555612759565b82601f1061272b57805160ff1916838001178555612759565b82800160010185558215612759579182015b8281111561275857825182559160200191906001019061273d565b5b50905061276691906127c4565b5090565b6040518060800160405280600073ffffffffffffffffffffffffffffffffffffffff16815260200160608152602001600081526020016000151581525090565b604051806040016040528060608152602001600081525090565b5b808211156127dd5760008160009055506001016127c5565b5090565b60006127f46127ef846134c2565b613491565b90508281526020810184848401111561280c57600080fd5b612817848285613634565b509392505050565b60008135905061282e81613693565b92915050565b600081519050612843816136aa565b92915050565b60008083601f84011261285b57600080fd5b8235905067ffffffffffffffff81111561287457600080fd5b60208301915083600182028301111561288c57600080fd5b9250929050565b600082601f8301126128a457600080fd5b81356128b48482602086016127e1565b91505092915050565b6000813590506128cc816136c1565b92915050565b6000815190506128e1816136c1565b92915050565b6000602082840312156128f957600080fd5b60006129078482850161281f565b91505092915050565b6000806040838503121561292357600080fd5b60006129318582860161281f565b92505060206129428582860161281f565b9150509250929050565b60008060006060848603121561296157600080fd5b600061296f8682870161281f565b93505060206129808682870161281f565b9250506040612991868287016128bd565b9150509250925092565b600080604083850312156129ae57600080fd5b60006129bc8582860161281f565b92505060206129cd858286016128bd565b9150509250929050565b6000806000606084860312156129ec57600080fd5b60006129fa8682870161281f565b9350506020612a0b868287016128bd565b925050604084013567ffffffffffffffff811115612a2857600080fd5b612a3486828701612893565b9150509250925092565b600060208284031215612a5057600080fd5b6000612a5e84828501612834565b91505092915050565b60008060208385031215612a7a57600080fd5b600083013567ffffffffffffffff811115612a9457600080fd5b612aa085828601612849565b92509250509250929050565b600080600060608486031215612ac157600080fd5b600084013567ffffffffffffffff811115612adb57600080fd5b612ae786828701612893565b9350506020612af8868287016128bd565b925050604084013567ffffffffffffffff811115612b1557600080fd5b612b2186828701612893565b9150509250925092565b600060208284031215612b3d57600080fd5b6000612b4b848285016128d2565b91505092915050565b60008060408385031215612b6757600080fd5b6000612b75858286016128bd565b9250506020612b868582860161281f565b9150509250929050565b60008060008060808587031215612ba657600080fd5b6000612bb4878288016128bd565b9450506020612bc58782880161281f565b935050604085013567ffffffffffffffff811115612be257600080fd5b612bee87828801612893565b9250506060612bff878288016128bd565b91505092959194509250565b6000612c1783836130a7565b905092915050565b6000612c2b83836130f7565b905092915050565b6000612c3f83836131bd565b905092915050565b612c50816135d5565b82525050565b612c5f816135d5565b82525050565b6000612c7082613522565b612c7a8185613575565b935083602082028501612c8c856134f2565b8060005b85811015612cc85784840389528151612ca98582612c0b565b9450612cb48361354e565b925060208a01995050600181019050612c90565b50829750879550505050505092915050565b6000612ce58261352d565b612cef8185613586565b935083602082028501612d0185613502565b8060005b85811015612d3d5784840389528151612d1e8582612c1f565b9450612d298361355b565b925060208a01995050600181019050612d05565b50829750879550505050505092915050565b6000612d5a82613538565b612d648185613597565b935083602082028501612d7685613512565b8060005b85811015612db25784840389528151612d938582612c33565b9450612d9e83613568565b925060208a01995050600181019050612d7a565b50829750879550505050505092915050565b612dcd816135e7565b82525050565b612ddc816135e7565b82525050565b612df3612dee826135f3565b613676565b82525050565b6000612e0583856135ca565b9350612e12838584613634565b82840190509392505050565b6000612e2982613543565b612e3381856135a8565b9350612e43818560208601613643565b612e4c81613682565b840191505092915050565b6000612e6282613543565b612e6c81856135b9565b9350612e7c818560208601613643565b612e8581613682565b840191505092915050565b6000612e9b82613543565b612ea581856135ca565b9350612eb5818560208601613643565b80840191505092915050565b6000612ece6012836135b9565b91507f41646472657373206e6f742065786973747300000000000000000000000000006000830152602082019050919050565b6000612f0e6017836135b9565b91507f4e6f7420656e6f756768204d494e4720746f206d696e740000000000000000006000830152602082019050919050565b6000612f4e6010836135b9565b91507f66756e64206d757374203e207a65726f000000000000000000000000000000006000830152602082019050919050565b6000612f8e600d836135b9565b91507f4d696e742066696e6973686564000000000000000000000000000000000000006000830152602082019050919050565b6000612fce600c836135b9565b91507f496e76616c6964207479706500000000000000000000000000000000000000006000830152602082019050919050565b600061300e6016836135b9565b91507f457468657265756d206e6f74206465706f7369746564000000000000000000006000830152602082019050919050565b600061304e603b836135b9565b91507f41766f69642063616c6c696e6720746869732066756e6374696f6e206173207460008301527f6865206164647265737365732067726f7720746f6f206c6172676500000000006020830152604082019050919050565b60006060830160008301516130bf6000860182612c47565b5060208301516130d260208601826131fa565b50604083015184820360408601526130ea8282612e1e565b9150508091505092915050565b600060808301600083015161310f6000860182612c47565b50602083015184820360208601526131278282612e1e565b915050604083015161313c60408601826131fa565b50606083015161314f6060860182612dc4565b508091505092915050565b60006080830160008301516131726000860182612c47565b506020830151848203602086015261318a8282612e1e565b915050604083015161319f60408601826131fa565b5060608301516131b26060860182612dc4565b508091505092915050565b600060408301600083015184820360008601526131da8282612e1e565b91505060208301516131ef60208601826131fa565b508091505092915050565b6132038161361d565b82525050565b6132128161361d565b82525050565b61322181613627565b82525050565b60006132338284612de2565b60208201915081905092915050565b600061324f828486612df9565b91508190509392505050565b60006132678284612e90565b915081905092915050565b60006020820190506132876000830184612c56565b92915050565b60006040820190506132a26000830185612c56565b6132af6020830184613209565b9392505050565b600060208201905081810360008301526132d08184612c65565b905092915050565b600060208201905081810360008301526132f28184612cda565b905092915050565b600060208201905081810360008301526133148184612d4f565b905092915050565b60006020820190506133316000830184612dd3565b92915050565b600060208201905081810360008301526133518184612e57565b905092915050565b6000602082019050818103600083015261337281612ec1565b9050919050565b6000602082019050818103600083015261339281612f01565b9050919050565b600060208201905081810360008301526133b281612f41565b9050919050565b600060208201905081810360008301526133d281612f81565b9050919050565b600060208201905081810360008301526133f281612fc1565b9050919050565b6000602082019050818103600083015261341281613001565b9050919050565b6000602082019050818103600083015261343281613041565b9050919050565b60006020820190508181036000830152613453818461315a565b905092915050565b60006020820190506134706000830184613209565b92915050565b600060208201905061348b6000830184613218565b92915050565b6000604051905081810181811067ffffffffffffffff821117156134b8576134b7613680565b5b8060405250919050565b600067ffffffffffffffff8211156134dd576134dc613680565b5b601f19601f8301169050602081019050919050565b6000819050602082019050919050565b6000819050602082019050919050565b6000819050602082019050919050565b600081519050919050565b600081519050919050565b600081519050919050565b600081519050919050565b6000602082019050919050565b6000602082019050919050565b6000602082019050919050565b600082825260208201905092915050565b600082825260208201905092915050565b600082825260208201905092915050565b600082825260208201905092915050565b600082825260208201905092915050565b600081905092915050565b60006135e0826135fd565b9050919050565b60008115159050919050565b6000819050919050565b600073ffffffffffffffffffffffffffffffffffffffff82169050919050565b6000819050919050565b600060ff82169050919050565b82818337600083830152505050565b60005b83811015613661578082015181840152602081019050613646565b83811115613670576000848401525b50505050565b6000819050919050565bfe5b6000601f19601f8301169050919050565b61369c816135d5565b81146136a757600080fd5b50565b6136b3816135e7565b81146136be57600080fd5b50565b6136ca8161361d565b81146136d557600080fd5b5056fe45524332303a207472616e7366657220746f20746865207a65726f206164647265737345524332303a20617070726f766520746f20746865207a65726f206164647265737345524332303a207472616e736665722066726f6d20746865207a65726f206164647265737345524332303a20617070726f76652066726f6d20746865207a65726f2061646472657373a264697066735822122050e7024c0710dc8a07011a9717e6bf0647924f9217d2dc5590e815b7b747225764736f6c63430007060033",
  "linkReferences": {},
  "deployedLinkReferences": {}
}